:100000000C9463000C948B000C948B000C94C10432
:100010000C94C1040C94C1040C948B000C948B00C0
:100020000C948B000C948B000C948B000C948B0024
:100030000C948B000C948B000C948B000C948B0014
:100040000C9477040C948B000C9445040C941F04BE
:100050000C948B000C948B000C948B000C948B00F4
:100060000C948B000C948B000000000024002700EF
:100070002A0000000008000201000003040700003D
:1000800000000000000000000000230026002900FE
:1000900000000000250028002B00040404040404D0
:1000A0000404020202020202030303030303010227
:1000B00004081020408001020408102001020408F6
:1000C000102039057B0811241FBECFEFD8E0DEBF1A
:1000D000CDBF23E0A2E9B1E001C01D92A73AB2076B
:1000E000E1F711E0A0E0B1E0E4E9F6E102C005903B
:1000F0000D92A239B107D9F710E0C2E6D0E004C0F2
:100100002197FE010E942009C136D107C9F70E943C
:100110002E060C943D0B0C9400000895AF92BF92F4
:10012000CF92DF92EF92FF920F931F93CF93DF93C3
:100130006C017B018B01040F151FEB015E01AE18F2
:10014000BF08C017D10759F06991D601ED91FC9114
:100150000190F081E02DC6010995892B79F7C50141
:10016000DF91CF911F910F91FF90EF90DF90CF9093
:10017000BF90AF900895FC01538D448D252F30E042
:10018000842F90E0821B930B541710F0CF960895A4
:1001900001970895FC01918D828D981761F0A28DD1
:1001A000AE0FBF2FB11D5D968C91928D9F5F9F7397
:1001B000928F90E008958FEF9FEF0895FC01918D4D
:1001C000828D981731F0828DE80FF11D858D90E0BA
:1001D00008958FEF9FEF0895FC01918D228D892F57
:1001E00090E0805C9F4F821B91098F73992708953F
:1001F0008FED91E00E94EC0021E0892B09F420E0D2
:10020000822F089580E090E0892B29F00E94F80069
:1002100081110C9400000895FC01A48DA80FB92F42
:10022000B11DA35ABF4F2C91848D90E001968F731E
:100230009927848FA689B7892C93A089B1898C913D
:10024000837080648C93938D848D981306C002888C
:10025000F389E02D80818F7D80830895EF92FF9256
:100260000F931F93CF93DF93EC0181E0888F9B8DD9
:100270008C8D98131AC0E889F989808185FF15C093
:100280009FB7F894EE89FF896083E889F9898081B6
:100290008370806480839FBF81E090E0DF91CF9185
:1002A0001F910F91FF90EF900895F62E0B8D10E0A7
:1002B0000F5F1F4F0F731127E02E8C8D8E110CC016
:1002C0000FB607FCFACFE889F989808185FFF5CF61
:1002D000CE010E940C01F1CFEB8DEC0FFD2FF11D33
:1002E000E35AFF4FF0829FB7F8940B8FEA89FB899E
:1002F00080818062CFCFCF93DF93EC01888D8823FC
:10030000B9F0AA89BB89E889F9898C9185FD03C078
:10031000808186FD0DC00FB607FCF7CF8C9185FF5D
:10032000F2CF808185FFEDCFCE010E940C01E9CF95
:10033000DF91CF910895833081F028F4813099F0D6
:100340008230A9F008958730A9F08830C9F0843050
:10035000B1F4809180008F7D03C0809180008F7701
:1003600080938000089584B58F7784BD089584B507
:100370008F7DFBCF8091B0008F778093B000089580
:100380008091B0008F7DF9CFCF93DF93E2E8F0E06A
:100390008491EEEBF0E0D491EAEAF0E0C491CC2352
:1003A000A1F081110E949B01EC2FF0E0EE0FFF1FE6
:1003B000EA57FF4FA591B491EC91ED2381E090E0D5
:1003C00009F480E0DF91CF91089580E090E0FACFCA
:1003D0001F93CF93DF93282F30E0F901EE58FF4FA2
:1003E0008491F901E255FF4FD491F901E656FF4F90
:1003F000C491CC23A9F0162F81110E949B01EC2FF0
:10040000F0E0EE0FFF1FE057FF4FA591B4918FB7BB
:10041000F894EC91111108C0D095DE23DC938FBFC6
:10042000DF91CF911F910895DE2BF8CFCF93DF930B
:1004300090E0FC01E255FF4F249186569F4FFC014E
:1004400084918823D1F090E0880F991FFC01E8592E
:10045000FF4FA591B491FC01E057FF4FC591D49196
:1004600061110EC09FB7F8948C91E22FE0958E2316
:100470008C932881E223E8839FBFDF91CF91089579
:100480008FB7F894EC91E22BEC938FBFF6CF3FB788
:10049000F8948091D3019091D401A091D501B091AD
:1004A000D60126B5A89B05C02F3F19F00196A11DC6
:1004B000B11D3FBFBA2FA92F982F8827BC01CD01AE
:1004C000620F711D811D911D42E0660F771F881F0D
:1004D000991F4A95D1F708958F929F92AF92BF923C
:1004E000CF92DF92EF92FF924B015C010E94470294
:1004F0006B017C010E9447026C197D098E099F09DE
:10050000683E734081059105A8F321E0821A9108A5
:10051000A108B10888EEC80E83E0D81EE11CF11CCA
:1005200081149104A104B10429F7FF90EF90DF90AA
:10053000CF90BF90AF909F908F9008952091D90158
:100540003091DA012817390771F49091D701809121
:10055000D801981741F0E091D701F0E0EE56FE4F38
:10056000808190E008958FEF9FEF0895EF92FF92C2
:100570000F931F93CF93DF93DC015C96ED90FC907B
:100580005D97E114F10479F481E090E013969C9377
:100590008E93129790E080E0DF91CF911F910F91A1
:1005A000FF90EF9008955196ED91FC9152975096DF
:1005B0008C915097982F90950FB75E962C915E97DF
:1005C000122F127021FD6095F8942081112319F1EA
:1005D000282B2083E7012197F1F728E0462F50E0F0
:1005E000308160FF1AC0382B3083E7012197F1F783
:1005F000BA0175956795215089F7112381F08081A3
:10060000892380830FBF5C968D919C910197F1F7B0
:1006100081E090E0C1CF2923DCCF3923E5CF908161
:10062000892BEFCF2091D9013091DA0128173907B2
:1006300071F48091D8012091D70190E0805C9F4FA8
:10064000821B910960E470E00E94D608089590E052
:1006500080E008952091D9013091DA0128173907F7
:10066000B9F49091D7018091D801981789F0E09161
:10067000D701F0E0EE56FE4F80812091D70130E0A7
:100680002F5F3F4F2F7333272093D70190E00895BA
:100690008FEF9FEF089590E080E00895FB010190B7
:1006A0000020E9F73197AF01461B570BDC01ED91B4
:1006B000FC910280F381E02D09940F931F93CF9357
:1006C000DF938C01D0E0C0E06115710519F00E9444
:1006D0004E03EC0162E471E0C8010E944E038C0FEE
:1006E0009D1FDF91CF911F910F9108953F924F92DF
:1006F0005F926F927F928F929F92AF92BF92CF92B2
:10070000DF92EF92FF920F931F93CF93DF93CDB7BA
:10071000DEB7C456D1090FB6F894DEBF0FBECDBF09
:100720007C015B01CE0101964C0184E6F40111923B
:100730008A95E9F78FB7F8944090DB015090DC017F
:100740006090DD017090DE018FBF10E000E08FB798
:10075000F8944091DB015091DC016091DD017091D2
:10076000DE018FBF441955096609770980917C0322
:1007700090917D03B0E0A0E084179507A607B70726
:1007800000F5B70184E893E00E945D036AE271E03E
:1007900084E893E00E944E03B7018FED91E00E9440
:1007A0005D038FB7F8944090DB015090DC016090BE
:1007B000DD017090DE018FBF0F5F1F4F0430110508
:1007C000E9F1640184E893E00E941203892BA1F00F
:1007D00084E893E00E942A03382E682F8FED91E081
:1007E0000E942E01F60131926F0162E070E080E01C
:1007F00090E00E946C02E6CFB501C4010E94230B79
:10080000892B09F4A4CF90E080E0CC59DF4F0FB6DC
:10081000F894DEBF0FBECDBFDF91CF911F910F9136
:10082000FF90EF90DF90CF90BF90AF909F908F9010
:100830007F906F905F904F903F900895E6CF1F920A
:100840000F920FB60F9211242F933F934F935F9304
:100850006F937F938F939F93AF93BF93EF93FF9388
:100860008FED91E00E940C01FF91EF91BF91AF914C
:100870009F918F917F916F915F914F913F912F91B8
:100880000F900FBE0F901F9018951F920F920FB6EA
:100890000F9211242F938F939F93EF93FF93E091E7
:1008A000EF01F091F0018081E091F501F091F60106
:1008B00082FD1BC090818091F8018F5F8F73209122
:1008C000F901821741F0E091F801F0E0E152FE4FAA
:1008D000958F8093F801FF91EF919F918F912F91C8
:1008E0000F900FBE0F901F9018958081F4CF1F922C
:1008F0000F920FB60F9211242F933F938F939F93D4
:10090000AF93BF938091DB019091DC01A091DD0159
:10091000B091DE013091D20123E0230F2D3758F53D
:100920000196A11DB11D2093D2018093DB0190930C
:10093000DC01A093DD01B093DE018091D3019091A1
:10094000D401A091D501B091D6010196A11DB11D90
:100950008093D3019093D401A093D501B093D60195
:10096000BF91AF919F918F913F912F910F900FBEAB
:100970000F901F90189526E8230F0296A11DB11D18
:10098000D2CF1F920F920FB60F9211242F933F9345
:100990004F935F936F937F938F939F93AF93BF9387
:1009A000EF93FF93E091D901F091DA01309749F08C
:1009B000A685B7858585968D91FF14C09C91892366
:1009C000A1F4FF91EF91BF91AF919F918F917F9192
:1009D0006F915F914F913F912F910F900FBE0F90AC
:1009E0001F9018959C91892361F7A389B4899C91E4
:1009F0008589809589238C93868997890197F1F75A
:100A0000608D718DA685B785558538E020E0CB01D6
:100A10000197F1F7822F90E095958795282F4C91BB
:100A2000452309F02068315091F7868D81FD20958E
:100A30008091D80190E001968F7399273091D7016A
:100A4000381799F0A091D801B0E0AE56BE4F2C9364
:100A50008093D801828D938D0197F1F7A389B48992
:100A60008C919589892B8C93ACCF868D8160868FF4
:100A7000F1CF1092E2011092E10188EE93E0A0E044
:100A8000B0E08093E3019093E401A093E501B0937B
:100A9000E6012AE031E03093E0012093DF0125EC0C
:100AA00030E03093EC012093EB0124EC30E0309304
:100AB000EE012093ED0120EC30E03093F001209323
:100AC000EF0121EC30E03093F2012093F10122ECB0
:100AD00030E03093F4012093F30126EC30E03093C2
:100AE000F6012093F5011092F8011092F90110928D
:100AF000FA011092FB0110928703109286038093F3
:100B0000880390938903A0938A03B0938B038CE1AD
:100B100091E0909385038093840310929B0310923D
:100B20009A0310929D0310929C0310929F031092BF
:100B30009E031092A1031092A0036091A2036E7F06
:100B40006D7F6093A2036695617081E0682787E0FE
:100B50000E94E80161E087E00E941602E5EBF0E008
:100B6000E491E0939403E1EAF0E0E491F0E0EE0F29
:100B7000FF1FE057FF4F85919491909396038093C8
:100B8000950360E088E00E9416028091A20381FD37
:100B900004C061E088E00E94E80188E0809390034F
:100BA000E6EBF0E0E491E0939103E2EAF0E0E49117
:100BB000F0E0EE0FFF1FEA57FF4F8591949190935D
:100BC00093038093920388EE93E090937D03809348
:100BD0007C0310927F0310927E0310928103109287
:100BE0008003109283031092820361E070E090E032
:100BF00080E00E944B0A0097E1F090937F0380937E
:100C00007E03109281031092800320918203309121
:100C10008303232B11F4FC011082109283031092A2
:100C2000820364E471E080917E0390917F030C94D1
:100C30001C0B80917E0390917F03009711F00E941E
:100C4000C20910927F0310927E03109283031092C8
:100C5000820310928103109280030895CF93DF9353
:100C6000CDB7DEB7A1970FB6F894DEBF0FBECDBFEC
:100C7000789484B5826084BD84B5816084BD85B577
:100C8000826085BD85B5816085BD80916E00816083
:100C900080936E0010928100809181008260809329
:100CA000810080918100816080938100809180002B
:100CB0008160809380008091B10084608093B10056
:100CC0008091B00081608093B00080917A00846050
:100CD00080937A0080917A00826080937A0080917C
:100CE0007A00816080937A0080917A008068809396
:100CF0007A001092C10061E086E00E94160260E076
:100D000089E00E94160261E08FE00E94160261E015
:100D100081E10E94160260E080E10E94160261E01B
:100D20008FE00E94E80168EE73E080E090E00E94AE
:100D30006C0260E08FE00E94E80110929F03109225
:100D40009E0310929D0310929C0310929B0310929D
:100D50009A038DE991E09093A1038093A003909171
:100D60009003963108F047C02DEB30E030939B03A1
:100D700020939A032BE931E030939D0320939C0349
:100D80002CE231E030939F0320939E032091680072
:100D900084E0983048F031E09E3008F430E081E0A3
:100DA00001C0880F3A95EAF7822B809368002DE600
:100DB00030E0983050F02BE630E09E3030F02CE6FA
:100DC00030E0963110F030E020E03093980320932B
:100DD0009703292F30E0983008F0DEC081E001C091
:100DE000880F9A95EAF7809399038091A0039091D8
:100DF000A1030197F1F780919E0390919F03892BA6
:100E000049F1E091D901F091DA0183E0E438F80783
:100E100009F1309739F0A389B4899C91858980952F
:100E200089238C938091A2038E7F8093A2031092DA
:100E3000D8011092D70184E893E09093DA0180936F
:100E4000D901E0919703F0919803808190919903E3
:100E5000892B8083E091EF01F091F00122E0208363
:100E6000E091EB01F091EC011082E091ED01F09145
:100E7000EE0180E180831092F701E091F301F0919F
:100E8000F40196E09083E091F101F091F20180810C
:100E900080618083E091F101F091F20180818860AE
:100EA0008083E091F101F091F2018081806880837C
:100EB000E091F101F091F20180818F7D8083E091DA
:100EC000EF01F091F0012083E091EB01F091EC0152
:100ED0001082E091ED01F091EE018FEC8083109291
:100EE000F701E091F301F091F4019083E091F101B9
:100EF000F091F201808180618083E091F101F091B5
:100F0000F201808188608083E091F101F091F2012B
:100F1000808180688083E091F101F091F20180810D
:100F20008F7D808364E670E080E090E00E946C0238
:100F300061E081E10E94E8018AE0C82ED12CE12C19
:100F4000F12C0E94C4018823A1F10E94C401282F22
:100F500030E050E040E019A28E010F5D1F4FCA0142
:100F6000B901A70196010E94EA08605DD8016E935D
:100F70008D01211531054105510589F7109729F09B
:100F8000BD018FED91E00E944E0362E471E08FEDB0
:100F900091E00E944E03D5CF9E3040F42850310995
:100FA00081E001C0880F2A95EAF71DCF2E50310944
:100FB000F7CF60E081E10E94E8016CE271E08FED23
:100FC00091E00E945D0368EE73E080E090E00E9493
:100FD0006C0260E471E085E491E00E94760360E4D5
:100FE00071E08AE491E00E94760361E086E00E946D
:100FF000E80168EE73E080E090E00E946C0260E03F
:1010000086E00E94E80168EE73E080E090E00E94D4
:101010006C0261E086E00E94E80168EE73E080E027
:1010200090E00E946C0260E086E00E94E80168EEB9
:1010300073E080E090E00E946C0261E086E00E9434
:10104000E80168EE73E080E090E00E946C026DE4DD
:1010500071E080E591E00E9476036DE471E08AE53D
:1010600091E00E94760368E671E08CE792E00E94CE
:101070001C0B62E771E08CE792E00E94110B60E7C5
:1010800071E08CE792E00E94110B60E871E08CE760
:1010900092E00E947603ECE7F2E084E6DF011D9225
:1010A0008A95E9F762E871E084E893E00E944E03D4
:1010B00064EF71E080E090E00E946C026AE184E8F5
:1010C00093E00E94B60264EF71E080E090E00E943D
:1010D0006C0268E871E08FED91E00E945D0300E032
:1010E00010E001151105E9F30E94F8008823C9F307
:1010F0000E940000F6CF80917E0390917F030097BD
:1011000011F00E94C2098CE191E0909385038093D5
:1011100084038091D9019091DA018458934071F44D
:10112000E0919703F09198039081809199038095C5
:10113000892380831092DA011092D90108952F92A9
:101140003F924F925F926F927F928F929F92AF9257
:10115000BF92CF92DF92EF92FF920F931F93CF93A4
:10116000DF93CDB7DEB7CA1BDB0B0FB6F894DEBF3B
:101170000FBECDBF09942A88398848885F846E8461
:101180007D848C849B84AA84B984C884DF80EE80AB
:10119000FD800C811B81AA81B981CE0FD11D0FB6B4
:1011A000F894DEBF0FBECDBFED01089597FB072E6B
:1011B00016F4009407D077FD09D00E940C0907FCB3
:1011C00005D03EF4909581959F4F08957095619557
:1011D0007F4F0895A1E21A2EAA1BBB1BFD010DC073
:1011E000AA1FBB1FEE1FFF1FA217B307E407F507D7
:1011F00020F0A21BB30BE40BF50B661F771F881FB3
:10120000991F1A9469F760957095809590959B0148
:10121000AC01BD01CF010895AA1BBB1B51E107C062
:10122000AA1FBB1FA617B70710F0A61BB70B881F76
:10123000991F5A95A9F780959095BC01CD01089505
:10124000EE0FFF1F0590F491E02D09940F931F936B
:10125000CF93DF938230910510F482E090E0E0912B
:10126000A503F091A60330E020E0B0E0A0E03097C5
:1012700099F42115310509F44AC0281B390B243093
:101280003105D8F58A819B816115710589F1FB01D2
:1012900093838283FE0111C04081518102811381B9
:1012A00048175907E0F04817590799F4109761F06B
:1012B00012960C93129713961C933296CF01DF91DE
:1012C000CF911F910F9108950093A5031093A6034A
:1012D000F4CF2115310551F04217530738F0A90119
:1012E000DB019A01BD01DF01F801C1CFEF01F9CFA8
:1012F0009093A6038093A503CDCFFE01E20FF31FC9
:10130000819391932250310939832883D7CF20913B
:10131000A3033091A403232B41F4209102013091C7
:1013200003013093A4032093A30320910001309183
:1013300001012115310541F42DB73EB7409104015B
:1013400050910501241B350BE091A303F091A403F8
:10135000E217F307A0F42E1B3F0B2817390778F08C
:10136000AC014E5F5F4F2417350748F04E0F5F1FEB
:101370005093A4034093A303819391939FCFF0E0F4
:10138000E0E09CCFCF93DF930097E9F0FC01329728
:1013900013821282A091A503B091A603ED0130E063
:1013A00020E01097A1F420813181820F931F2091BA
:1013B000A3033091A4032817390709F061C0F09303
:1013C000A403E093A303DF91CF910895EA01CE1720
:1013D000DF07E8F54A815B819E0141155105B1F7B0
:1013E000E901FB83EA8349915991C40FD51FEC179A
:1013F000FD0761F4808191810296840F951FE901B8
:1014000099838883828193819B838A83F0E0E0E0E3
:1014100012968D919C9113970097B9F52D913C915F
:101420001197CD010296820F931F2091A303309153
:10143000A4032817390739F6309751F51092A603FF
:101440001092A503B093A403A093A303BCCFD383AE
:10145000C28340815181840F951FC817D90761F459
:101460004E5F5F4F88819981480F591F5183408398
:101470008A819B81938382832115310509F0B0CF46
:10148000F093A603E093A5039ECFFD01DC01C0CF3E
:1014900013821282D7CFB0E0A0E0E1E5FAE00C942D
:1014A000A1088C01009751F4CB010E9426098C0100
:1014B000C801CDB7DEB7E0E10C94BD08FC01E60F32
:1014C000F71F9C0122503109E217F30708F49DC071
:1014D000D901CD91DC911197C617D70798F0C53087
:1014E000D10530F3CE0104978617970708F3C61B82
:1014F000D70B2297C193D1936D937C93CF010E9418
:10150000C209D6CF5B01AC1ABD0A4C018C0E9D1EE0
:10151000A091A503B091A603512C412CF12CE12CF4
:10152000109731F58091A3039091A4038815990534
:1015300009F05CC04616570608F058C080910001BB
:1015400090910101009741F48DB79EB7409104013D
:1015500050910501841B950BE817F90708F055C059
:10156000F093A403E093A303F90171836083A0CFF8
:101570008D919C91119712966C90129713967C9076
:101580001397A815B90559F56C0142E0C40ED11C9A
:10159000CA14DB0420F1AC014A195B09DA01129686
:1015A000159780F06282738251834083D9016D93D5
:1015B0007C93E114F10471F0D7011396FC93EE9340
:1015C000129776CF22968C0F9D1FF901918380830D
:1015D000F301EFCFF093A603E093A50369CF48167C
:1015E000590608F42C017D01D3019ACFCB010E944A
:1015F00026097C01009749F0AE01B8010E94080B52
:10160000C8010E94C209870153CF10E000E050CF0B
:10161000FB01DC0102C001900D9241505040D8F70F
:101620000895FB01DC010D900020E9F7119701906E
:101630000D920020E1F70895FB01DC0101900D926D
:101640000020E1F70895FB0151915523A9F0BF0156
:10165000DC014D9145174111E1F759F4CD0101909D
:10166000002049F04D9140154111C9F3FB01411192
:10167000EFCF81E090E00197089510E0C2E6D0E05E
:1016800004C0FE010E9420092196C336D107C9F784
:04169000F894FFCFFC
:101694000000A7038000000000002E018E00BB00A4
:1016A4007B01EC00CA00DE0000000000B6028E00E0
:1016B4004B038D0012032A039E020D004D6F6475C7
:1016C4006C6520696E697469616C697A696E67001A
:1016D4004F4B0D0A0041544531004154004F4B001B
:1016E40041542B434D47463D310041542B43534312
:1016F400533D2247534D220041542B434D47533D04
:1017040022002B393035333034353433343236001B
:101714003E00424F50322100534D532073656E7486
:021724002100A2
:00000001FF
