:100000000C9463000C948B000C948B000C947D0476
:100010000C947D040C947D040C948B000C948B0048
:100020000C948B000C948B000C948B000C948B0024
:100030000C948B000C948B000C948B000C948B0014
:100040000C9433040C948B000C9401040C94DB038B
:100050000C948B000C948B000C948B000C948B00F4
:100060000C948B000C948B000000000024002700EF
:100070002A0000000008000201000003040700003D
:1000800000000000000000000000230026002900FE
:1000900000000000250028002B00040404040404D0
:1000A0000404020202020202030303030303010227
:1000B00004081020408001020408102001020408F6
:1000C0001020F504DA0711241FBECFEFD8E0DEBF01
:1000D000CDBF23E0ACE4B1E001C01D92A136B20770
:1000E000E1F711E0A0E0B1E0E8EFF4E102C0059033
:1000F0000D92AC34B107D9F710E0C2E6D0E004C0ED
:100100002197FE010E945D08C136D107C9F70E9400
:10011000EA050C946F0A0C9400000895AF92BF9208
:10012000CF92DF92EF92FF920F931F93CF93DF93C3
:100130006C017B018B01040F151FEB015E01AE18F2
:10014000BF08C017D10759F06991D601ED91FC9114
:100150000190F081E02DC6010995892B79F7C50141
:10016000DF91CF911F910F91FF90EF90DF90CF9093
:10017000BF90AF900895FC01538D448D252F30E042
:10018000842F90E0821B930B541710F0CF960895A4
:1001900001970895FC01918D828D981761F0A28DD1
:1001A000AE0FBF2FB11D5D968C91928D9F5F9F7397
:1001B000928F90E008958FEF9FEF0895FC01918D4D
:1001C000828D981731F0828DE80FF11D858D90E0BA
:1001D00008958FEF9FEF0895FC01918D228D892F57
:1001E00090E0805C9F4F821B91098F73992708953F
:1001F00089E991E00E94EC0021E0892B09F420E0DC
:10020000822F089580E090E0892B29F00E94F80069
:1002100081110C9400000895FC01A48DA80FB92F42
:10022000B11DA35ABF4F2C91848D90E001968F731E
:100230009927848FA689B7892C93A089B1898C913D
:10024000837080648C93938D848D981306C002888C
:10025000F389E02D80818F7D80830895EF92FF9256
:100260000F931F93CF93DF93EC0181E0888F9B8DD9
:100270008C8D98131AC0E889F989808185FF15C093
:100280009FB7F894EE89FF896083E889F9898081B6
:100290008370806480839FBF81E090E0DF91CF9185
:1002A0001F910F91FF90EF900895F62E0B8D10E0A7
:1002B0000F5F1F4F0F731127E02E8C8D8E110CC016
:1002C0000FB607FCFACFE889F989808185FFF5CF61
:1002D000CE010E940C01F1CFEB8DEC0FFD2FF11D33
:1002E000E35AFF4FF0829FB7F8940B8FEA89FB899E
:1002F00080818062CFCFCF93DF93EC01888D8823FC
:10030000B9F0AA89BB89E889F9898C9185FD03C078
:10031000808186FD0DC00FB607FCF7CF8C9185FF5D
:10032000F2CF808185FFEDCFCE010E940C01E9CF95
:10033000DF91CF910895833081F028F4813099F0D6
:100340008230A9F008958730A9F08830C9F0843050
:10035000B1F4809180008F7D03C0809180008F7701
:1003600080938000089584B58F7784BD089584B507
:100370008F7DFBCF8091B0008F778093B000089580
:100380008091B0008F7DF9CF1F93CF93DF93282FFB
:1003900030E0F901EE58FF4F8491F901E255FF4F2B
:1003A000D491F901E656FF4FC491CC23A9F0162F42
:1003B00081110E949B01EC2FF0E0EE0FFF1FE05730
:1003C000FF4FA591B4918FB7F894EC91111108C02B
:1003D000D095DE23DC938FBFDF91CF911F910895DD
:1003E000DE2BF8CFCF93DF9390E0FC01E255FF4F77
:1003F000249186569F4FFC0184918823D1F090E090
:10040000880F991FFC01E859FF4FA591B491FC0199
:10041000E057FF4FC591D49161110EC09FB7F8947A
:100420008C91E22FE0958E238C932881E223E88340
:100430009FBFDF91CF9108958FB7F894EC91E22B95
:10044000EC938FBFF6CF3FB7F89480918D019091D8
:100450008E01A0918F01B091900126B5A89B05C097
:100460002F3F19F00196A11DB11D3FBFBA2FA92F33
:10047000982F8827BC01CD01620F711D811D911D30
:1004800042E0660F771F881F991F4A95D1F708959C
:100490008F929F92AF92BF92CF92DF92EF92FF9294
:1004A0004B015C010E9423026B017C010E9423022C
:1004B0006C197D098E099F09683E7340810591057D
:1004C000A8F321E0821A9108A108B10888EEC80EAD
:1004D00083E0D81EE11CF11C81149104A104B10435
:1004E00029F7FF90EF90DF90CF90BF90AF909F9053
:1004F0008F90089520919301309194012817390726
:1005000071F49091910180919201981741F0E091DE
:100510009101F0E0E45BFE4F808190E008958FEF61
:100520009FEF0895EF92FF920F931F93CF93DF9366
:10053000DC015C96ED90FC905D97E114F10479F498
:1005400081E090E013969C938E93129790E080E068
:10055000DF91CF911F910F91FF90EF9008955196E9
:10056000ED91FC91529750968C915097982F9095C1
:100570000FB75E962C915E97122F127021FD609539
:10058000F8942081112319F1282B2083E70121976A
:10059000F1F728E0462F50E0308160FF1AC0382B79
:1005A0003083E7012197F1F7BA01759567952150DE
:1005B00089F7112381F08081892380830FBF5C96A6
:1005C0008D919C910197F1F781E090E0C1CF2923B3
:1005D000DCCF3923E5CF9081892BEFCF2091930198
:1005E000309194012817390771F48091920120917C
:1005F000910190E0805C9F4F821B910960E470E064
:100600000E943508089590E080E0089520919301BC
:100610003091940128173907B9F490919101809194
:100620009201981789F0E0919101F0E0E45BFE4FB0
:1006300080812091910130E02F5F3F4F2F7333274E
:100640002093910190E008958FEF9FEF089590E03F
:1006500080E00895FB0101900020E9F73197AF0198
:10066000461B570BDC01ED91FC910280F381E02DDC
:1006700009944F925F926F927F929F92AF92BF9236
:10068000CF92DF92EF92FF920F931F93CF93DF935E
:10069000CDB7DEB7C456D1090FB6F894DEBF0FBE92
:1006A000CDBF5C018E010F5F1F4F84E6F8011192F0
:1006B0008A95E9F78FB7F89440909501509096018C
:1006C00060909701709098018FBFF12CE12C8FB74B
:1006D000F894409195015091960160919701709125
:1006E00098018FBF4419550966097709809136032F
:1006F00090913703B0E0A0E084179507A607B707ED
:10070000E8F4B5018EE393E00E942A036CE271E005
:100710008EE393E00E942A038FB7F89440909501EE
:100720005090960160909701709098018FBFFFEFF5
:10073000EF1AFF0A84E0E816F104E1F168018EE3A4
:1007400093E00E94EE02892BA1F08EE393E00E94D9
:100750000603982E682F89E991E00E942E01F60188
:1007600091926F0162E070E080E090E00E944802A8
:10077000E6CF6AE271E0C8010E94550A892B09F4AC
:10078000A6CF90E080E0CC59DF4F0FB6F894DEBFE3
:100790000FBECDBFDF91CF911F910F91FF90EF90D2
:1007A000DF90CF90BF90AF909F907F906F905F90C1
:1007B0004F900895E8CF1F920F920FB60F92112419
:1007C0002F933F934F935F936F937F938F939F9359
:1007D000AF93BF93EF93FF9389E991E00E940C01DF
:1007E000FF91EF91BF91AF919F918F917F916F9109
:1007F0005F914F913F912F910F900FBE0F901F90DF
:1008000018951F920F920FB60F9211242F938F936A
:100810009F93EF93FF93E091A901F091AA0180814A
:10082000E091AF01F091B00182FD1BC090818091F9
:10083000B2018F5F8F732091B301821741F0E09175
:10084000B201F0E0E756FE4F958F8093B201FF9121
:10085000EF919F918F912F910F900FBE0F901F904E
:1008600018958081F4CF1F920F920FB60F9211242A
:100870002F933F938F939F93AF93BF938091950155
:1008800090919601A0919701B091980130918C01BF
:1008900023E0230F2D3758F50196A11DB11D20939C
:1008A0008C018093950190939601A0939701B0934A
:1008B000980180918D0190918E01A0918F01B0914E
:1008C00090010196A11DB11D80938D0190938E0121
:1008D000A0938F01B0939001BF91AF919F918F91A1
:1008E0003F912F910F900FBE0F901F90189526E803
:1008F000230F0296A11DB11DD2CF1F920F920FB6EA
:100900000F9211242F933F934F935F936F937F9395
:100910008F939F93AF93BF93EF93FF93E0919301D6
:10092000F0919401309749F0A685B7858585968D1D
:1009300091FF14C09C918923A1F4FF91EF91BF9185
:10094000AF919F918F917F916F915F914F913F9167
:100950002F910F900FBE0F901F9018959C91892397
:1009600061F7A389B4899C918589809589238C93AB
:10097000868997890197F1F7608D718DA685B78576
:10098000558538E020E0CB010197F1F7822F90E008
:1009900095958795282F4C91452309F02068315073
:1009A00091F7868D81FD20958091920190E00196CE
:1009B0008F73992730919101381799F0A091920186
:1009C000B0E0A45BBE4F2C9380939201828D938DF7
:1009D0000197F1F7A389B4898C919589892B8C9320
:1009E000ACCF868D8160868FF1CF10929C011092E2
:1009F0009B0188EE93E0A0E0B0E080939D0190938E
:100A00009E01A0939F01B093A0012AE031E03093B2
:100A10009A012093990125EC30E03093A6012093B0
:100A2000A50124EC30E03093A8012093A70120EC2D
:100A300030E03093AA012093A90121EC30E03093FB
:100A4000AC012093AB0122EC30E03093AE01209357
:100A5000AD0126EC30E03093B0012093AF0110924D
:100A6000B2011092B3011092B4011092B50110922C
:100A70004103109240038093420390934303A09359
:100A80004403B09345038CE191E090933F0380933E
:100A90003E03109255031092540310925703109284
:100AA0005603109259031092580310925B03109250
:100AB0005A0360915C036E7F6D7F60935C03669563
:100AC000617081E0682787E00E94C40161E087E0EF
:100AD0000E94F201E5EBF0E0E491E0934E03E1EADD
:100AE000F0E0E491F0E0EE0FFF1FE057FF4F85913B
:100AF00094919093500380934F0360E088E00E94AC
:100B0000F20180915C0381FD04C061E088E00E94F5
:100B1000C40188E080934A03E6EBF0E0E491E093BF
:100B20004B03E2EAF0E0E491F0E0EE0FFF1FEA573A
:100B3000FF4F8591949190934D0380934C0388EEE1
:100B400093E0909337038093360310923903109209
:100B5000380310923B0310923A0310923D03109217
:100B60003C0361E070E090E080E00E94880900971B
:100B7000E1F0909339038093380310923B03109275
:100B80003A0320913C0330913D03232B11F4FC01E7
:100B9000108210923D0310923C036EE271E080914E
:100BA0003803909139030C944E0A80913803909148
:100BB0003903009711F00E94FF0810923903109238
:100BC000380310923D0310923C0310923B031092A5
:100BD0003A030895789484B5826084BD84B58160B9
:100BE00084BD85B5826085BD85B5816085BD8091F8
:100BF0006E00816080936E00109281008091810070
:100C00008260809381008091810081608093810067
:100C1000809180008160809380008091B100846029
:100C20008093B1008091B00081608093B00080918A
:100C30007A00846080937A0080917A008260809349
:100C40007A0080917A00816080937A0080917A00A6
:100C5000806880937A001092C10061E086E00E9473
:100C6000F20160E089E00E94F20161E08FE00E9401
:100C7000F20161E081E10E94F20160E080E10E9406
:100C8000F20161E08FE00E94C40168EE73E080E051
:100C900090E00E94480260E08FE00E94C401109240
:100CA0005903109258031092570310925603109252
:100CB0005503109254038DE991E090935B03809368
:100CC0005A0390914A03963108F047C02DEB30E06B
:100CD00030935503209354032BE931E030935703AD
:100CE000209356032CE231E03093590320935803AC
:100CF0002091680084E0983048F031E09E3008F49C
:100D000030E081E001C0880F3A95EAF7822B8093AA
:100D100068002DE630E0983050F02BE630E09E3051
:100D200030F02CE630E0963110F030E020E03093E7
:100D3000520320935103292F30E0983008F02DC141
:100D400081E001C0880F9A95EAF780935303809160
:100D50005A0390915B030197F1F7809158039091AA
:100D60005903892B49F1E0919301F091940183E0BB
:100D7000EE33F80709F1309739F0A389B4899C91D3
:100D80008589809589238C9380915C038E7F8093E5
:100D90005C0310929201109291018EE393E0909384
:100DA000940180939301E0915103F091520380816B
:100DB00090915303892B8083E091A901F091AA01BE
:100DC00022E02083E091A501F091A6011082E0913C
:100DD000A701F091A80180E180831092B101E09118
:100DE000AD01F091AE0196E09083E091AB01F091FE
:100DF000AC01808180618083E091AB01F091AC0116
:100E0000808188608083E091AB01F091AC018081AA
:100E100080688083E091AB01F091AC0180818F7D8F
:100E20008083E091A901F091AA012083E091A501BE
:100E3000F091A6011082E091A701F091A8018FEC3A
:100E400080831092B101E091AD01F091AE019083E9
:100E5000E091AB01F091AC01808180618083E091F1
:100E6000AB01F091AC01808188608083E091AB019F
:100E7000F091AC01808180688083E091AB01F091BA
:100E8000AC0180818F7D808364E670E080E090E03B
:100E90000E94480261E081E10E94C401C2E8D0E002
:100EA0000EEB10E09AEAE92E90E0F92EFE01849113
:100EB000F801C490F701D490DD20A1F081110E94C7
:100EC0009B01ED2DF0E0EE0FFF1FEA57FF4FA591BC
:100ED000B4918C91C82281E090E011F490E080E020
:100EE000892B21F760E081E10E94C4016FE271E08B
:100EF00089E991E00E942A036CE271E089E991E0BE
:100F00000E942A0368EE73E080E090E00E944802AD
:100F100083E491E00E94390388E491E00E94390360
:100F200061E086E00E94C40168EE73E080E090E03A
:100F30000E94480260E086E00E94C40168EE73E00F
:100F400080E090E00E94480261E086E00E94C401D7
:100F500068EE73E080E090E00E94480260E086E086
:100F60000E94C40168EE73E080E090E00E944802B5
:100F700061E086E00E94C40168EE73E080E090E0EA
:100F80000E944802C0E0D0E02097F1F30E94F800F0
:100F90008823D1F30E940000F7CF9E3040F4285000
:100FA000310981E001C0880F2A95EAF7CECE2E5094
:100FB0003109F7CF8091380390913903009711F0F0
:100FC0000E94FF088CE191E090933F0380933E03E1
:100FD00080919301909194018E53934071F4E0912C
:100FE0005103F0915203908180915303809589239E
:100FF0008083109294011092930108952F923F9252
:101000004F925F926F927F928F929F92AF92BF9218
:10101000CF92DF92EF92FF920F931F93CF93DF93C4
:10102000CDB7DEB7CA1BDB0B0FB6F894DEBF0FBE21
:10103000CDBF09942A88398848885F846E847D846E
:101040008C849B84AA84B984C884DF80EE80FD8070
:101050000C811B81AA81B981CE0FD11D0FB6F894E6
:10106000DEBF0FBECDBFED01089597FB072E16F42E
:10107000009407D077FD09D00E94490807FC05D0ED
:101080003EF4909581959F4F0895709561957F4F9F
:101090000895AA1BBB1B51E107C0AA1FBB1FA617BF
:1010A000B70710F0A61BB70B881F991F5A95A9F711
:1010B00080959095BC01CD010895EE0FFF1F05901E
:1010C000F491E02D09940F931F93CF93DF93823017
:1010D000910510F482E090E0E0915F03F0916003ED
:1010E00030E020E0B0E0A0E0309799F42115310520
:1010F00009F44AC0281B390B24303105D8F58A8100
:101100009B816115710589F1FB0193838283FE0147
:1011100011C0408151810281138148175907E0F0C5
:101120004817590799F4109761F012960C9312978B
:1011300013961C933296CF01DF91CF911F910F919F
:10114000089500935F0310936003F4CF21153105D8
:1011500051F04217530738F0A901DB019A01BD0194
:10116000DF01F801C1CFEF01F9CF909360038093C5
:101170005F03CDCFFE01E20FF31F819391932250C5
:10118000310939832883D7CF20915D0330915E03E5
:10119000232B41F4209102013091030130935E032F
:1011A00020935D032091000130910101211531054B
:1011B00041F42DB73EB74091040150910501241B25
:1011C000350BE0915D03F0915E03E217F307A0F4A5
:1011D0002E1B3F0B2817390778F0AC014E5F5F4F8D
:1011E0002417350748F04E0F5F1F50935E0340935E
:1011F0005D03819391939FCFF0E0E0E09CCFCF938C
:10120000DF930097E9F0FC01329713821282A091DC
:101210005F03B0916003ED0130E020E01097A1F48E
:1012200020813181820F931F20915D0330915E03F5
:101230002817390709F061C0F0935E03E0935D035E
:10124000DF91CF910895EA01CE17DF07E8F54A81D3
:101250005B819E0141155105B1F7E901FB83EA83EA
:1012600049915991C40FD51FEC17FD0761F4808196
:1012700091810296840F951FE90199838883828169
:1012800093819B838A83F0E0E0E012968D919C919C
:1012900013970097B9F52D913C911197CD010296C6
:1012A000820F931F20915D0330915E032817390749
:1012B00039F6309751F51092600310925F03B093A6
:1012C0005E03A0935D03BCCFD383C2834081518171
:1012D000840F951FC817D90761F44E5F5F4F88814F
:1012E0009981480F591F518340838A819B81938341
:1012F00082832115310509F0B0CFF0936003E093AC
:101300005F039ECFFD01DC01C0CF13821282D7CFD5
:10131000B0E0A0E0EEE8F9E00C9400088C01009742
:1013200051F4CB010E9463088C01C801CDB7DEB730
:10133000E0E10C941C08FC01E60FF71F9C01225011
:101340003109E217F30708F49DC0D901CD91DC9172
:101350001197C617D70798F0C530D10530F3CE01E5
:1013600004978617970708F3C61BD70B2297C193DC
:10137000D1936D937C93CF010E94FF08D6CF5B0180
:10138000AC1ABD0A4C018C0E9D1EA0915F03B0915A
:101390006003512C412CF12CE12C109731F58091F8
:1013A0005D0390915E038815990509F05CC04616AF
:1013B000570608F058C080910001909101010097F4
:1013C00041F48DB79EB74091040150910501841BF3
:1013D000950BE817F90708F055C0F0935E03E0930A
:1013E0005D03F90171836083A0CF8D919C9111976A
:1013F00012966C90129713967C901397A815B905C6
:1014000059F56C0142E0C40ED11CCA14DB0420F172
:10141000AC014A195B09DA011296159780F06282D5
:10142000738251834083D9016D937C93E114F1045D
:1014300071F0D7011396FC93EE93129776CF229614
:101440008C0F9D1FF90191838083F301EFCFF093FF
:101450006003E0935F0369CF4816590608F42C0136
:101460007D01D3019ACFCB010E9463087C010097D4
:1014700049F0AE01B8010E94450AC8010E94FF0868
:10148000870153CF10E000E050CFFB01DC0102C028
:1014900001900D9241505040D8F70895FB01DC01B6
:1014A00001900D920020E1F70895FB015191552321
:1014B000A9F0BF01DC014D9145174111E1F759F445
:1014C000CD010190002049F04D9140154111C9F323
:1014D000FB014111EFCF81E090E00197089510E00A
:1014E000C2E6D0E004C0FE010E945D082196C3362A
:0814F000D107C9F7F894FFCF02
:1014F800000061038000000000002E018E00BB0088
:101508007B01EC00CA00DE000000000092028E00A1
:1015180027038D00EE0206037A024F4B0D0A004D99
:101528006F64756C6520696E697469616C697A6944
:0C1538006E670041544531004154000032
:00000001FF
