:100000000C945D000C9485000C9485000C943B08C6
:100010000C943B080C943B080C9485000C948500D0
:100020000C9485000C9485000C9485000C9485003C
:100030000C9485000C9485000C9485000C9485002C
:100040000C9499070C9485000C9409080C94E30710
:100050000C9485000C9485000C9485000C9485000C
:100060000C9485000C94850000000008000201003B
:100070000003040700000000000000000000000072
:10008000250028002B0000000000240027002A0083
:10009000040404040404040402020202020203032E
:1000A0000303030301020408102040800102040836
:1000B0001020010204081020450811241FBECFEFB4
:1000C000D8E0DEBFCDBF11E0A0E0B1E0E8E6F4E1AA
:1000D00002C005900D92A437B107D9F722E0A4E73A
:1000E000B1E001C01D92A537B207E1F710E0CDE500
:1000F000D0E004C02197FE010E94250ACC35D1072B
:10010000C9F70E94E9080C94320A0C9400008CBDD7
:100110009DBD089590E0FC01EC55FF4F2491805760
:100120009F4FFC018491882399F090E0880F991FDC
:10013000FC01EA57FF4FA591B491FC01E458FF4F31
:10014000859194918FB7F894EC91E22BEC938FBF4B
:1001500008953FB7F89480917B0190917C01A09124
:100160007D01B0917E0126B5A89B05C02F3F19F0F7
:100170000196A11DB11D3FBFBA2FA92F982F882727
:10018000BC01CD01620F711D811D911D42E0660F02
:10019000771F881F991F4A95D1F708958F929F92D4
:1001A000AF92BF92CF92DF92EF92FF924B015C0130
:1001B0000E94A9006B017C010E94A9006C197D09B5
:1001C0008E099F09683E734081059105A8F321E0DF
:1001D000821A9108A108B10888EEC80E83E0D81EE3
:1001E000E11CF11C81149104A104B10429F7FF90D2
:1001F000EF90DF90CF90BF90AF909F908F90089539
:10020000AF92BF92CF92DF92EF92FF920F931F9324
:10021000CF93DF936C017B018B01040F151FEB0162
:100220005E01AE18BF08C017D10759F06991D60119
:10023000ED91FC910190F081E02DC6010995892B8B
:1002400079F7C501DF91CF911F910F91FF90EF904A
:10025000DF90CF90BF90AF900895FC01538D448DF7
:10026000252F30E0842F90E0821B930B541710F061
:10027000CF96089501970895FC01918D828D98176E
:1002800061F0A28DAE0FBF2FB11D5D968C91928D46
:100290009F5F9F73928F90E008958FEF9FEF089577
:1002A000FC01918D828D981731F0828DE80FF11D40
:1002B000858D90E008958FEF9FEF0895FC01918D5B
:1002C000228D892F90E0805C9F4F821B91098F7354
:1002D0009927089586E891E00E945E0121E0892B2C
:1002E00009F420E0822F089580E090E0892B29F026
:1002F0000E946A0181110C9400000895FC01A48DF4
:10030000A80FB92FB11DA35ABF4F2C91848D90E037
:1003100001968F739927848FA689B7892C93A0891A
:10032000B1898C91837080648C93938D848D9813A4
:1003300006C00288F389E02D80818F7D8083089537
:10034000EF92FF920F931F93CF93DF93EC0181E025
:10035000888F9B8D8C8D98131AC0E889F9898081CC
:1003600085FF15C09FB7F894EE89FF896083E889FF
:10037000F98980818370806480839FBF81E090E0F1
:10038000DF91CF911F910F91FF90EF900895F62E7E
:100390000B8D10E00F5F1F4F0F731127E02E8C8D18
:1003A0008E110CC00FB607FCFACFE889F98980815D
:1003B00085FFF5CFCE010E947E01F1CFEB8DEC0FD2
:1003C000FD2FF11DE35AFF4FF0829FB7F8940B8F7A
:1003D000EA89FB8980818062CFCFCF93DF93EC01E4
:1003E000888D8823B9F0AA89BB89E889F9898C911D
:1003F00085FD03C0808186FD0DC00FB607FCF7CFD9
:100400008C9185FFF2CF808185FFEDCFCE010E94D8
:100410007E01E9CFDF91CF910895FC0120812EBDAF
:100420009B012150310941F051810DB407FEFDCFF0
:100430004EB55EBD4193F5CF61507109860F971F90
:100440000DB407FEFDCF2EB5FC0120830895E09189
:100450008001F0918101808190917F01892B8083BF
:100460000895E0918001F0918101908180917F0158
:1004700080958923808308958EBD00000DB407FE0A
:10048000FDCF8EB50895AF92BF92CF92DF92EF92DB
:10049000FF920F931F93CF93DF93CDB7DEB72897CB
:1004A0000FB6F894DEBF0FBECDBF8C017B016A0191
:1004B000809183018333E1F45801A40EB51EA01688
:1004C000B10609F46FC00E94310280EF0E943C0225
:1004D000812F0E943C02802F0E943C020F5F1F4F21
:1004E000F70181917F010E943C020E942702E7CF21
:1004F0005B01A40EB51E8433C1F40E94310219833E
:100500000A838D2D80688B83CC8264E070E0CE01FD
:1005100001960E940D02AE14BF0409F441C0F70118
:1005200081917F010E943C02F6CF0E9431020F3F71
:10053000110509F028F419820A8384E08B830CC02A
:1005400017FD17C019820A8333E0169507953A956F
:10055000E1F7007E0C600B8386E0C816D104A0F59D
:10056000F701DE011496EA15FB0599F081918D9350
:10057000FACFC80126E0969587952A95E1F7807E07
:1005800019830A830115104C10F48461D7CF8C6154
:10059000D5CFB6016D5F7F4FCE0101960E940D024F
:1005A0000E942702C60128960FB6F894DEBF0FBE40
:1005B000CDBFDF91CF911F910F91FF90EF90DF9012
:1005C000CF90BF90AF90089563E070E0CE010196A8
:1005D0000E940D02F70181917F010E943C02AE143E
:1005E000BF04C1F7DDCFCF93DF931F92CDB7DEB746
:1005F000898341E050E0BE016F5F7F4F90E080E073
:100600000E9443020F90DF91CF910895CF93DF9323
:100610001F92CDB7DEB76983DC01ED91FC910480B8
:10062000F581E02D41E050E0BE016F5F7F4F0995FD
:100630000F90DF91CF910895CF93DF931F92CDB7A5
:10064000DEB72091840130E0322F2227260F371F9A
:1006500090E0982F8827498341E050E0BE016F5F0A
:100660007F4F820F931F0E9443020F90DF91CF9123
:10067000089508959B0140E050E0BA01DC01ED913E
:10068000FD91CD014E0F5F1F611D711D225031097B
:100690002230310598F7CB01AA27BB276627772799
:1006A000840F951FA61FB71FAD0166277727840FFC
:1006B000951FA61FB71F809590950895FB01019087
:1006C0000020E9F73197AF01461B570BDC01ED9194
:1006D000FC910280F381E02D09948F929F92AF925A
:1006E000BF92EF92FF920F931F93CF93DF93CDB7FB
:1006F000DEB7A1970FB6F894DEBF0FBECDBF7C0169
:10070000FA01CB0119A2223008F42AE08E010F5D14
:100710001F4F822E912CB12CA12CBF01A501940159
:100720000E94030AF901CA016A300CF5605DD80124
:100730006E938D01232B242B252B79F790E080E0FD
:10074000109721F0BD01C7010E945E03A1960FB66C
:10075000F894DEBF0FBECDBFDF91CF911F910F91F7
:10076000FF90EF90BF90AF909F908F900895695C3D
:10077000DECFCF93DF93BC0186E891E00E945E0359
:10078000EC0160E371E086E891E00E945E038C0F6B
:100790009D1FDF91CF9108958F929F92AF92BF924C
:1007A000CF92DF92EF92FF920F931F93CF93DF933D
:1007B0007C01EB016C0182E0C80ED11C4701E5E031
:1007C0008E0E911C10E000E0F60141916F0150E0A7
:1007D00070E060E02AE0CE010E946D035C01E881D8
:1007E000F9810190F081E02D6EE2CE0109958A0D2C
:1007F0009B1D080F191FC814D90431F7F701458153
:1008000050E070E060E02AE0CE010E946D03800FAE
:10081000911FDF91CF911F910F91FF90EF90DF908B
:10082000CF90BF90AF909F908F900895AF92BF925E
:10083000CF92DF92EF92FF920F931F93CF93DF93AC
:1008400000D000D0CDB7DEB78C016B017A0180916A
:1008500083018333E9F45B016801C40ED51EC01621
:10086000D106A9F10E9431028FE00E943C02812F43
:100870000E943C02802F0E943C020F5F1F4F80E0CD
:100880000E943C02F50181935F010E942702E7CF9D
:10089000843369F50E94310219830A838F2D8F7783
:1008A0008B83EC8264E070E0CE0101960E940D0221
:1008B000A70170E060E0C6010E942B0AE114F10478
:1008C00021F0B701C6010E940D020E942702C70154
:1008D0000F900F900F900F90DF91CF911F910F917C
:1008E000FF90EF90DF90CF90BF90AF9008950E945F
:1008F00031020F3F110509F030F419820A831B827F
:1009000063E070E0D1CF17FD0BC019820A8333E09A
:10091000169507953A95E1F7007E08600B83F0CFB6
:10092000C80126E0969587952A95E1F7807E198380
:100930000A830115104C18F480618B83E1CF886124
:10094000FCCFEF92FF920F931F93CF93DF931F92F1
:10095000CDB7DEB77C0110E000E0F7018281938122
:10096000892B39F013950115F4E01F07B1F780E0EA
:1009700017C080E591E00E9487008091840190E09B
:10098000982F8827039641E050E0BE016F5F7F4FAC
:10099000800F911F0E9416048981843119F781E02C
:1009A0000F90DF91CF911F910F91FF90EF900895DD
:1009B0000F931F93CF93DF931F92CDB7DEB7082F0E
:1009C000462F61E070E00E941C0310E0102F00270A
:1009D0008091840190E0982F8827019641E050E0B3
:1009E000BE016F5F7F4F800F911F0E9416048981A7
:1009F0008111EECF0F90DF91CF911F910F9108954C
:100A000080E591E00E94870043E070E060E080E0D4
:100A10000E941C0341E064E170E080E00E941C033E
:100A200061E070E080E00C94D804CF93DF931F92D4
:100A3000CDB7DEB741E050E0BE016F5F7F4F90E081
:100A400080E00E94160489810F90DF91CF91089574
:100A5000CF93DF93C4E1D0E00E941505882361F0B5
:100A600061E070E080E090E00E94CE002197A1F765
:100A700080E0DF91CF91089581E0FBCFCF92DF92AC
:100A8000EF92FF920F931F93CF93DF93CDB7DEB713
:100A9000C454D1090FB6F894DEBF0FBECDBFFC0120
:100AA00082819381A481B58123968CAF9DAFAEAF37
:100AB000BFAF239721E023962FAF239723964CAD0A
:100AC0005DAD6EAD7FAD23974BAB5CAB6DAB7EABDD
:100AD00089AF9AAFABAFBCAF8DA79EA7AFA7B8AB9E
:100AE00028AB4DA55EA56FA578A94FA358A769A708
:100AF0007AA72EAB4BA95CA96DA97EA949A35AA3DD
:100B00006BA37CA38B8F9C8FAD8FBE8F42E251E095
:100B10005C8B4B8B3FEF3D8B3E8B3F8B188E5E8704
:100B20004D872AA7CFA0D8A4E9A4FAA4CF86D88A53
:100B3000E98AFA8A2CA309A11AA12BA13CA1098751
:100B40001A872B873C875A8349838B839C83AD8389
:100B5000BE83809185018111CBC060E372E080E0AB
:100B600090E00E94CE00DFB6F8940AE910E04EEA69
:100B7000E42E40E0F42E80918201811142C0F80100
:100B80008491F7019491E82FF0E0EE0FFF1FEA57F0
:100B9000FF4FA591B4918C91982321F5E2E7F0E005
:100BA0008491F7019491F80124912223D9F08823AC
:100BB00059F0833009F4DDC008F0D0C0813009F469
:100BC000DEC0823009F4DFC0E22FF0E0EE0FFF1F3D
:100BD000E458FF4FA591B4918FB7F8942C91922BC4
:100BE0009C938FBF8AE00E948A008CB580618CBD87
:100BF0008CB580648CBD8DE00E948A008BE00E94E1
:100C00008A00809182018F5F80938201DFBEF801AC
:100C10000491E02FF0E0EE0FFF1FE458FF4F8591A5
:100C200094919093810180938001F701E490E09288
:100C30007F018AE00E948A000E94270280E591E0FD
:100C40000E94870084E38093830180E80E94F3027E
:100C50000E942805882309F4A3C088E00E94F302BB
:100C60000E941505883009F09BC080E10E94F302C4
:100C70000E941505803109F093C080E00E94F302C4
:100C80000E941505182F81118BC041E050E0BE0174
:100C90006D5B7F4F8FE190E00E94160424968FAD2C
:100CA0002497833009F07CC080E48093840142E083
:100CB0006EE170E0812F0E941C0342E06FE170E062
:100CC000812F0E941C031F5F143089F740E06EE102
:100CD00070E0812F0E941C0340E06FE170E0812FE3
:100CE0000E941C031F5F183089F781E08093850103
:100CF00080E591E00E94870046E050E060E071E00E
:100D000089E090E00E94430244E050E0BE016D5F44
:100D10007F4F8FE090E00E94430244E050E0BE012C
:100D2000615F7F4F81E090E00E94430244E050E029
:100D3000BE016B5E7F4F85E090E00E94430281E040
:100D40008C8789859A85AB85BC8580934902909371
:100D50004A02A0934B02B0934C0291C08730B1F08D
:100D60008830D1F0843009F02FCF809180008F7DC2
:100D700003C0809180008F778093800025CF84B559
:100D80008F7784BD21CF84B58F7DFBCF8091B0005C
:100D90008F778093B00018CF8091B0008F7DF9CF0E
:100DA00087E38093830180E80E94F3020E94280574
:100DB000882339F188E00E94F3020E9415058830EB
:100DC00001F580E10E94F3020E941505182F803181
:100DD000C1F480E00E94F3020E941505811111C048
:100DE00041E050E0BE016D5B7F4F89E390E00E94DF
:100DF000160424968FAD2497843019F4109384013F
:100E000074CF83E38093830180E80E94F3020E9401
:100E10002805882391F180E10E94F3020E941505C4
:100E2000803159F582E10E94F3020E94150582315A
:100E300021F580E00E94F3020E94150581111DC07A
:100E400084E08093840115E525961FAF259741E046
:100E500050E0BE016C5B7F4F8BE190E00E9443024B
:100E600024961FAF249741E050E0BE016D5B7F4F99
:100E70008AE190E00E94430238CF10928301CC5B5C
:100E8000DF4F0FB6F894DEBF0FBECDBFDF91CF911D
:100E90001F910F91FF90EF90DF90CF900895AF9248
:100EA000BF92CF92DF92EF92FF920F931F93CF9357
:100EB000DF9300D0CDB7DEB76B017A0180E591E01A
:100EC0000E9487000091840110E0102F00270C5D24
:100ED0001F4F42E050E0BE016F5F7F4FC8010E948C
:100EE0001604A980BA80BA24AB24BA24A701B6019B
:100EF000C5010E944302EA0CFB1CF982EA8242E02F
:100F000050E0BE016F5F7F4FC8010E94430260E264
:100F100070E080E00E94D8040F900F90DF91CF9195
:100F20001F910F91FF90EF90DF90CF90BF90AF9007
:100F300008951F920F920FB60F9211242F933F9393
:100F40008F939F93AF93BF93809177019091780196
:100F5000A0917901B0917A013091760123E0230FBD
:100F60002D3758F50196A11DB11D20937601809370
:100F7000770190937801A0937901B0937A018091E1
:100F80007B0190917C01A0917D01B0917E01019641
:100F9000A11DB11D80937B0190937C01A0937D01E5
:100FA000B0937E01BF91AF919F918F913F912F910F
:100FB0000F900FBE0F901F90189526E8230F0296F2
:100FC000A11DB11DD2CF1F920F920FB60F92112407
:100FD0002F933F934F935F936F937F938F939F9341
:100FE000AF93BF93EF93FF9386E891E00E947E0159
:100FF000FF91EF91BF91AF919F918F917F916F91F1
:101000005F914F913F912F910F900FBE0F901F90C6
:1010100018951F920F920FB60F9211242F938F9352
:101020009F93EF93FF93E0919601F0919701808158
:10103000E0919C01F0919D0182FD1BC09081809107
:101040009F018F5F8F732091A001821741F0E09183
:101050009F01F0E0EA57FE4F958F80939F01FF912B
:10106000EF919F918F912F910F900FBE0F901F9036
:1010700018958081F4CF1F920F920FB60F92112412
:101080000F900FBE0F901F901895E6E8F1E01382C5
:10109000128288EE93E0A0E0B0E084839583A6837B
:1010A000B78380E191E09183808385EC90E0958720
:1010B000848784EC90E09787868780EC90E0918B22
:1010C000808B81EC90E0938B828B82EC90E0958B0F
:1010D000848B86EC90E0978B868B118E128E138E0C
:1010E000148EE3E2F2E082E291E091838083128247
:1010F000138214821582E9E2F2E0918380831282E6
:10110000138214821582EFE2F2E0918380831282CF
:10111000138214821582E5E3F2E0918380831282C8
:10112000138214821582EBE3F2E0918380831282B2
:10113000138214821582E1E4F2E0918380831282AB
:10114000138214821582EDE4F2E09183808312828F
:10115000138214821582E7E4F2E091838083128285
:10116000138214821582E3E5F2E091838083128278
:10117000138214821582E9E5F2E091838083128262
:10118000138214821582EFE6F2E09183808312824B
:10119000138214821582E9E6F2E09183808340ECA9
:1011A000428338EA338328E024835AE65583E3E612
:1011B000F2E09183808342833383248381E88583B3
:1011C000EFE5F2E088E291E091838083138212825E
:1011D0000895CF93DF93CDB7DEB7E0970FB6F894BD
:1011E000DEBF0FBECDBF789484B5826084BD84B568
:1011F000816084BD85B5826085BD85B5816085BD12
:10120000EEE6F0E0808181608083E1E8F0E010822A
:10121000808182608083808181608083E0E8F0E06B
:10122000808181608083E1EBF0E080818460808355
:10123000E0EBF0E0808181608083EAE7F0E080818C
:1012400084608083808182608083808181608083EC
:101250008081806880831092C10082E291E09A834D
:10126000898383E6E82E82E0F82EF701828193815C
:10127000A481B5818B839C83AD83BE838E010F5F78
:101280001F4FC8010E943E05E6E8F1E0A089B18940
:1012900082E08C93A485B5851C92A685B7858FECDA
:1012A0008C93108EA489B58986E08C93A289B3892A
:1012B0008C9180618C93A289B3898C9188608C9386
:1012C000A289B3898C9180688C930288F389E02D80
:1012D00080818F7D808368EE73E080E090E00E94E3
:1012E000CE0083E391E00E94B90368EE73E080E0F2
:1012F00090E00E94CE0068EE73E080E090E00E94F3
:10130000CE008DE391E00E94B90368EE73E080E0C7
:1013100090E00E94CE0086E0E6E0F1E0D801019086
:101320000D928A95E1F786E0E0E0F1E0DE011796A4
:1013300001900D928A95E1F788E08D8795E49F876B
:10134000188A198A1A8A1B8A1C8A1D8A1E8A90E4A6
:101350009F8B9FEF988F198E1A8ED7011296EC9162
:10136000F0E094E0DE015B9601900D929A95E1F732
:10137000E0916B02F0E094E0DE015F9601900D9247
:101380009A95E1F78BA31CA21DA21EA21FA218A66C
:1013900019A61AA681E48BA78CE68CA78FE68DA7E9
:1013A00088E68EA781E68FA781E288AB64E170E0D2
:1013B000CE010F960E943A03998F8A8F68E070E001
:1013C000CE0183960E943A039DA38EA38BE491E005
:1013D0000E94B9038FE592E00E940005F801019098
:1013E0000020E9F73197AF01401B510BB8018FE5A1
:1013F00092E00E944F0784E591E00E94B90390E0DB
:1014000080E00E94320AA1E21A2EAA1BBB1BFD013A
:101410000DC0AA1FBB1FEE1FFF1FA217B307E407D3
:10142000F50720F0A21BB30BE40BF50B661F771F2B
:10143000881F991F1A9469F760957095809590950B
:101440009B01AC01BD01CF010895EE0FFF1F059078
:10145000F491E02D0994DC0101C06D93415050409E
:08146000E0F70895F894FFCFB6
:10146800DEADBEEFFEEDACBC329B2867000000008D
:10147800A00100012D01ED015E013C0150010000B9
:101488000000CC0300000000000506034F07A1047C
:101498000D0A00636F6E6E656374656400636F6E3A
:1014A8006E656374696E672E2E2E00626567696EBD
:1014B800696E670049434D50204563686F20526547
:1014C8007175657374207061636B65742073656EE4
:0414D800742E0A0064
:00000001FF
