:020000040000FA
:100000000C945D000C9485000C9485000C946F1783
:100010000C946F170C946F170C9485000C9485004A
:100020000C9485000C9485000C9485000C9485003C
:100030000C9485000C9485000C9485000C9485002C
:100040000C94CD160C9485000C943D170C94171746
:100050000C9485000C9485000C9485000C9485000C
:100060000C9485000C94850000000008000201003B
:100070000003040700000000000000000000000072
:10008000250028002B0000000000240027002A0083
:10009000040404040404040402020202020203032E
:1000A0000303030301020408102040800102040836
:1000B0001020010204081020791711241FBECFEF71
:1000C000D8E0DEBFCDBF12E0A0E0B1E0E8E4FBE3A2
:1000D00002C005900D92AA3BB107D9F724E0AAEB24
:1000E000B2E001C01D92AD35B207E1F710E0CDE5F9
:1000F000D0E004C02197FE010E94811DCC35D107BC
:10010000C9F70E9437180C94A21D0C9400008CBDF6
:100110009DBD089590E0FC01EC55FF4F2491805760
:100120009F4FFC018491882399F090E0880F991FDC
:10013000FC01EA57FF4FA591B491FC01E458FF4F31
:10014000859194918FB7F894EC91E22BEC938FBF4B
:10015000089520E3FC0120833296862F82958F70CC
:100160006F706A3030F4605D6293682F8111F5CF53
:100170000895695CF9CFFC01818D928D08950895F1
:100180003FB7F89480913B0390913C03A0913D03CD
:10019000B0913E0326B5A89B05C02F3F19F00196EC
:1001A000A11DB11D3FBFBA2FA92F982F8827BC01D1
:1001B000CD01620F711D811D911D42E0660F771FF9
:1001C000881F991F4A95D1F708958F929F92AF92F9
:1001D000BF92CF92DF92EF92FF924B015C010E949F
:1001E000C0006B017C010E94C0006C197D098E0962
:1001F0009F09683E734081059105A8F321E0821AAA
:100200009108A108B10888EEC80E83E0D81EE11C51
:10021000F11C81149104A104B10429F7FF90EF901F
:10022000DF90CF90BF90AF909F908F9008952FB7A1
:10023000F89460913703709138038091390390915D
:100240003A032FBF0895AF92BF92CF92DF92EF9201
:10025000FF920F931F93CF93DF936C017B018B0170
:10026000040F151FEB015E01AE18BF08C017D107C0
:1002700059F06991D601ED91FC910190F081E02D4A
:10028000C6010995892B79F7C501DF91CF911F919F
:100290000F91FF90EF90DF90CF90BF90AF900895B7
:1002A000FC01538D448D252F30E0842F90E0821B7C
:1002B000930B541710F0CF96089501970895FC0101
:1002C000918D828D981761F0A28DAE0FBF2FB11D59
:1002D0005D968C91928D9F5F9F73928F90E00895B1
:1002E0008FEF9FEF0895FC01918D828D981731F06B
:1002F000828DE80FF11D858D90E008958FEF9FEFBF
:100300000895FC01918D228D892F90E0805C9F4F94
:10031000821B91098F73992708958CE593E00E94C1
:10032000810121E0892B09F420E0822F089580E0EB
:1003300090E0892B29F00E948D0181110C9400001E
:100340000895FC01A48DA80FB92FB11DA35ABF4F6A
:100350002C91848D90E001968F739927848FA689C4
:10036000B7892C93A089B1898C91837080648C9318
:10037000938D848D981306C00288F389E02D8081C7
:100380008F7D80830895EF92FF920F931F93CF93F9
:10039000DF93EC0181E0888F9B8D8C8D98131AC0C0
:1003A000E889F989808185FF15C09FB7F894EE89A7
:1003B000FF896083E889F989808183708064808304
:1003C0009FBF81E090E0DF91CF911F910F91FF904F
:1003D000EF900895F62E0B8D10E00F5F1F4F0F73F7
:1003E0001127E02E8C8D8E110CC00FB607FCFACFB2
:1003F000E889F989808185FFF5CFCE010E94A101AE
:10040000F1CFEB8DEC0FFD2FF11DE35AFF4FF08282
:100410009FB7F8940B8FEA89FB8980818062CFCFE8
:10042000CF93DF93EC01888D8823B9F0AA89BB892B
:10043000E889F9898C9185FD03C0808186FD0DC016
:100440000FB607FCF7CF8C9185FFF2CF808185FF37
:10045000EDCFCE010E94A101E9CFDF91CF910895A8
:10046000FC0120812EBD9B012150310941F05181B9
:100470000DB407FEFDCF4EB55EBD4193F5CF615083
:100480007109860F971F0DB407FEFDCF2EB5FC0135
:1004900020830895E091C302F091C402808190917D
:1004A000C202892B80830895E091C302F091C402B7
:1004B00090818091C20280958923808308958EBDAA
:1004C00000000DB407FEFDCF8EB50895AF92BF9228
:1004D000CF92DF92EF92FF920F931F93CF93DF9310
:1004E000CDB7DEB728970FB6F894DEBF0FBECDBFED
:1004F0008C017B016A0180915B038333E1F4580135
:10050000A40EB51EA016B10609F46FC00E945402D5
:1005100080EF0E945F02812F0E945F02802F0E9465
:100520005F020F5F1F4FF70181917F010E945F0201
:100530000E944A02E7CF5B01A40EB51E8433C1F4CA
:100540000E94540219830A838D2D80688B83CC828C
:1005500064E070E0CE0101960E943002AE14BF0448
:1005600009F441C0F70181917F010E945F02F6CF3B
:100570000E9454020F3F110509F028F419820A83E2
:1005800084E08B830CC017FD17C019820A8333E007
:10059000169507953A95E1F7007E0C600B8386E08F
:1005A000C816D104A0F5F701DE011496EA15FB0583
:1005B00099F081918D93FACFC80126E096958795A1
:1005C0002A95E1F7807E19830A830115104C10F4F7
:1005D0008461D7CF8C61D5CFB6016D5F7F4FCE01DF
:1005E00001960E9430020E944A02C60128960FB668
:1005F000F894DEBF0FBECDBFDF91CF911F910F9159
:10060000FF90EF90DF90CF90BF90AF90089563E0A0
:1006100070E0CE0101960E943002F70181917F01C6
:100620000E945F02AE14BF04C1F7DDCFCF93DF930A
:100630001F92CDB7DEB7898341E050E0BE016F5F06
:100640007F4F90E080E00E9466020F90DF91CF9193
:10065000089590E020915B03233339F40C96982F92
:10066000990F990F990F80E008954896F8CFDA0115
:10067000E091C602F0E0FE2FEE27E60FF71F90E0B4
:10068000982F8827A901BD018E0F9F1F0C94660229
:10069000CF93DF9300D0CDB7DEB779836A8322E0B2
:1006A00030E0AE014F5F5F4F60E170E00E943703C2
:1006B0000F900F90DF91CF910895CF93DF9300D0EB
:1006C000CDB7DEB779836A8322E030E0AE014F5FB9
:1006D0005F4F64E070E00E9437030F900F90DF914E
:1006E000CF910895CF93DF931F92CDB7DEB72091BE
:1006F000C60230E0322F2227260F371F90E0982FB6
:100700008827498341E050E0BE016F5F7F4F820F31
:10071000931F0E9466020F90DF91CF910895CF93AF
:10072000DF931F92CDB7DEB76983DC01ED91FC91B9
:100730000280F381E02D41E050E0BE016F5F7F4F0A
:1007400009950F90DF91CF910895CF93DF931F927A
:10075000CDB7DEB76983DC01ED91FC910480F581B2
:10076000E02D41E050E0BE016F5F7F4F09950F9093
:10077000DF91CF910895FC019485FB018485981346
:1007800003C081E0943008F080E00895CF93DF93B8
:100790001F92CDB7DEB76983DC01ED91FC91028039
:1007A000F381E02D41E050E0BE016F5F7F4F09957E
:1007B0000F90DF91CF910895FC01768765870895AA
:1007C000DC01ED91FC91068CF78DE02D099591E00F
:1007D00089270895862F089581E08627089521E0CE
:1007E000FC018485843008F020E0822F089544E0E5
:1007F00050E0BC018FE090E00C9466020895FF92F7
:100800000F931F93CF93DF93EB01FC01178A168A96
:100810002A81211109C02B81211106C02C812111AF
:1008200003C02D81222301F141155105E9F08A0110
:10083000FC01F08C80E591E00E948700AE014E5FE4
:100840005F4F24E030E06CE070E08F2D0E943703B2
:10085000B8018F2D0E94480381E090E0DF91CF9195
:100860001F910F91FF90089580E0F7CFFC018485E0
:1008700095850895FC018489958908952BE831E0D8
:10088000FC0131832083FB0140895189628973898E
:10089000FC0142835383648375830895DC01ED91E9
:1008A000FC91048CF58DE02D099490E080E0089592
:1008B0009B0140E050E0BA01DC01ED91FD91CD01DA
:1008C0004E0F5F1F611D711D22503109223031050D
:1008D00098F7CB01AA27BB2766277727840F951F98
:1008E000A61FB71FAD0166277727840F951FA61F88
:1008F000B71F809590950895FB0101900020E9F7BE
:100900003197AF01461B570BDC01ED91FC91028042
:10091000F381E02D09948F929F92AF92BF92EF9254
:10092000FF920F931F93CF93DF93CDB7DEB7A197BD
:100930000FB6F894DEBF0FBECDBF7C01FA01CB012C
:1009400019A2223008F42AE08E010F5D1F4F822E7B
:10095000912CB12CA12CBF01A50194010E94491D2D
:10096000F901CA016A300CF5605DD8016E938D0102
:10097000232B242B252B79F790E080E0109721F092
:10098000BD01C7010E947C04A1960FB6F894DEBF9A
:100990000FBECDBFDF91CF911F910F91FF90EF90D0
:1009A000BF90AF909F908F900895695CDECFCF93FA
:1009B000DF93BC018CE593E00E947C04EC0169E9C3
:1009C00071E08CE593E00E947C048C0F9D1FDF9109
:1009D000CF910895DC018BE891E08D939D9384E0A5
:1009E000FB0101900D928A95E1F70895AF92BF92B5
:1009F000CF92DF92EF92FF920F931F93CF93DF93EB
:100A000000D000D0CDB7DEB78C016B017A018091A8
:100A10005B038333E9F45B016801C40ED51EC01685
:100A2000D106A9F10E9454028FE00E945F02812F3B
:100A30000E945F02802F0E945F020F5F1F4F80E0C5
:100A40000E945F02F50181935F010E944A02E7CF95
:100A5000843369F50E94540219830A838F2D8F779E
:100A60008B83EC8264E070E0CE0101960E9430023C
:100A7000A70170E060E0C6010E94941DE114F1043A
:100A800021F0B701C6010E9430020E944A02C7014C
:100A90000F900F900F900F90DF91CF911F910F91BA
:100AA000FF90EF90DF90CF90BF90AF9008950E949D
:100AB00054020F3F110509F030F419820A831B829A
:100AC00063E070E0D1CF17FD0BC019820A8333E0D9
:100AD000169507953A95E1F7007E08600B83F0CFF5
:100AE000C80126E0969587952A95E1F7807E1983BF
:100AF0000A830115104C18F480618B83E1CF886163
:100B0000FCCF1F93CF93DF931F92CDB7DEB7182F83
:100B100080E591E00E948700812F0E94290327E051
:100B2000129FF0011124E15CFC4F22813381377068
:100B300041E050E0BE016F5F7F4F820F931F0E9424
:100B4000F60489810F90DF91CF911F910895FC01E8
:100B5000808D843040F4218D328D232B21F00E9432
:100B6000810590E008958FEF9FEF0895CF93DF9375
:100B7000FC012485243028F08FEF9FEFDF91CF9187
:100B80000895EC010190F081E02D0084F185E02DC5
:100B90000995892B89F38C850E94810590E0EECF21
:100BA000CF93DF931F92CDB7DEB741E050E0BE0197
:100BB0006F5F7F4F0E94F60489810F90DF91CF9184
:100BC000089590E080E00C94D005CF93DF93C4E1CA
:100BD000D0E00E94E105882361F061E070E080E0F0
:100BE00090E00E94E5002197A1F780E0DF91CF918E
:100BF000089581E0FBCFDF92EF92FF920F931F9356
:100C0000CF93DF9300D0CDB7DEB78091C7028111BB
:100C100054C160E372E080E090E00E94E500DFB63E
:100C2000F8940AE910E04EEAE42E40E0F42E8091B8
:100C3000C502811142C0F8018491F7019491E82F17
:100C4000F0E0EE0FFF1FEA57FF4FA591B4918C9192
:100C5000982321F5E2E7F0E08491F7019491F801FF
:100C600024912223D9F0882359F0833009F4A0C0BD
:100C700008F093C0813009F4A1C0823009F4A2C009
:100C8000E22FF0E0EE0FFF1FE458FF4FA591B49163
:100C90008FB7F8942C91922B9C938FBF8AE00E947F
:100CA0008A008CB580618CBD8CB580648CBD8DE074
:100CB0000E948A008BE00E948A008091C5028F5FAB
:100CC0008093C502DFBEF8010491E02FF0E0EE0F43
:100CD000FF1FE458FF4F859194919093C402809335
:100CE000C302F701E490E092C2028AE00E948A0007
:100CF0000E944A0280E591E00E94870084E380938D
:100D00005B0380E80E9416030E94E505882309F42E
:100D100066C088E00E9416030E94E105883009F051
:100D20005EC080E10E9416030E94E105803109F057
:100D300056C080E00E9416030E94E105182F811121
:100D40004EC08FE190E00E94D005833009F047C08B
:100D500080E48093C60242E06EE170E0812F0E9441
:100D6000720342E06FE170E0812F0E9472031F5F07
:100D7000143089F740E06EE170E0812F0E94720329
:100D800040E06FE170E0812F0E9472031F5F183016
:100D900089F781E08093C70286C08730B1F0883040
:100DA000D1F0843009F06CCF809180008F7D03C03A
:100DB000809180008F778093800062CF84B58F7799
:100DC00084BD5ECF84B58F7DFBCF8091B0008F77DF
:100DD0008093B00055CF8091B0008F7DF9CF87E32D
:100DE00080935B0380E80E9416030E94E505882338
:100DF000F9F088E00E9416030E94E1058830C1F4F2
:100E000080E10E9416030E94E105182F803181F4D1
:100E100080E00E9416030E94E105811109C089E368
:100E200090E00E94D005843019F41093C602B1CF2F
:100E300083E380935B0380E80E9416030E94E5052C
:100E4000882371F180E10E9416030E94E105803140
:100E500039F582E10E9416030E94E105823101F515
:100E600080E00E9416030E94E105811119C084E010
:100E70008093C60215E51A8341E050E0BE016E5F23
:100E80007F4F8BE190E00E946602198341E050E0C1
:100E9000BE016F5F7F4F8AE190E00E94660279CFCA
:100EA00010925B0380E00F900F90DF91CF911F9124
:100EB0000F91FF90EF90DF90089581E0F4CF1F93A2
:100EC000CF93DF93CDB7DEB7C254D1090FB6F894F4
:100ED000DEBF0FBECDBFFC0182819381A481B581AD
:100EE00023968CAF9DAFAEAFBFAF239711E0239693
:100EF0001FAF239723964CAD5DAD6EAD7FAD2397AD
:100F00004BAB5CAB6DAB7EAB8DA79EA7AFA7B8AB71
:100F100018AB4DA55EA56FA578A94FA358A769A7E3
:100F20007AA71EAB4BA95CA96DA97EA949A35AA3B8
:100F30006BA37CA32BE831E03C8B2B8B4FEF4D8BCD
:100F40004E8B4F8B188E3E872D871AA74FA158A521
:100F500069A57AA54F87588B698B7A8B1CA349A109
:100F60005AA16BA17CA149875A876B877C873A83FA
:100F700029838B839C83AD83BE830E94FB058823DA
:100F800079F180E591E00E94870046E050E062E060
:100F900071E089E090E00E946602CE0103960E9413
:100FA000F70344E050E0BE01615F7F4F81E090E0D5
:100FB0000E94660244E050E0BE016B5E7F4F85E018
:100FC00090E00E9466021C8789859A85AB85BC8566
:100FD00080931F0490932004A0932104B0932204D3
:100FE000CE5BDF4F0FB6F894DEBF0FBECDBFDF91F3
:100FF000CF911F9108952091C60230E0322F222711
:10100000620F731F90E0982F8827860F971F0C940C
:10101000D005CF93C82F462F61E070E00E94720385
:1010200061E070E08C2F0E94FB078111F9CFCF9116
:101030000895CF93C82F80E591E00E94870068E073
:1010400070E08C2FCF910C940908CF93C82F80E5C6
:1010500091E00E94870060E170E08C2FCF910C94AA
:101060000908CF93DF93EC01888D843020F40E942F
:10107000250884E0888FDF91CF91089563E070E0C8
:101080000C94FB07CF93C82F80E591E00E94870066
:101090008C2FCF910C943E08EF92FF920F931F93E9
:1010A000CF937C010AEB12E0C0E0F801219131916D
:1010B0008F01F701828193812817390729F0CF5FCB
:1010C000C43099F780E006C08C2F0E94420884311A
:1010D000B1F781E0CF911F910F91FF90EF900895AC
:1010E000CF93DF93EC018C858430D0F40E944208CA
:1010F000843189F0882379F0883169F021E08C31DE
:1011000059F4E881F9810084F185E02DCE0109953B
:1011100021E0892B09F420E0822FDF91CF910895FF
:1011200080E0FBCFCF92DF92EF92FF92CF93DF93DD
:10113000EC018C85843068F40E9419080E94170124
:101140006B017C018C850E944208811109C084E0FA
:101150008C87DF91CF91FF90EF90DF90CF90089533
:1011600061E070E080E090E00E94E5000E941701DD
:10117000AB01BC014C195D096E097F098D859E8507
:10118000B0E0A0E0481759076A077B07D8F28C85C2
:101190000E942508DCCFCF93FC01C08D80E591E053
:1011A0000E94870060E270E08C2F0E94090862E0D4
:1011B00070E08C2F0E94FB0784FD16C062E070E097
:1011C0008C2F0E94FB0783FF0AC048E162E070E0B9
:1011D0008C2F0E94720380E090E0CF91089580E50B
:1011E00091E00E948700E3CF40E162E070E08C2F45
:1011F0000E94720381E0F0CFDA01E091C602F0E0D4
:10120000FE2FEE27E60FF71F90E0982F8827A90101
:10121000BD018E0F9F1F0C94F6048F929F92AF9288
:10122000BF92CF92DF92EF92FF921F93CF93DF9303
:10123000CDB7DEB72C970FB6F894DEBF0FBECDBF8B
:1012400020915B0314E0222329F16B017C0180E5EE
:1012500091E00E9487005E0127E0A20EB11C4501CB
:1012600010E0812F0E943E08F40181934F018823F2
:1012700049F11F5F1430A9F710E0F50181915F017A
:101280008D31D9F08831C9F08A518230B0F01F5FBA
:10129000143099F7812F2C960FB6F894DEBF0FBE4D
:1012A000CDBFDF91CF911F91FF90EF90DF90CF9056
:1012B000BF90AF909F908F90089560E170E0812F74
:1012C0000E940908A12EB12C83EE93E00197F1F75B
:1012D00042E870E060E0812F0E9472034FEF62E00D
:1012E00070E0812F0E947203B601C114D10491F401
:1012F000809100019091010101968115F0EC9F070A
:1013000008F45CC09093010180930001609100019A
:1013100070910101812F0E945D0386E0ECE0F1E015
:10132000DE01119601900D928A95E1F7F701838114
:101330008F778C8384818D8385818E83A7014E5F17
:101340005F4F24E030E06CE070E0812F0E943703B3
:10135000B601812F0E94480326E030E0AE014F5FC6
:101360005F4F66E070E0812F0E94370361E070E01C
:10137000812F0E94090827E02A9DC0012B9D900D16
:1013800011249C01215C3C4F7901F90111821082EA
:1013900022E030E0AE01455F5F4F68E270E0812FF0
:1013A0000E94FC088B859C85982789279827F70140
:1013B000938382831682158214826CCF80E090EC36
:1013C000A1CFCF92DF92EF92FF920F931F93CF9313
:1013D000DF9300D000D000D0CDB7DEB78C016B0119
:1013E0007A01FC01808D843010F40E9425088BE87E
:1013F00091E09A838983F60182819381A481B581EA
:101400008B839C83AD83BE83B701CE0101960E947E
:101410000D09F801808F8430A0F4F586E486128EE1
:10142000118E81E026960FB6F894DEBF0FBECDBFB9
:10143000DF91CF911F910F91FF90EF90DF90CF90B0
:10144000089580E0EFCF7F928F929F92AF92BF92EC
:10145000CF92DF92EF92FF920F931F93CF93DF9380
:1014600000D0CDB7DEB7782E8B014A01590122E0BA
:1014700030E0AE014F5F5F4F64E270E00E94FC0815
:10148000E980FA80FE24EF24FE24E00EF11E97018D
:10149000377040915B03072D10E0433309F042C0E1
:1014A000085F1F4F102F0027110F110F110FC901D7
:1014B000800F911F4733C9F1A9014A0D5B1D4130CF
:1014C000584098F160E078E06B01C21AD30AA60197
:1014D000B4010E946602A5014C195D09B4016C0DAE
:1014E0007D1DC8010E946602EA0CFB1CF982EA829B
:1014F00022E030E0AE014F5F5F4F64E270E0872D85
:101500000E9437030F900F90DF91CF911F910F91A1
:10151000FF90EF90DF90CF90BF90AF909F908F9013
:101520007F900895005F1F4FBDCFA501B401DACFB2
:10153000EF92FF921F93CF93DF9300D0CDB7DEB72A
:10154000182F22E030E0AE014F5F5F4F60E270E0A5
:101550000E94FC08E980FA80FE24EF24FE2422E0A9
:1015600030E0AE014F5F5F4F60E270E0812F0E947C
:10157000FC0889819A81982789279827E816F90617
:1015800089F487E0189FF0011124E15CFC4FF5829B
:10159000E482C7010F900F90DF91CF911F91FF90D0
:1015A000EF9008957C01DBCF1F93CF93DF93182F2B
:1015B00080E591E00E948700812F0E94980AEC014B
:1015C000812F0E943E08873121F08C3111F0D0E04C
:1015D000C0E0CE01DF91CF911F910895CF93DF93AB
:1015E000EC018C85843060F40E944208873111F050
:1015F0008C3131F48C850E94D40A8115984088F38F
:10160000DF91CF910895FC018485843010F40C940F
:10161000D40A90E080E00895CF92DF92EF92FF929B
:101620001F93CF93DF93182F7B01EA01413058407D
:1016300010F0C0E0D8E080E591E00E948700812FA3
:101640000E94980A6C01812F0E943E08873111F098
:101650008C3121F5CC16DD0670F380E591E00E9417
:1016600087009E01A70170E060E0812F0E94230A9D
:1016700060E270E0812F0E94090862E070E0812F33
:101680000E94FB0784FD0DC0812F0E943E08882325
:10169000B9F080E591E00E948700EFCFD0E0C0E094
:1016A000DCCF40E162E070E0812F0E947203CE0146
:1016B000DF91CF911F91FF90EF90DF90CF90089531
:1016C000D0E0C0E0F4CF0F931F93CF93DF938C0152
:1016D000EA01FC018485843048F40E940C0B892BBC
:1016E00039F481E090E0F80193838283D0E0C0E098
:1016F000CE01DF91CF911F910F9108959F92AF92EC
:10170000BF92CF92DF92EF92FF920F931F93CF93EE
:10171000DF938C015B01942EE52EFC01C688D788EF
:10172000F08C80E591E00E9487008F2D0E94980A3E
:10173000C92DDE2D8C179D0708F4EC019E01A50133
:10174000B6018F2D0E94230AF801868997898C0F94
:101750009D1F978B868BCE01DF91CF911F910F91AB
:10176000FF90EF90DF90CF90BF90AF909F90089543
:10177000FF920F931F93CF93DF9300D0CDB7DEB7C7
:10178000F82E22E030E0AE014F5F5F4F66E270E07E
:101790000E94FC0809811A8110270127102722E0E6
:1017A00030E0AE014F5F5F4F66E270E08F2D0E9428
:1017B000FC0889819A819827892798270817190793
:1017C00049F4C8010F900F90DF91CF911F910F91B5
:1017D000FF9008958C01E3CF1F93CF93DF93182FD1
:1017E00087E0189FE0011124C15CDC4F888199815A
:1017F000009761F480E591E00E948700812F0E94AC
:10180000B80B2E81821B910999838883DF91CF9138
:101810001F910895AF92BF92CF92DF92EF92FF9205
:101820000F931F93CF93DF93EC017B0180915B03B8
:10183000811120C01B821A8288EE93E0A0E0B0E004
:101840008C839D83AE83BF8386E191E099838883F7
:1018500084E08C8788EE93E09E878D87CE01DF91B0
:10186000CF911F910F91FF90EF90DF90CF90BF909D
:10187000AF9008958AEBC82E82E0D82E10E094E055
:10188000B92EA12CD6012D913D916D01F7018281D8
:1018900093812817390791F4812F0E944208082F5D
:1018A000873111F08C3139F5812F0E94EC0B892B97
:1018B00059F50C3119F4812F0E9419081F5F14305B
:1018C00009F7A11008C0D701ED91FC910190F081BA
:1018D000E02DC70109951B821A8288EE93E0A0E0F3
:1018E000B0E08C839D83AE83BF8386E191E09983D2
:1018F0008883BC86AFCF843149F08111DFCFF601F8
:10190000329711821082DACFB12ED8CFAA24A394B5
:10191000D5CF8F929F92AF92BF92CF92DF92EF92EC
:10192000FF921F93CF93DF93CDB7DEB72F970FB6FC
:10193000F894DEBF0FBECDBF5C014B017A018091F0
:101940005B038823A1F1B501CE0101960E940A0C28
:101950008AEBC82E82E0D82E10E0F6012191319159
:101960006F01F501828193812817390751F4812F86
:101970000E944208873129F4A701B401812F0E94F7
:101980000C0B1F5F143049F7C7012F960FB6F89460
:10199000DEBF0FBECDBFDF91CF911F91FF90EF90C3
:1019A000DF90CF90BF90AF909F908F900895F12CD3
:1019B000E12CEACFFC018485843010F40C94EC0B0C
:1019C00090E080E008954F925F927F928F929F9275
:1019D000AF92BF92CF92DF92EF92FF920F931F933D
:1019E000CF93DF9300D0CDB7DEB7782E6B014A01DD
:1019F000A82EB12C27E0829FC0011124FC01E15CDC
:101A0000FC4F7F010081118180E591E00E948700F9
:101A10000815190554F4872D0E94B80BF70126818B
:101A20008C01021B1109118300830115110519F5A1
:101A3000872D0E943E08843159F0882349F001E047
:101A400010E08C3111F410E000E0119501951109BE
:101A5000C8010F900F90DF91CF911F910F91FF90D0
:101A6000EF90DF90CF90BF90AF909F908F907F903E
:101A70005F904F900895801691060CF4840187E0E2
:101A80008A9DF0018B9DF00D1124E15CFC4FE280FA
:101A9000F380C114D10451F12701F7E05F22872DB3
:101AA0000E942903840D951D20915B03273309F4BF
:101AB00053C09801240D351D2130384008F44CC026
:101AC00020E038E0490184189508A401B6010E947D
:101AD000F6042601480C591C6801C818D908872D3E
:101AE0000E942903A601B2010E94F604E00EF11E35
:101AF00087E08A9DF0018B9DF00D1124E15CFC4F85
:101B0000F382E28220813181201B310B31832083DB
:101B10008681800F912F911D8A3F910510F4232B10
:101B2000F1F487E08A9DF0018B9DF00D1124E15CBA
:101B3000FC4F1682F982EA8222E030E0AE014F5F6C
:101B40005F4F68E270E0872D0E94370360E470E029
:101B5000872D0E9409087CCFA801B601C5CF8683D6
:101B600077CFCF93DF93FC01218D328D2115310585
:101B700029F48FEF9FEFDF91CF910895EC01808DD5
:101B80004217530708F0A9010E94E30C1816190622
:101B900084F7298D3A8D281B390B3A8F298FEBCF8B
:101BA0000F931F93CF93DF931F92CDB7DEB7FC0146
:101BB000218D328D232B41F48FEF9FEF0F90DF911A
:101BC000CF911F910F9108958C0141E050E0BE012B
:101BD0006F5F7F4FFC01808D0E94E30C1816190681
:101BE0005CF7F801818D928D0197928F818F8981A9
:101BF00090E0E4CF0F931F93CF93DF93CDB7DEB781
:101C000028970FB6F894DEBF0FBECDBF8C01D80168
:101C100059964D915C915A974115510551F0ED91AE
:101C2000FC91048CF58DE02D70E060E0C801099511
:101C3000EECFF801808D0E94EC0B892BB1F148E0CA
:101C400050E0BE016F5F7F4FD80158968C910E9483
:101C5000E30C18161906F4F4D801509684E0FE013E
:101C6000319601900D928A95E1F78D8190E0982F41
:101C700088272E81820F911DF801958B848B8F818F
:101C8000282F30E0322F22278885820F932F911D35
:101C9000928F818F28960FB6F894DEBF0FBECDBF0E
:101CA000DF91CF911F910F91089590E080E0F2CFE6
:101CB000CF93DF931F92CDB7DEB741E050E0BE0176
:101CC0006F5F7F4FFC0184850E94E30C1816190694
:101CD00034F4898190E00F90DF91CF9108958FEFD8
:101CE0009FEFF9CFFC018485843010F40C94E30C51
:101CF00090E080E00895AF92BF92CF92DF92EF9292
:101D0000FF920F931F93CF93DF9300D000D000D0AA
:101D1000CDB7DEB790915B0314E0992329F16B01F5
:101D2000082F80E591E00E9487009E012F5F3F4FC2
:101D30007901590110E0812F0E943E08F50181933D
:101D40005F01882341F11F5F1430A9F710E0F7010C
:101D500091917F019D31D1F09831C1F09A5192302B
:101D6000A8F01F5F143099F7812F26960FB6F894CC
:101D7000DEBF0FBECDBFDF91CF911F910F91FF90BE
:101D8000EF90DF90CF90BF90AF90089560E170E04A
:101D9000812F0E940908E12EF12C83EE93E0019738
:101DA000F1F7402F70E060E0812F0E9472034FEF47
:101DB00062E070E0812F0E947203B601CD2889F4A1
:101DC000809100019091010101968115F0EC9F072F
:101DD00098F190930101809300016091000170914E
:101DE0000101812F0E945D0361E070E0812F0E945C
:101DF000090827E02E9DC0012F9D900D11249C0104
:101E0000215C3C4F7901F9011182108222E030E01F
:101E1000AE014B5F5F4F68E270E0812F0E94FC08CB
:101E20008D819E81982789279827F7019383828344
:101E300016821582148298CF80E090ECCACF0F935F
:101E40001F93CF93DF93EC018B01888D843010F4C6
:101E50000E942508B80182E00E947B0E888F8430A2
:101E600050F41D870C871A8E198E81E0DF91CF9177
:101E70001F910F91089580E0F9CF4F925F926F927A
:101E80007F928F929F92AF92BF92CF92DF92EF920A
:101E9000FF920F931F93CF93DF93CDB7DEB7639776
:101EA0000FB6F894DEBF0FBECDBF7C016B013A01C7
:101EB000FB0120E090E080E06AE03191332309F4F7
:101EC00061C040ED430F4A3008F04DC0689FA0014B
:101ED000699F500D1124CA01C097830F911D37FDD2
:101EE0009A958F3F910549F340F3F7014281538161
:101EF0006481758180912B0490912C04A0912D0414
:101F0000B0912E04481759076A077B0709F40DC2E0
:101F10008701085F1F4F0E9417016F7077277C5F52
:101F2000C8010E941F0F813009F004C28BE891E0C4
:101F30009A838983F70182819381A481B5818B8300
:101F40009C83AD83BE8345E350E0BE016F5F7F4F4E
:101F5000C8010E94FF03892BA9F5D12CC12CC8010F
:101F60000E94310817C03E3209F0BFCF233009F478
:101F7000BCCFD301A20FB11D12968C932F5F90E0BE
:101F800080E09BCF233009F0B0CFF3018583CC24D0
:101F9000C394D12CC60163960FB6F894DEBF0FBE72
:101FA000CDBFDF91CF911F910F91FF90EF90DF9008
:101FB000CF90BF90AF909F908F907F906F905F90E9
:101FC0004F9008950E941701F7017783668342E0DE
:101FD00050E0B7016A5F7F4FC8010E947E0B81E02D
:101FE00090E09A83898342E050E0BE016F5F7F4FAB
:101FF000C8010E947E0B80E091E09A83898342E0D1
:1020000050E0BE016F5F7F4FC8010E947E0B1A82B5
:10201000198242E050E0BE016F5F7F4FC8010E940D
:102020007E0B42E050E0BE016F5F7F4FC8010E940F
:102030007E0B42E050E0BE016F5F7F4FC8010E94FF
:102040007E0B5601F6018081882301F16501F601BE
:1020500081912F01882311F08E32B1F446018A1844
:102060009B081814190474F48D8641E050E0BE01F9
:10207000635F7F4FC8010E947E0BA401B501C801B8
:102080000E947E0B5201DECF6201E1CF1D8641E04E
:1020900050E0BE01635F7F4FC8010E947E0BC12CE0
:1020A000DD24D394DA82C98242E050E0BE016F5F42
:1020B0007F4FC8010E947E0BDA82C98242E050E065
:1020C000BE016F5F7F4FC8010E947E0BC8010E9456
:1020D000CB08892B09F441CFF3E0AF2EB12C2301BB
:1020E00022E0420E511CD4C0F70142815381648129
:1020F0007581808D918DA28DB38D481759076A0720
:102100007B0709F008C1848D958DC59709F003C13F
:1021100081A192A15DEFC52EDD24DA940C970CF419
:10212000ADC04CE050E0BE016F5F7F4FC8010E9420
:10213000B10D8B819C819827892798279A8B898B51
:10214000F7014681578129813A814217530709F0E7
:10215000E7C097FFE5C08F7092703BEFC32EDD2480
:10216000DA94892B09F08AC06F80788476246724FA
:1021700076242AEFC22EDD24DA946114710409F466
:102180007DC0D12CC12C8D819E81982789279827CD
:10219000C816D906F8F441E050E0BE01635F7F4FF6
:1021A000C8010E94B10D4D85442331F050E070E02C
:1021B00060E0C8010E94B10D8D858111ECCF44E033
:1021C00050E070E060E0C8010E94B10DFFEFCF1A4F
:1021D000DF0AD9CF912C812C41E050E0BE016D5E29
:1021E0007F4FC8010E94B10D4B89842F807C09F07C
:1021F0006CC0442331F050E070E060E0C8010E9400
:10220000B10D8B898111E8CF42E050E0BE01615FE2
:102210007F4FC8010E94B10D42E050E0BE01635FF4
:102220007F4FC8010E94B10D44E050E070E060E0D3
:10223000C8010E94B10D42E050E0BE016F5E7F4FC9
:10224000C8010E94B10D8F85988949895A898115E5
:10225000914009F043C0CD84DE84DC24CD24DC240D
:1022600081E0C816D104D1F54115544009F04AC0A7
:1022700044E050E0B201C8010E94B10D21E0A21A71
:10228000B10809F46CCEFFEFCF16DF0609F067CE78
:102290000E9417013B014C01C8010E94FA0D18165B
:1022A00019060CF421CF0E941701661977098809D5
:1022B0009909693873418105910548F562E370E039
:1022C00080E090E00E94E500E7CF41E050E070E060
:1022D00060E0C8010E94B10D1B8A93CF54274527A7
:1022E000542770E060E0C8010E94B10DFFEF8F1A23
:1022F0009F0A6814790409F06FCF96EFC92EDD2488
:10230000DA94BCCFE7EFCE2EDD24DA94B7CFCC241D
:10231000CA94DC2CB3CF6EEFC62EDD24DA94AECF98
:102320004CEFC42EDD24DA94A9CF8EEFC82EDD2425
:10233000DA9430CED12CC12C2DCECF92DF92EF92F9
:10234000FF920F931F93CF93DF93CDB7DEB7AF9775
:102350000FB6F894DEBF0FBECDBF7C016A010BE85B
:1023600011E01A8309831C861B8688EE93E0A0E0A7
:10237000B0E08D879E87AF87B88B84E491E09A8721
:102380008987188F0F8B198E1A8E1B8E1C8E84E0F6
:1023900089A31BA70AA71CA61DA61EA61FA680917F
:1023A0001F0490912004A0912104B09122048EA3D7
:1023B0009FA3A8A7B9A78B839C83AD83BE831886F0
:1023C0001F82AE01465D5F4FCE0101960E943D0F18
:1023D00081309105B1F4D701ED91FC910488F58924
:1023E000E02D1DA30CA38CA59DA5AEA5BFA58EA316
:1023F0009FA3A8A7B9A7A601BE016C5D7F4FC70127
:102400000995AF960FB6F894DEBF0FBECDBFDF9132
:10241000CF911F910F91FF90EF90DF90CF90089593
:10242000CF92DF92EF92FF920F931F93CF93DF93A0
:10243000CDB7DEB7AF970FB6F894DEBF0FBECDBFF6
:102440008C016B017A018BE891E09A8389831B826E
:102450001C821D821E821C861B8648EE53E060E0B3
:1024600070E04D875E876F87788B24E431E03A8790
:102470002987988F8F8B198E1A8E1B8E1C8E24E0C5
:1024800029A39BA78AA71CA61DA61EA61FA6D80126
:102490001C968C91843060F40E944208882321F0BD
:1024A000F80184850E94190884E0D8011C968C9359
:1024B00080911F0490912004A0912104B0912204E6
:1024C0008EA39FA3A8A7B9A78B839C83AD83BE834C
:1024D00018861F82AE01465D5F4FB601CE010196A0
:1024E0000E943D0F0097C1F0D801ED91FC91068448
:1024F000F785E02D8BE891E09DA38CA38CA59DA58D
:10250000AEA5BFA58EA39FA3A8A7B9A7A701BE018B
:102510006C5D7F4FC8010995AF960FB6F894DEBF8A
:102520000FBECDBFDF91CF911F910F91FF90EF9024
:10253000DF90CF9008950F931F93CF938C01FC01F0
:102540006281738183E00E947B0EC82F8430F8F48F
:1025500080E591E00E9487008C2F0E943E08833125
:1025600031F08C2FCF911F910F910C94190862E0DC
:1025700070E08C2F0E940908F80182819381EC2F72
:10258000F0E0EE0FFF1FE654FD4F91838083CF9163
:102590001F910F910895CF92DF92EF92FF921F93B8
:1025A000CF93DF93EC017B016A018C85843048F482
:1025B0000E944208882319F08C850E94190884E043
:1025C0008C87F70182819381A481B5810097A10551
:1025D000B10551F490E080E0DF91CF911F91FF9021
:1025E000EF90DF90CF9008958F3F9F4FAF4FBF4F39
:1025F00089F370E060E081E20E947B0E182F8C87E7
:10260000843040F780E591E00E948700A7014E5F8B
:102610005F4F24E030E06CE070E0812F0E943703D0
:10262000B601812F0E94480364E070E0812F0E9470
:1026300009080E9417016B017C018C850E944208E9
:10264000873111F18C3101F1882321F20E941701A9
:10265000AB01BC014C195D096E097F098D859E8512
:10266000B0E0A0E084179507A607B70738F061E04F
:1026700070E080E090E00E94E500DFCF8C850E9452
:10268000250884E08C87A6CF81E090E0A5CF0F934A
:102690001F93CF93DF9300D0CDB7DEB7FC01248525
:1026A0002430E0F48C0180E591E00E94870022E074
:1026B00030E0AE014F5F5F4F60E170E0F80184856C
:1026C0000E94FC0889819A819827892798270F9072
:1026D0000F90DF91CF911F910F91089590E080E0CE
:1026E000F6CFEF92FF920F931F93CF93DF9300D01B
:1026F00000D0CDB7DEB78C017B01FB01848584302F
:10270000A8F08BE891E0F801918380831282138214
:1027100014821582C8010F900F900F900F90DF91D7
:10272000CF911F910F91FF90EF90089580E591E078
:102730000E94870024E030E0AE014F5F5F4F6CE005
:1027400070E0F70184850E94FC08BE016F5F7F4F37
:10275000C8010E94EA04DECF0F931F93CF93DF934B
:1027600000D0CDB7DEB7FC0124852430E0F48C0125
:1027700080E591E00E94870022E030E0AE014F5FEB
:102780005F4F64E070E0F80184850E94FC08898155
:102790009A819827892798270F900F90DF91CF91E2
:1027A0001F910F91089590E080E0F6CF8F929F9255
:1027B000AF92BF92CF92DF92EF92FF920F931F934F
:1027C000CF93DF937C01EB016C0182E0C80ED11C3A
:1027D0004701E5E08E0E911C10E000E0F60141910A
:1027E0006F0150E070E060E02AE0CE010E948B04AF
:1027F0005C01E881F9810190F081E02D6EE2CE016B
:1028000009958A0D9B1D080F191FC814D90431F7AB
:10281000F701458150E070E060E02AE0CE010E94BF
:102820008B04800F911FDF91CF911F910F91FF902B
:10283000EF90DF90CF90BF90AF909F908F900895D2
:102840003F924F925F926F927F928F929F92AF9240
:10285000BF92CF92DF92EF92FF920F931F93CF938D
:10286000DF93CDB7DEB7EA970FB6F894DEBF0FBEA1
:10287000CDBF7C012A013B0169010E9417014B0178
:102880005C0187010D5B1F4FC8010E94FA0D1816ED
:1028900019069CF00E941701681979098A099B0999
:1028A000461657066806790608F466C162E370E0CA
:1028B00080E090E00E94E500E7CF42E250E0BE01F8
:1028C0006F5F7F4FC8010E94B10D89818230D1F0C6
:1028D000312C832DEA960FB6F894DEBF0FBECDBF24
:1028E000DF91CF911F910F91FF90EF90DF90CF90EC
:1028F000BF90AF909F908F907F906F905F904F9020
:102900003F900895F801848995898334910501F7F2
:102910006D817E818F8198850E947A1D4B015C01BB
:10292000F60180829182A282B38246E050E0B70134
:10293000685F7F4FCE014D960E94871D892B41F61F
:10294000F70180819181A281B38188169906AA0638
:10295000BB0608F4BDCF84819581A681B781881517
:102960009905AA05BB0508F4B3CF89899A89AB8973
:10297000BC8986879787A08BB18B4EEC50E070E0C6
:1029800060E0C8010E94B10D312CC701829698AB5E
:102990008FA7F701B696FAABE9AB08969CAB8BAB69
:1029A00067019AE1C90ED11CBD96FEABEDABC70124
:1029B000429698AF8FABFD97FAAFE9AF4701FEE1C2
:1029C0008F0E911CF801818D928D181619060CF04E
:1029D00080CFC8010E94D00D8333910509F4B2C0A5
:1029E00014F58130910509F464C044F4892B51F346
:1029F000C8010E94D00DAC01552775C083309105E8
:102A000009F462C00697A1F7C8010E94D00DB82E44
:102A100044E050E0B401C8010E94B10DEB2DE45038
:102A2000FF0BAF0160C08A33910509F45FC084F5E4
:102A300085339105B1F1C697D9F6C8010E94D00D32
:102A40005C01B601CE0189960E94EA048BA59CA583
:102A5000ADA5BEA5892B8A2B8B2BB1F0EDA9FEA9C4
:102A60004080518062807380B601CE0183960E94BF
:102A7000EA048DA19EA1AFA1B8A5A50148165906EB
:102A80006A067B0609F0B8CF44E050E0B60118C0F2
:102A90008B33910509F440C08F3F910509F492CF23
:102AA000A7CFC8010E94D00DC8010E94D00D382EBA
:102AB00089CFC8010E94D00D44E050E06FA978ADE5
:102AC000C8010E94B10D7ECFC8010E94D00DB82E62
:102AD00044E050E069AD7AADC8010E94B10D8B2D84
:102AE0008450990BAC0170E060E0EACFC8010E940D
:102AF000D00D44E050E069A97AA9C8010E94B10D47
:102B0000F70166A177A180A591A50E947A1D66A311
:102B100077A380A791A756CFC8010E94D00D44E0AB
:102B200050E06BA97CA9C8010E94B10DF70162A514
:102B300073A584A595A50E947A1D62A773A784A793
:102B400095A740CFC8010E94D00D44E050E06FA58A
:102B500078A9C8010E94B10DF70162A173A184A1F7
:102B600095A10E947A1D62A373A384A395A366A76F
:102B700077A780AB91AB26CF33243A94AACE7F922D
:102B80008F929F92AF92BF92CF92DF92EF92FF927D
:102B90000F931F93CF93DF93CDB7DEB7A6970FB6F2
:102BA000F894DEBF0FBECDBF8C01762E942E852EFD
:102BB00020E2A22ECE0101967C01DC01EA2D1D92BD
:102BC000EA95E9F76801F3E4CF0ED11C8BE891E0B8
:102BD0009AA389A38FEF8BA38CA38DA38EA343E429
:102BE00050E0BE016F5D7F4FC6010E94FF0301965A
:102BF00009F4BFC081E089838A8386E0B82EBB8256
:102C00001C82D80114966D917D918D919C9117979E
:102C10000E947A1D6D837E838F83988789869A862A
:102C200080E890E09C878B874CE150E0B701C601BB
:102C30000E947E0BFE0137968AE1DF011D928A9584
:102C4000E9F74801B8E08B0E911CF401D70101901F
:102C50000D92BA94E1F740E150E0B701C6010E943D
:102C60007E0BF7011192AA94E9F796E0A92EB12CF8
:102C700040E250E0B701C6010E947E0BF1E0AF1ABE
:102C8000B108B1F783E6898392E89A8393E59B8341
:102C90008C8385E38D8381E08E837F829DE398879B
:102CA00097E099878A8786E0F401DE011B96019000
:102CB0000D928A95E1F78CE0898B8A8B6CE971E043
:102CC000CE0143960E949B1DD8011B966C91CE01AC
:102CD00049960E94A900F8016485CE014B960E9496
:102CE000A900D8011D966C91CE014D960E94A900B5
:102CF0004EE150E0B701C6010E947E0BB3E07B12AB
:102D00001EC082E3898384E08A83F80196859B83D1
:102D100097859C8390899D8391899E8396E39F8369
:102D20008887828D8987838D8A87848D8B87858D1F
:102D30008C874CE050E0B701C6010E947E0B87E310
:102D4000898386E08A8391E09B8393E09C838D83D3
:102D50008FE08E838AE38F838BE388878FEF898769
:102D600049E050E0B701C6010E947E0BC6010E94F7
:102D7000CB08A6960FB6F894DEBF0FBECDBFDF918D
:102D8000CF911F910F91FF90EF90DF90CF90BF9068
:102D9000AF909F908F907F9008951F920F920FB6E3
:102DA0000F9211242F933F938F939F93AF93BF93D1
:102DB0008091370390913803A0913903B0913A0381
:102DC0003091360323E0230F2D3758F50196A11DCE
:102DD000B11D209336038093370390933803A0935B
:102DE0003903B0933A0380913B0390913C03A09147
:102DF0003D03B0913E030196A11DB11D80933B039D
:102E000090933C03A0933D03B0933E03BF91AF91D9
:102E10009F918F913F912F910F900FBE0F901F9018
:102E2000189526E8230F0296A11DB11DD2CF1F923F
:102E30000F920FB60F9211242F933F934F935F93EE
:102E40006F937F938F939F93AF93BF93EF93FF9372
:102E50008CE593E00E94A101FF91EF91BF91AF91AA
:102E60009F918F917F916F915F914F913F912F91A2
:102E70000F900FBE0F901F9018951F920F920FB6D4
:102E80000F9211242F938F939F93EF93FF93E091D1
:102E90006C03F0916D038081E0917203F0917303F4
:102EA00082FD1BC09081809175038F5F8F7320918D
:102EB0007603821741F0E0917503F0E0E45AFC4F8D
:102EC000958F80937503FF91EF919F918F912F9133
:102ED0000F900FBE0F901F9018958081F4CF1F9216
:102EE0000F920FB60F9211240F900FBE0F901F90EC
:102EF0001895ECE5F3E01382128288EE93E0A0E0EF
:102F0000B0E084839583A683B78389E791E09183BA
:102F1000808385EC90E09587848784EC90E09787A8
:102F2000868780EC90E0918B808B81EC90E0938B96
:102F3000828B82EC90E0958B848B86EC90E0978B73
:102F4000868B118E128E138E148EE9EFF3E08BE8D0
:102F500091E0918380831282138214821582EFEFB5
:102F6000F3E0918380831282138214821582E5E05C
:102F7000F4E0918380831282138214821582EBE045
:102F8000F4E0918380831282138214821582E1E13E
:102F9000F4E0918380831282138214821582E7E128
:102FA000F4E0918380831282138214821582E3E21B
:102FB000F4E0918380831282138214821582EDE102
:102FC000F4E0918380831282138214821582E9E2F5
:102FD000F4E0918380831282138214821582EFE2DF
:102FE000F4E0918380831282138214821582E7E5D4
:102FF000F4E0918380831282138214821582E1E5CA
:10300000F4E09183808340EC428338EA338328E004
:1030100024835AE65583EBE4F4E091838083428372
:10302000338324835DE75583E5E4F4E09183808373
:1030300042833383248351E05583EFE3F4E09183AB
:1030400080834283338324835583E9E3F4E09183CF
:1030500080838FEF8283838384831582E5E3F4E0AA
:1030600081E991E091838083138212820895CF9346
:10307000DF93CDB7DEB7EF970FB6F894DEBF0FBE84
:10308000CDBF789484B5826084BD84B5816084BDF1
:1030900085B5826085BD85B5816085BD80916E00F6
:1030A000816080936E001092810080918100826027
:1030B0008093810080918100816080938100809164
:1030C00080008160809380008091B1008460809353
:1030D000B1008091B00081608093B00080917A004F
:1030E000846080937A0080917A00826080937A0075
:1030F00080917A00816080937A0080917A00806864
:1031000080937A001092C10080912A0381112AC015
:10311000109212031092110388EE93E0A0E0B0E049
:103120008093130390931403A0931503B093160395
:1031300084E491E09093100380930F038BE891E077
:1031400090931E0380931D0310921F03109220037F
:10315000109221031092220384E08093270381E0E0
:1031600080932A038CEC92E09093CB028093CA0266
:103170000E94FB05811190C010E000E01093330322
:1031800000933203E0916C03F0916D0382E0808341
:10319000E0916803F09169031082E0916A03F09175
:1031A0006B038FEC808310927403E0917003F091B5
:1031B000710386E08083E0916E03F0916F0380815C
:1031C00080618083E0916E03F0916F03808188605D
:1031D0008083E0916E03F0916F038081806880832B
:1031E000E0916E03F0916F0380818F7D8083012BCE
:1031F00011F583EA91E00E94D7048BE891E09A836D
:10320000898380914D0490914E04A0914F04B09118
:1032100050048B839C83AD83BE83CE0101960E94B4
:103220005F0768EE73E080E090E00E94E5008BECC1
:1032300091E00E94D70468EE73E080E090E00E9485
:10324000E50080EF91E00E94D7048E010F5F1F4FD1
:1032500088E0D82E95E4B92E20E4A22E99249A94E1
:1032600031E4832E40E0E42E40E0F42EE0915B0355
:10327000E353E53030F4F0E0E659FE4F80818111F0
:1032800073C283E092E00E94D70461E070E080E0C6
:1032900090E00E94E500F9CF80E591E00E94870070
:1032A00046E050E062E071E089E090E00E94660252
:1032B0008BE891E09A8389831B821C821D821E8287
:1032C000CE0103960E94F7031092EE021092EF02D5
:1032D0001092F0021092F1021092F2021092F30298
:1032E0001092F4021092F5021092F6021092F70278
:1032F0001092F8021092F90280E69AEEA0E0B0E097
:103300008093020390930303A0930403B0930503F7
:1033100080EA9FE0A0E0B0E080930603909307036B
:10332000A0930803B0930903EAEDF2E084E1DF0122
:103330001D928A95E9F786E0E2E0F1E0A4EDB2E0C3
:1033400001900D928A95E1F710920E030E94BF1C26
:103350002FEC37E040E050E00E94171DDC01CB016C
:103360000196A11DB11D8093D0029093D102A0932C
:10337000D202B093D3028093CC029093CD02A0935B
:10338000CE02B093CF028FE093E00E94310864E454
:1033900070E08FE093E00E941F0F882309F4ECCEC9
:1033A0000E9417014B015C01A8EE4A2EA3E05A2EA1
:1033B000612C712CB4E8CB2EB3E0DB2EE12CF12C88
:1033C00012E0312E10E000E080910E03833009F40A
:1033D0003FC08111B6C08091D0029091D102A091DE
:1033E000D202B091D3020196A11DB11D8093D002EB
:1033F0009093D102A093D202B093D3020E941701FE
:10340000681979098A099B09A30192010E94491D43
:10341000A90161E08CEC92E00E94BF1581E08093ED
:103420000E030130110581F20E9417016819790914
:103430008A099B0920910203309103034091040300
:1034400050910503261737074807590708F0BACFE8
:103450008FE093E00E9431088091D0029091D102D8
:10346000A091D202B091D3020196A11DB11D80930B
:10347000D0029093D102A093D202B093D3020E94C3
:10348000170160930A0370930B0380930C039093CE
:103490000D030130110509F06FCE80E591E00E9427
:1034A0008700E090CA02F090CB02B701625F7F4FC5
:1034B000CE0101960E94EA04CE0103960E94F70312
:1034C000B7016A5E7F4FCE0101960E94EA0444E094
:1034D00050E0BE016D5F7F4F81E090E00E94660288
:1034E000B7016E5E7F4FCE0101960E94EA0444E070
:1034F00050E0BE016D5F7F4F85E090E00E94660264
:10350000B701625E7F4FCE0101960E94EA048B8173
:103510009C81AD81BE8180931F0490932004A09371
:103520002104B09322040E94C0007F7380910001A7
:103530009091010168277927709301016093000140
:103540001DCE843031F58091D0029091D102A091AE
:10355000D202B091D3020196A11DB11D8093D00279
:103560009093D102A093D202B093D3020E9417018C
:10357000681979098A099B09A30192010E94491DD2
:10358000A90163E08CEC92E00E94BF1530920E031B
:1035900048CF813091F54091060350910703609127
:1035A0000803709109039E012F5F3F4F8CEC92E05E
:1035B0000E942014282EB2E08B13BEC089819A810C
:1035C000AB81BC818093D0029093D102A093D202B0
:1035D000B093D3020E941701681979098A099B09DF
:1035E000A30192010E94491DA90163E08CEC92E0C5
:1035F0000E94BF1520920E0314CF823009F011CF24
:1036000040910603509107036091080370910903EC
:103610009E012F5F3F4F8CEC92E00E942014282ED9
:10362000E5E08E1383C0F3E0F0930E038091EE0289
:103630009091EF02A091F002B091F102892B8A2BB8
:103640008B2B41F4C092EE02D092EF02E092F00296
:10365000F092F1028091F2029091F302A091F402B3
:10366000B091F502892B8A2B8B2BA1F48091EE026D
:103670009091EF02A091F002B091F102B695A7955A
:10368000979587958093F2029093F302A093F402AA
:10369000B093F5028091F6029091F702A091F802A2
:1036A000B091F902892B8A2B8B2BE9F48091EE02E1
:1036B0009091EF02A091F002B091F102AC01BD0136
:1036C000E3E07695679557954795EA95D1F7841B82
:1036D000950BA60BB70B8093F6029093F702A0937D
:1036E000F802B093F9028091F2029091F302A09156
:1036F000F402B091F5028093FA029093FB02A0933A
:10370000FC02B093FD028091F6029091F702A09125
:10371000F802B091F9028093FE029093FF02A09309
:103720000003B093010301E010E07BCE86E0281295
:1037300003C010920E0375CEAFEF2A1272CEF9CFEE
:1037400080E591E00E94870085E390E00E94D0052B
:1037500085FD15C089E492E00E94D70464EF71E012
:1037600080E090E00E94E5000E94FB05882339F08C
:1037700080915B03843321F3873309F4A9C068EE99
:1037800073E080E090E00E94E5008AE692E00E940B
:10379000D70486E0EFE6F1E0D80101900D928A951A
:1037A000E1F786E0E2E0F1E0DE01179601900D928C
:1037B0008A95E1F7DD86BF86188A198A1A8A1B8ADC
:1037C0001C8A1D8A1E8AAF8A988E198E1A8EE091E5
:1037D0004D04F0E084E0DE015B9601900D928A9545
:1037E000E1F7E0915304F0E084E0DE015F960190A0
:1037F0000D928A95E1F7DBA21CA21DA21EA21FA2B8
:1038000018A619A61AA68BA68CE68CA78FE68DA7FC
:1038100088E68EA781E68FA781E288AB64E170E03D
:10382000CE010F960E945804998F8A8F68E070E04D
:10383000CE0183960E9458049DA38EA385E394E055
:103840000E949B12F80101900020E9F7AF01401B94
:10385000510BB80185E394E00E94890C88E792E05F
:103860000E94D70465E374E0CE01C1960E940A0C61
:10387000CE01C1960E94DA0C18161906BCF4CE01CE
:10388000C1960E94580E88E992E00E94D704809168
:10389000340390913503019690933503809334035C
:1038A00068EE73E080E090E00E94E50068EE73E06F
:1038B00080E090E00E94E500E114F10409F4D6CC28
:1038C0000E948D01882309F4C3CC0E940000C0CC63
:1038D00080E591E00E9487008EE290E00E94D00592
:1038E00080FD4DCF37CF8F929F92AF92BF92CF92F4
:1038F000DF92EF92FF92CF93DF93EC0168817981A1
:103900008A819B81611571058105910521F464E22D
:1039100079ED8BE597E02DE133EF41E050E00E9437
:10392000171D49015A019B01AC01A7EAB1E40E94AD
:10393000361D6B017C01ACEEB4EFA50194010E9431
:10394000441DC60ED71EE81EF91EF7FE06C081E014
:10395000C81AD108E10880E8F80AC882D982EA8248
:10396000FB82C701B6019F77DF91CF91FF90EF9067
:10397000DF90CF90BF90AF909F908F9008958F92DF
:103980009F92AF92BF92CF92DF92EF92FF9260919F
:1039900008017091090180910A0190910B01611554
:1039A00071058105910521F464E279ED8BE597E0DD
:1039B0002DE133EF41E050E00E94171D49015A010B
:1039C0009B01AC01A7EAB1E40E94361D6B017C01AA
:1039D000ACEEB4EFA50194010E94441DC60ED71EA3
:1039E000E81EF91EF7FE06C081E0C81AD108E108FA
:1039F00080E8F80AC0920801D0920901E0920A0119
:103A0000F0920B01C701B6019F77FF90EF90DF9016
:103A1000CF90BF90AF909F908F90089560930801D2
:103A20007093090180930A0190930B010895052E6C
:103A300097FB1EF400940E942E1D57FD07D00E9494
:103A4000491D07FC03D04EF40C942E1D5095409553
:103A5000309521953F4F4F4F5F4F0895909580953A
:103A6000709561957F4F8F4F9F4F08950E946B1DFA
:103A7000A59F900DB49F900DA49F800D911D1124C2
:103A80000895B7FF0C94361D0E94361D821B930BC0
:103A90000895A1E21A2EAA1BBB1BFD010DC0AA1F8F
:103AA000BB1FEE1FFF1FA217B307E407F50720F0A7
:103AB000A21BB30BE40BF50B661F771F881F991F22
:103AC0001A9469F760957095809590959B01AC016B
:103AD000BD01CF010895A29FB001B39FC001A39F74
:103AE000700D811D1124911DB29F700D811D112437
:103AF000911D0895692796276927782787277827B2
:103B00000895EE0FFF1F0590F491E02D0994FB013D
:103B1000DC0104C08D910190801921F44150504086
:103B2000C8F7881B990B0895DC0101C06D934150C3
:103B30005040E0F70895FB01DC0101900D92002058
:103B4000E1F70895F894FFCF00C0DEADBEEFFEEEC2
:103B50000100000001005E00000000000000C6033C
:103B6000630B030BEE0ADA0C580EB605CB121012DB
:103B7000720E92087008EF03EC03EA03BB03E00344
:103B8000AC1371134713DC03000000008F037E0B9E
:103B90005504BF00BB00D00DA7051F0FE109310878
:103BA000FF039D11CB08FA0DB10D4E043E043A04FB
:103BB0003604010200000374D21DF3AEC7000000FA
:103BC00000C30123015001100281015F0173010054
:103BD000000000D613000000009B12A503890C4CC6
:103BE000080D0A0057495A6E6574004661696C6594
:103BF0006420746F20636F6E666967757265204517
:103C0000746865726E6574207573696E67204448C8
:103C1000435000436F6E6669677572696E67206511
:103C2000746865726E6574207573696E672073744D
:103C3000617469632049500045746865726E6574EB
:103C400020636F6E6E6563746564004574686572A9
:103C50006E657420736869656C6420776173206E8B
:103C60006F7420666F756E642E2020536F727279A8
:103C70002C2063616E27742072756E2077697468DA
:103C80006F75742068617264776172652E203A28BE
:103C90000045746865726E6574206361626C6520AE
:103CA0006973206E6F7420636F6E6E6563746564F4
:103CB0002E00636F6E6E656374696E672E2E2E0024
:103CC00049434D50204563686F2052657175657397
:103CD00074207061636B65742073656E742E0A00C6
:103CE00049434D50204563686F205265706C7920C0
:103CF0007061636B65742072656365697665642EB7
:023D00000A00B7
:107E0000112484B714BE81FFF0D085E080938100F7
:107E100082E08093C00088E18093C10086E0809377
:107E2000C20080E18093C4008EE0C9D0259A86E02C
:107E300020E33CEF91E0309385002093840096BBD3
:107E4000B09BFECF1D9AA8958150A9F7CC24DD24C4
:107E500088248394B5E0AB2EA1E19A2EF3E0BF2EE7
:107E6000A2D0813461F49FD0082FAFD0023811F036
:107E7000013811F484E001C083E08DD089C08234E0
:107E800011F484E103C0853419F485E0A6D080C0E4
:107E9000853579F488D0E82EFF2485D0082F10E0AE
:107EA000102F00270E291F29000F111F8ED06801E7
:107EB0006FC0863521F484E090D080E0DECF843638
:107EC00009F040C070D06FD0082F6DD080E0C81688
:107ED00080E7D80618F4F601B7BEE895C0E0D1E017
:107EE00062D089930C17E1F7F0E0CF16F0E7DF06D8
:107EF00018F0F601B7BEE89568D007B600FCFDCFD4
:107F0000A601A0E0B1E02C9130E011968C91119780
:107F100090E0982F8827822B932B1296FA010C0160
:107F200087BEE89511244E5F5F4FF1E0A038BF0790
:107F300051F7F601A7BEE89507B600FCFDCF97BE46
:107F4000E89526C08437B1F42ED02DD0F82E2BD052
:107F50003CD0F601EF2C8F010F5F1F4F84911BD097
:107F6000EA94F801C1F70894C11CD11CFA94CF0C13
:107F7000D11C0EC0853739F428D08EE10CD085E9AC
:107F80000AD08FE07ACF813511F488E018D01DD067
:107F900080E101D065CF982F8091C00085FFFCCF94
:107FA0009093C60008958091C00087FFFCCF809118
:107FB000C00084FD01C0A8958091C6000895E0E648
:107FC000F0E098E1908380830895EDDF803219F02E
:107FD00088E0F5DFFFCF84E1DECF1F93182FE3DFCA
:107FE0001150E9F7F2DF1F91089580E0E8DFEE27F6
:047FF000FF270994CA
:027FFE00040479
:00000001FF
