:100000000C945D000C9485000C9485000C94C2182F
:100010000C94C2180C94C2180C9485000C948500A2
:100020000C9485000C9485000C9485000C9485003C
:100030000C9485000C9485000C9485000C9485002C
:100040000C9478180C9485000C9446180C94201885
:100050000C9485000C9485000C9485000C9485000C
:100060000C9485000C94850000000008000201003B
:100070000003040700000000000000000000000072
:10008000250028002B0000000000240027002A0083
:10009000040404040404040402020202020203032E
:1000A0000303030301020408102040800102040836
:1000B0001020010204081020CC1811241FBECFEF1D
:1000C000D8E0DEBFCDBF12E0A0E0B1E0E6EBF8E3A0
:1000D00002C005900D92A432B107D9F723E0A4E243
:1000E000B2E001C01D92A03CB207E1F710E0CDE5FF
:1000F000D0E004C02197FE010E94381CCC35D10706
:10010000C9F70E948C190C94591C0C9400008CBDEA
:100110009DBD089590E0FC01EC55FF4F2491805760
:100120009F4FFC018491882399F090E0880F991FDC
:10013000FC01EA57FF4FA591B491FC01E458FF4F31
:10014000859194918FB7F894EC91E22BEC938FBF4B
:10015000089520E3FC0120833296862F82958F70CC
:100160006F706A3030F4605D6293682F8111F5CF53
:100170000895695CF9CFFC01818D928D08950895F1
:10018000AF92BF92CF92DF92EF92FF920F931F93A5
:10019000CF93DF936C017B018B01040F151FEB01E3
:1001A0005E01AE18BF08C017D10759F06991D6019A
:1001B000ED91FC910190F081E02DC6010995892B0C
:1001C00079F7C501DF91CF911F910F91FF90EF90CB
:1001D000DF90CF90BF90AF900895FC01538D448D78
:1001E000252F30E0842F90E0821B930B541710F0E2
:1001F000CF96089501970895FC01918D828D9817EF
:1002000061F0A28DAE0FBF2FB11D5D968C91928DC6
:100210009F5F9F73928F90E008958FEF9FEF0895F7
:10022000FC01918D828D981731F0828DE80FF11DC0
:10023000858D90E008958FEF9FEF0895FC01918DDB
:10024000228D892F90E0805C9F4F821B91098F73D4
:10025000992708958AEB92E00E941E0121E0892BE4
:1002600009F420E0822F089580E090E0892B29F0A6
:100270000E942A0181110C9400000895FC01A48DB4
:10028000A80FB92FB11DA35ABF4F2C91848D90E0B8
:1002900001968F739927848FA689B7892C93A0899B
:1002A000B1898C91837080648C93938D848D981325
:1002B00006C00288F389E02D80818F7D80830895B8
:1002C000EF92FF920F931F93CF93DF93EC0181E0A6
:1002D000888F9B8D8C8D98131AC0E889F98980814D
:1002E00085FF15C09FB7F894EE89FF896083E88980
:1002F000F98980818370806480839FBF81E090E072
:10030000DF91CF911F910F91FF90EF900895F62EFE
:100310000B8D10E00F5F1F4F0F731127E02E8C8D98
:100320008E110CC00FB607FCFACFE889F9898081DD
:1003300085FFF5CFCE010E943E01F1CFEB8DEC0F92
:10034000FD2FF11DE35AFF4FF0829FB7F8940B8FFA
:10035000EA89FB8980818062CFCFCF93DF93EC0164
:10036000888D8823B9F0AA89BB89E889F9898C919D
:1003700085FD03C0808186FD0DC00FB607FCF7CF59
:100380008C9185FFF2CF808185FFEDCFCE010E9459
:100390003E01E9CFDF91CF9108953FB7F894809166
:1003A000300290913102A0913202B091330226B511
:1003B000A89B05C02F3F19F00196A11DB11D3FBF9D
:1003C000BA2FA92F982F8827BC01CD01620F711D6C
:1003D000811D911D42E0660F771F881F991F4A9566
:1003E000D1F708958F929F92AF92BF92CF92DF92F2
:1003F000EF92FF924B015C010E94CD016B017C01E9
:100400000E94CD016C197D098E099F09683E7340D9
:1004100081059105A8F321E0821A9108A108B1088D
:1004200088EEC80E83E0D81EE11CF11C81149104F3
:10043000A104B10429F7FF90EF90DF90CF90BF9017
:10044000AF909F908F9008952FB7F89460912C02F1
:1004500070912D0280912E0290912F022FBF08954E
:10046000FC0120812EBD9B012150310941F05181B9
:100470000DB407FEFDCF4EB55EBD4193F5CF615083
:100480007109860F971F0DB407FEFDCF2EB5FC0135
:1004900020830895E0912502F091260280819091B9
:1004A0002402892B80830895E0912502F091260291
:1004B00090818091240280958923808308958EBD48
:1004C00000000DB407FEFDCF8EB50895AF92BF9228
:1004D000CF92DF92EF92FF920F931F93CF93DF9310
:1004E000CDB7DEB728970FB6F894DEBF0FBECDBFED
:1004F0008C017B016A01809150028333E1F4580141
:10050000A40EB51EA016B10609F46FC00E945402D5
:1005100080EF0E945F02812F0E945F02802F0E9465
:100520005F020F5F1F4FF70181917F010E945F0201
:100530000E944A02E7CF5B01A40EB51E8433C1F4CA
:100540000E94540219830A838D2D80688B83CC828C
:1005500064E070E0CE0101960E943002AE14BF0448
:1005600009F441C0F70181917F010E945F02F6CF3B
:100570000E9454020F3F110509F028F419820A83E2
:1005800084E08B830CC017FD17C019820A8333E007
:10059000169507953A95E1F7007E0C600B8386E08F
:1005A000C816D104A0F5F701DE011496EA15FB0583
:1005B00099F081918D93FACFC80126E096958795A1
:1005C0002A95E1F7807E19830A830115104C10F4F7
:1005D0008461D7CF8C61D5CFB6016D5F7F4FCE01DF
:1005E00001960E9430020E944A02C60128960FB668
:1005F000F894DEBF0FBECDBFDF91CF911F910F9159
:10060000FF90EF90DF90CF90BF90AF90089563E0A0
:1006100070E0CE0101960E943002F70181917F01C6
:100620000E945F02AE14BF04C1F7DDCFCF93DF930A
:100630001F92CDB7DEB7898341E050E0BE016F5F06
:100640007F4F90E080E00E9466020F90DF91CF9193
:10065000089590E020915002233339F40C96982F9E
:10066000990F990F990F80E008954896F8CFDA0115
:10067000E0912802F0E0FE2FEE27E60FF71F90E052
:10068000982F8827A901BD018E0F9F1F0C94660229
:10069000CF93DF9300D0CDB7DEB779836A8322E0B2
:1006A00030E0AE014F5F5F4F60E170E00E943703C2
:1006B0000F900F90DF91CF910895CF93DF9300D0EB
:1006C000CDB7DEB779836A8322E030E0AE014F5FB9
:1006D0005F4F64E070E00E9437030F900F90DF914E
:1006E000CF910895CF93DF931F92CDB7DEB72091BE
:1006F000280230E0322F2227260F371F90E0982F54
:100700008827498341E050E0BE016F5F7F4F820F31
:10071000931F0E9466020F90DF91CF910895CF93AF
:10072000DF931F92CDB7DEB76983DC01ED91FC91B9
:100730000280F381E02D41E050E0BE016F5F7F4F0A
:1007400009950F90DF91CF910895FC019485FB01ED
:100750008485981303C081E0943008F080E0089508
:10076000CF93DF931F92CDB7DEB76983DC01ED91A4
:10077000FC910280F381E02D41E050E0BE016F5F0B
:100780007F4F09950F90DF91CF91089544E050E09D
:10079000BC018FE090E00C9466020895FF920F93E5
:1007A0001F93CF93DF93EB01FC01178A168A2A81EE
:1007B000211109C02B81211106C02C81211103C0F8
:1007C0002D81222301F141155105E9F08A01FC0137
:1007D000F08C80E591E00E948700AE014E5F5F4F94
:1007E00024E030E06CE070E08F2D0E943703B80108
:1007F0008F2D0E94480381E090E0DF91CF911F91FF
:100800000F91FF90089580E0F7CFFC0184859585D6
:100810000895FC0184899589089526E831E0FC015A
:1008200031832083FB014089518962897389FC01EE
:1008300042835383648375830895DC01ED91FC91B9
:10084000048CF58DE02D099490E080E008959B01E3
:1008500040E050E0BA01DC01ED91FD91CD014E0F79
:100860005F1F611D711D225031092230310598F73B
:10087000CB01AA27BB2766277727840F951FA61FC2
:10088000B71FAD0166277727840F951FA61FB71FD7
:10089000809590950895FC01768765870895DC0121
:1008A000ED91FC91068CF78DE02D099591E089275B
:1008B0000895862F089581E08627089521E0FC01A0
:1008C0008485843008F020E0822F0895AF92BF9293
:1008D000CF92DF92EF92FF920F931F93CF93DF930C
:1008E00000D000D0CDB7DEB78C016B017A018091CA
:1008F00050028333E9F45B016801C40ED51EC016B3
:10090000D106A9F10E9454028FE00E945F02812F5C
:100910000E945F02802F0E945F020F5F1F4F80E0E6
:100920000E945F02F50181935F010E944A02E7CFB6
:10093000843369F50E94540219830A838F2D8F77BF
:100940008B83EC8264E070E0CE0101960E9430025D
:10095000A70170E060E0C6010E944B1CE114F104A5
:1009600021F0B701C6010E9430020E944A02C7016D
:100970000F900F900F900F90DF91CF911F910F91DB
:10098000FF90EF90DF90CF90BF90AF9008950E94BE
:1009900054020F3F110509F030F419820A831B82BB
:1009A00063E070E0D1CF17FD0BC019820A8333E0FA
:1009B000169507953A95E1F7007E08600B83F0CF16
:1009C000C80126E0969587952A95E1F7807E1983E0
:1009D0000A830115104C18F480618B83E1CF886184
:1009E000FCCFCF93DF931F92CDB7DEB720912802C3
:1009F00030E0322F2227260F371F90E0982F8827CC
:100A000041E050E0BE016F5F7F4F820F931F0E9455
:100A1000660489810F90DF91CF910895CF93C82FFD
:100A2000462F61E070E00E94720361E070E08C2F5D
:100A30000E94F1048111F9CFCF910895CF93C82F6F
:100A400080E591E00E94870068E070E08C2FCF91F4
:100A50000C940E05CF93C82F80E591E00E9487008B
:100A600060E170E08C2FCF910C940E05CF93DF9353
:100A7000EC01888D843020F40E942A0584E0888F60
:100A8000DF91CF910895CF93C82F80E591E00E9428
:100A9000870063E070E08C2FCF910C94F104CF932A
:100AA000DF93EC018C858430D0F40E9443058431BF
:100AB00089F0882379F0883169F021E08C3159F48C
:100AC000E881F9810084F185E02DCE01099521E0CE
:100AD000892B09F420E0822FDF91CF91089580E0E7
:100AE000FBCFCF92DF92EF92FF92CF93DF93EC0197
:100AF0008C85843068F40E941E050E9424026B01DC
:100B00007C018C850E944305811109C084E08C879B
:100B1000DF91CF91FF90EF90DF90CF90089561E04B
:100B200070E080E090E00E94F2010E942402AB019C
:100B3000BC014C195D096E097F098D859E85B0E069
:100B4000A0E0481759076A077B07D8F28C850E94F6
:100B50002A05DCCFCF93FC01C08D80E591E00E9497
:100B6000870060E270E08C2F0E940E0562E070E06A
:100B70008C2F0E94F10484FD16C062E070E08C2F7F
:100B80000E94F10483FF0AC048E162E070E08C2F0C
:100B90000E94720380E090E0CF91089580E591E09B
:100BA0000E948700E3CF40E162E070E08C2F0E945A
:100BB000720381E0F0CFCF93DF931F92CDB7DEB702
:100BC00041E050E0BE016F5F7F4F90E080E00E9407
:100BD000660489810F90DF91CF910895CF93DF93C1
:100BE000C4E1D0E00E94DB05882361F061E070E0A1
:100BF00080E090E00E94F2012197A1F780E0DF9170
:100C0000CF91089581E0FBCFDF92EF92FF920F9397
:100C10001F93CF93DF9300D0CDB7DEB760E372E0D0
:100C200080E090E00E94F201DFB6F8940AE910E05B
:100C30004EEAE42E40E0F42E80912702811142C05A
:100C4000F8018491F7019491E82FF0E0EE0FFF1F77
:100C5000EA57FF4FA591B4918C91982321F5E2E7D3
:100C6000F0E08491F7019491F80124912223D9F0C6
:100C7000882359F0833009F4A6C008F099C0813068
:100C800009F4A7C0823009F4A8C0E22FF0E0EE0F0B
:100C9000FF1FE458FF4FA591B4918FB7F8942C91A2
:100CA000922B9C938FBF8AE00E948A008CB5806152
:100CB0008CBD8CB580648CBD8DE00E948A008BE079
:100CC0000E948A00809127028F5F80932702DFBEF7
:100CD000F8010491E02FF0E0EE0FFF1FE458FF4F02
:100CE000859194919093260280932502F701E490D8
:100CF000E09224028AE00E948A000E944A0280E573
:100D000091E00E94870084E38093500280E80E9473
:100D100016030E94EE05882309F46CC088E00E9447
:100D200016030E94DB05883009F064C080E10E9450
:100D300016030E94DB05803109F05CC080E00E9450
:100D400016030E94DB05182F811154C041E050E0CA
:100D5000BE016F5F7F4F8FE190E00E946604898142
:100D6000833009F047C080E48093280242E06EE1BE
:100D700070E0812F0E94720342E06FE170E0812FEA
:100D80000E9472031F5F143089F740E06EE170E04B
:100D9000812F0E94720340E06FE170E0812F0E947A
:100DA00072031F5F183089F781E08093B9028CC00D
:100DB0008730B1F08830D1F0843009F066CF80916F
:100DC00080008F7D03C0809180008F7780938000AA
:100DD0005CCF84B58F7784BD58CF84B58F7DFBCF32
:100DE0008091B0008F778093B0004FCF8091B0009A
:100DF0008F7DF9CF87E38093500280E80E9416032D
:100E00000E94EE05882329F188E00E9416030E94C3
:100E1000DB058830F1F480E10E9416030E94DB05B7
:100E2000182F8031B1F480E00E9416030E94DB0588
:100E300081110FC041E050E0BE016F5F7F4F89E339
:100E400090E00E9466048981843019F4109328028E
:100E5000ABCF83E38093500280E80E9416030E9488
:100E6000EE05882371F180E10E9416030E94DB05E4
:100E7000803139F582E10E9416030E94DB05823140
:100E800001F580E00E9416030E94DB05811119C064
:100E900084E08093280215E51A8341E050E0BE010A
:100EA0006E5F7F4F8BE190E00E946602198341E004
:100EB00050E0BE016F5F7F4F8AE190E00E946602C2
:100EC00073CF1092500280E00F900F90DF91CF917E
:100ED0001F910F91FF90EF90DF900895CF92DF92D6
:100EE000EF92FF920F931F93CF93DF937C016B01DF
:100EF000EA0189018091B9028823C1F180E591E07E
:100F00000E94870046E050E062E071E089E090E0F6
:100F10000E946602C70102960E94C603BE016E5F70
:100F20007F4F44E050E081E090E00E946602B8010B
:100F30006E5F7F4F44E050E085E090E00E946602E3
:100F4000F60182819381A481B58180937703909388
:100F50007803A0937903B0937A03DF91CF911F9127
:100F60000F91FF90EF90DF90CF9008950E940406BC
:100F7000882399F3C3CF1F93CF93DF931F92CDB7ED
:100F8000DEB7182F80E591E00E948700812F0E9434
:100F9000290327E0129FF0011124EC5CFD4F228110
:100FA0003381377041E050E0BE016F5F7F4F820FA9
:100FB000931F0E94660489810F90DF91CF911F914A
:100FC0000895FC01808D843040F4218D328D232BD7
:100FD00021F00E94BB0790E008958FEF9FEF0895E6
:100FE000CF93DF93FC012485243028F08FEF9FEF0F
:100FF000DF91CF910895EC010190F081E02D008404
:10100000F185E02D0995892B89F38C850E94BB071A
:1010100090E0EECFDA01E0912802F0E0FE2FEE271B
:10102000E60FF71F90E0982F8827A901BD018E0FCA
:101030009F1F0C9466048F929F92AF92BF92CF92A3
:10104000DF92EF92FF921F93CF93DF93CDB7DEB77E
:101050002C970FB6F894DEBF0FBECDBF2091500283
:1010600014E0222339F16B017C0180E591E00E94BC
:1010700087005E0127E0A20EB11C450110E063E08D
:1010800070E0812F0E94F104F40181934F018823C5
:1010900049F11F5F143099F710E0F50181915F016C
:1010A0008D31D9F08831C9F08A518230B0F01F5F9C
:1010B000143099F7812F2C960FB6F894DEBF0FBE2F
:1010C000CDBFDF91CF911F91FF90EF90DF90CF9038
:1010D000BF90AF909F908F90089560E170E0812F56
:1010E0000E940E05A12EB12C83EE93E00197F1F73B
:1010F00042E870E060E0812F0E9472034FEF62E0EF
:1011000070E0812F0E947203B601C114D10491F4E2
:10111000809100019091010101968115F0EC9F07EB
:1011200008F45CC09093010180930001609100017C
:1011300070910101812F0E945D0386E0ECE0F1E0F7
:10114000DE01119601900D928A95E1F7F7018381F6
:101150008F778C8384818D8385818E83A7014E5FF9
:101160005F4F24E030E06CE070E0812F0E94370395
:10117000B601812F0E94480326E030E0AE014F5FA8
:101180005F4F66E070E0812F0E94370361E070E0FE
:10119000812F0E940E0527E02A9DC0012B9D900DF6
:1011A00011249C012C5C3D4F7901F90111821082C0
:1011B00022E030E0AE01455F5F4F68E270E0812FD2
:1011C0000E940A088B859C85982789279827F70114
:1011D000938382831682158214826CCF80E090EC18
:1011E000A1CFCF92DF92EF92FF920F931F93CF93F5
:1011F000DF9300D000D000D0CDB7DEB78C016B01FB
:101200007A01FC01808D843010F40E942A0586E862
:1012100091E09A838983F60182819381A481B581CB
:101220008B839C83AD83BE83B701CE0101960E9460
:101230001B08F801808F8430A0F4F586E486128EB6
:10124000118E81E026960FB6F894DEBF0FBECDBF9B
:10125000DF91CF911F910F91FF90EF90DF90CF9092
:10126000089580E0EFCFAF92BF92CF92DF92EF92DE
:10127000FF920F931F93CF93DF9300D000D000D045
:10128000CDB7DEB7082F6B0180E591E00E948700A3
:101290009E012F5F3F4F7901590110E063E070E03C
:1012A000812F0E94F104F50181935F01882341F1B0
:1012B0001F5F143099F710E0F70181917F018D31A4
:1012C000D1F08831C1F08A518230A8F01F5F14300C
:1012D00099F7812F26960FB6F894DEBF0FBECDBFCB
:1012E000DF91CF911F910F91FF90EF90DF90CF9002
:1012F000BF90AF90089560E170E0812F0E940E05CD
:10130000E12EF12C83EE93E00197F1F7402F70E08E
:1013100060E0812F0E9472034FEF62E070E0812F46
:101320000E947203B601CD2889F48091000190914A
:10133000010101968115F0EC9F0798F1909301014E
:10134000809300016091000170910101812F0E9442
:101350005D0361E070E0812F0E940E0527E02E9D65
:10136000C0012F9D900D11249C012C5C3D4F7901F3
:10137000F9011182108222E030E0AE014B5F5F4F35
:1013800068E270E0812F0E940A088D819E81982773
:1013900089279827F7019383828316821582148206
:1013A00098CF80E090ECCACFCF92DF92EF92FF927D
:1013B0001F93CF93DF93EC017B016A018C8584300E
:1013C00048F40E944305882319F08C850E941E056D
:1013D00084E08C87F70182819381A481B581009795
:1013E000A105B10551F490E080E0DF91CF911F910C
:1013F000FF90EF90DF90CF9008958F3F9F4FAF4FBA
:10140000BF4F89F380915002811103C084E08C8723
:10141000EACF70E060E081E20E943309182F8C87E8
:10142000843008F780E591E00E948700A7014E5FB5
:101430005F4F24E030E06CE070E0812F0E943703C2
:10144000B601812F0E94480364E070E0812F0E9462
:101450000E050E9424026B017C018C850E944305CD
:10146000873109F18C31F9F0882309F4BCCF0E944F
:101470002402AB01BC014C195D096E097F098D8501
:101480009E85B0E0A0E084179507A607B70738F05F
:1014900061E070E080E090E00E94F201DECF8C8598
:1014A0000E942A05B3CF81E090E09FCF0F931F9356
:1014B000CF93DF93EC018B01888D843010F40E9470
:1014C0002A0580915002811107C094E0988FDF9126
:1014D000CF911F910F910895B80182E00E943309C6
:1014E000888F843030F41D870C871A8E198E81E026
:1014F000EECF80E0ECCF7F928F929F92AF92BF921F
:10150000CF92DF92EF92FF920F931F93CF93DF93CF
:1015100000D0CDB7DEB7782E8B014A01590122E009
:1015200030E0AE014F5F5F4F64E270E00E940A0856
:10153000E980FA80FE24EF24FE24E00EF11E9701DC
:10154000377040915002072D10E0433309F042C03C
:10155000085F1F4F102F0027110F110F110FC90126
:10156000800F911F4733C9F1A9014A0D5B1D41301E
:10157000584098F160E078E06B01C21AD30AA601E6
:10158000B4010E946602A5014C195D09B4016C0DFD
:101590007D1DC8010E946602EA0CFB1CF982EA82EA
:1015A00022E030E0AE014F5F5F4F64E270E0872DD4
:1015B0000E9437030F900F90DF91CF911F910F91F1
:1015C000FF90EF90DF90CF90BF90AF909F908F9063
:1015D0007F900895005F1F4FBDCFA501B401DACF02
:1015E000EF92FF921F93CF93DF9300D0CDB7DEB77A
:1015F000182F22E030E0AE014F5F5F4F60E270E0F5
:101600000E940A08E980FA80FE24EF24FE2422E0EA
:1016100030E0AE014F5F5F4F60E270E0812F0E94CB
:101620000A0889819A81982789279827E816F90658
:1016300089F487E0189FF0011124EC5CFD4FF582DE
:10164000E482C7010F900F90DF91CF911F91FF901F
:10165000EF9008957C01DBCF1F93CF93DF93182F7A
:1016600080E591E00E948700812F0E94F00AEC0142
:1016700063E070E0812F0E94F104873121F08C310A
:1016800011F0D0E0C0E0CE01DF91CF911F9108951D
:10169000CF93DF93EC018C85843060F40E94430586
:1016A000873111F08C3131F48C850E942C0B81151F
:1016B000984088F3DF91CF910895FC0184858430B0
:1016C00010F40C942C0B90E080E008959F92AF9260
:1016D000BF92CF92DF92EF92FF920F931F93CF931F
:1016E000DF938C015B01942EE52EFC01C688D78820
:1016F000F08C80E591E00E9487008F2D0E94F00A17
:10170000C92DDE2D8C179D0708F4EC019E01A50163
:10171000B6018F2D0E947B0AF801868997898C0F6C
:101720009D1F978B868BCE01DF91CF911F910F91DB
:10173000FF90EF90DF90CF90BF90AF909F90089573
:101740008F929F92AF92BF92CF92DF92EF92FF92D1
:101750000F931F93CF936C015B018A01FC01C48539
:10176000C430F0F57A014130584018F0E12C88E09F
:10177000F82E80E591E00E9487008C2F0E94F00AED
:101780004C0163E070E08C2F0E94F104873111F06E
:101790008C3149F58E149F0460F380E591E00E943E
:1017A00087009701A50170E060E08C2F0E947B0A02
:1017B00060E270E08C2F0E940E0562E070E08C2FDA
:1017C0000E94F10484FD17C063E070E08C2F0E943A
:1017D000F10481110BC081E090E0F60193838283D4
:1017E00010E000E010C0F12CE12CD7CF80E591E0B3
:1017F0000E948700E2CF40E162E070E08C2F0E94FF
:101800007203EF2841F3C801CF911F910F91FF9010
:10181000EF90DF90CF90BF90AF909F908F90089502
:10182000FF920F931F93CF93DF9300D0CDB7DEB716
:10183000F82E22E030E0AE014F5F5F4F66E270E0CD
:101840000E940A0809811A8110270127102722E027
:1018500030E0AE014F5F5F4F66E270E08F2D0E9477
:101860000A0889819A8198278927982708171907D4
:1018700049F4C8010F900F90DF91CF911F910F9104
:10188000FF9008958C01E3CF1F93CF93DF93182F20
:1018900087E0189FE0011124CC5CDD4F888199819D
:1018A000009761F480E591E00E948700812F0E94FB
:1018B000100C2E81821B910999838883DF91CF912F
:1018C0001F910895FC018485843010F40C94440C1D
:1018D00090E080E008954F925F927F928F929F9266
:1018E000AF92BF92CF92DF92EF92FF920F931F932E
:1018F000CF93DF9300D0CDB7DEB7782E6B014A01CE
:10190000A82EB12C27E0829FC0011124FC01EC5CC1
:10191000FD4F7F010081118180E591E00E948700E9
:101920000815190554F4872D0E94100CF701268123
:101930008C01021B1109118300830115110529F582
:1019400063E070E0872D0E94F104843159F0882310
:1019500049F001E010E08C3111F410E000E0119545
:1019600001951109C8010F900F90DF91CF911F9140
:101970000F91FF90EF90DF90CF90BF90AF909F902E
:101980008F907F905F904F900895801691060CF491
:10199000840187E08A9DF0018B9DF00D1124EC5CA1
:1019A000FD4FE280F380C114D10451F12701F7E02B
:1019B0005F22872D0E942903840D951D20915002DE
:1019C000273309F453C09801240D351D21303840C8
:1019D00008F44CC020E038E0490184189508A401BF
:1019E000B6010E9466042601480C591C6801C818FB
:1019F000D908872D0E942903A601B2010E9466041E
:101A0000E00EF11E87E08A9DF0018B9DF00D112400
:101A1000EC5CFD4FF382E28220813181201B310B8F
:101A2000318320838681800F912F911D8A3F9105FC
:101A300010F4232BF1F487E08A9DF0018B9DF00DCB
:101A40001124EC5CFD4F1682F982EA8222E030E03C
:101A5000AE014F5F5F4F68E270E0872D0E94370351
:101A600060E470E0872D0E940E057CCFA801B601CE
:101A7000C5CF868377CFCF93DF93FC01218D328D45
:101A80002115310529F48FEF9FEFDF91CF91089554
:101A9000EC01808D4217530708F0A9010E946B0CDE
:101AA0001816190684F7298D3A8D281B390B3A8FA1
:101AB000298FEBCF0F931F93CF93DF931F92CDB757
:101AC000DEB7FC01218D328D232B41F48FEF9FEF88
:101AD0000F90DF91CF911F910F9108958C0141E0FC
:101AE00050E0BE016F5F7F4FFC01808D0E946B0C48
:101AF000181619065CF7F801818D928D0197928F67
:101B0000818F898190E0E4CFCF93DF931F92CDB78F
:101B1000DEB741E050E0BE016F5F7F4FFC0184857E
:101B20000E946B0C1816190634F4898190E00F900E
:101B3000DF91CF9108958FEF9FEFF9CFFC0184855E
:101B4000843010F40C946B0C90E080E008950F93B7
:101B50001F93CF93DF9300D0CDB7DEB7FC01248570
:101B60002430E0F48C0180E591E00E94870022E0BF
:101B700030E0AE014F5F5F4F60E170E0F8018485B7
:101B80000E940A0889819A819827892798270F90AF
:101B90000F90DF91CF911F910F91089590E080E019
:101BA000F6CF0F931F93CF93DF9300D0CDB7DEB75F
:101BB000FC0124852430E0F48C0180E591E00E9452
:101BC000870022E030E0AE014F5F5F4F64E070E0DD
:101BD000F80184850E940A0889819A8198278927BB
:101BE00098270F900F90DF91CF911F910F9108953B
:101BF00090E080E0F6CFDC0186E891E08D939D9344
:101C000084E0FB0101900D928A95E1F70895EF922F
:101C1000FF920F931F93CF93DF9300D000D0CDB7E7
:101C2000DEB78C017B01FB0184858430A8F086E857
:101C300091E0F801918380831282138214821582CD
:101C4000C8010F900F900F900F90DF91CF911F91CF
:101C50000F91FF90EF90089580E591E00E9487003A
:101C600024E030E0AE014F5F5F4F6CE070E0F701C1
:101C700084850E940A08BE016F5F7F4FC8010E94E1
:101C8000FB0DDECF0F931F93CF93DF93CDB7DEB75E
:101C900028970FB6F894DEBF0FBECDBF8C01D801D8
:101CA00059964D915C915A974115510551F0ED911E
:101CB000FC91048CF58DE02D70E060E0C801099581
:101CC000EECFF801808D0E94440C892BB1F148E0E1
:101CD00050E0BE016F5F7F4FD80158968C910E94F3
:101CE0006B0C18161906F4F4D801509684E0FE0126
:101CF000319601900D928A95E1F78D8190E0982FB1
:101D000088272E81820F911DF801958B848B8F81FE
:101D1000282F30E0322F22278885820F932F911DA4
:101D2000928F818F28960FB6F894DEBF0FBECDBF7D
:101D3000DF91CF911F910F91089590E080E0F2CF55
:101D40004F925F926F927F928F929F92AF92BF92CB
:101D5000CF92DF92EF92FF920F931F93CF93DF9377
:101D6000CDB7DEB763970FB6F894DEBF0FBECDBF19
:101D70007C016B013A01FB0120E090E080E06AE029
:101D80003191332309F461C040ED430F4A3008F02C
:101D90004DC0689FA001699F500D1124CA01C097D2
:101DA000830F911D37FD9A958F3F910549F340F3BD
:101DB000F701428153816481758180918303909101
:101DC0008403A0918503B0918603481759076A07D9
:101DD0007B0709F40DC28701085F1F4F0E94240290
:101DE0006F7077277C5FC8010E94560A813009F026
:101DF00004C286E891E09A838983F7018281938106
:101E0000A481B5818B839C83AD83BE8345E350E081
:101E1000BE016F5F7F4FC8010E94CE03892BA9F5D9
:101E2000D12CC12CC8010E94360517C03E3209F0E2
:101E3000BFCF233009F4BCCFD301A20FB11D12963E
:101E40008C932F5F90E080E09BCF233009F0B0CFE0
:101E5000F3018583CC24C394D12CC60163960FB6BD
:101E6000F894DEBF0FBECDBFDF91CF911F910F91D0
:101E7000FF90EF90DF90CF90BF90AF909F908F90AA
:101E80007F906F905F904F9008950E942402F70119
:101E90007783668342E050E0B7016A5F7F4FC801F5
:101EA0000E94660B81E090E09A83898342E050E0D3
:101EB000BE016F5F7F4FC8010E94660B80E091E01A
:101EC0009A83898342E050E0BE016F5F7F4FC80173
:101ED0000E94660B1A82198242E050E0BE016F5FD9
:101EE0007F4FC8010E94660B42E050E0BE016F5F69
:101EF0007F4FC8010E94660B42E050E0BE016F5F59
:101F00007F4FC8010E94660B5601F601808188232D
:101F100001F16501F60181912F01882311F08E32C4
:101F2000B1F446018A189B081814190474F48D86BC
:101F300041E050E0BE01635F7F4FC8010E94660B25
:101F4000A401B501C8010E94660B5201DECF6201F7
:101F5000E1CF1D8641E050E0BE01635F7F4FC801C5
:101F60000E94660BC12CDD24D394DA82C98242E040
:101F700050E0BE016F5F7F4FC8010E94660BDA829E
:101F8000C98242E050E0BE016F5F7F4FC8010E94EE
:101F9000660BC8010E94AA05892B09F441CFF3E022
:101FA000AF2EB12C230122E0420E511CD4C0F70108
:101FB0004281538164817581808D918DA28DB38D15
:101FC000481759076A077B0709F008C1848D958D6A
:101FD000C59709F003C181A192A15DEFC52EDD2453
:101FE000DA940C970CF4ADC04CE050E0BE016F5F8A
:101FF0007F4FC8010E943B0D8B819C8198278927C8
:1020000098279A8B898BF7014681578129813A81DC
:102010004217530709F0E7C097FFE5C08F70927031
:102020003BEFC32EDD24DA94892B09F08AC06F8040
:1020300078847624672476242AEFC22EDD24DA946D
:102040006114710409F47DC0D12CC12C8D819E8155
:10205000982789279827C816D906F8F441E050E058
:10206000BE01635F7F4FC8010E943B0D4D85442335
:1020700031F050E070E060E0C8010E943B0D8D85BA
:102080008111ECCF44E050E070E060E0C8010E94B4
:102090003B0DFFEFCF1ADF0AD9CF912C812C41E005
:1020A00050E0BE016D5E7F4FC8010E943B0D4B8921
:1020B000842F807C09F06CC0442331F050E070E044
:1020C00060E0C8010E943B0D8B898111E8CF42E09E
:1020D00050E0BE01615F7F4FC8010E943B0D42E0AE
:1020E00050E0BE01635F7F4FC8010E943B0D44E09A
:1020F00050E070E060E0C8010E943B0D42E050E01B
:10210000BE016F5E7F4FC8010E943B0D8F8598898D
:1021100049895A898115914009F043C0CD84DE84F4
:10212000DC24CD24DC2481E0C816D104D1F541158E
:10213000544009F04AC044E050E0B201C8010E9496
:102140003B0D21E0A21AB10809F46CCEFFEFCF16C7
:10215000DF0609F067CE0E9424023B014C01C80152
:102160000E94420E181619060CF421CF0E94240278
:1021700066197709880999096938734181059105BC
:1021800048F562E370E080E090E00E94F201E7CF62
:1021900041E050E070E060E0C8010E943B0D1B8A06
:1021A00093CF54274527542770E060E0C8010E9470
:1021B0003B0DFFEF8F1A9F0A6814790409F06FCF67
:1021C00096EFC92EDD24DA94BCCFE7EFCE2EDD24C6
:1021D000DA94B7CFCC24CA94DC2CB3CF6EEFC62EE2
:1021E000DD24DA94AECF4CEFC42EDD24DA94A9CFEF
:1021F0008EEFC82EDD24DA9430CED12CC12C2DCE1A
:10220000CF92DF92EF92FF920F931F93CF93DF93C2
:10221000CDB7DEB7AF970FB6F894DEBF0FBECDBF18
:102220007C016A0106E811E01A8309831C861B867B
:1022300088EE93E0A0E0B0E08D879E87AF87B88BF3
:102240008CE191E09A878987188F0F8B198E1A8EEF
:102250001B8E1C8E84E089A31BA70AA71CA61DA6A3
:102260001EA61FA68091770390917803A091790311
:10227000B0917A038EA39FA3A8A7B9A78B839C8351
:10228000AD83BE8318861F82AE01465D5F4FCE01CF
:1022900001960E94A00E81309105B1F4D701ED9115
:1022A000FC910488F589E02D1DA30CA38CA59DA5A8
:1022B000AEA5BFA58EA39FA3A8A7B9A7A601BE01DF
:1022C0006C5D7F4FC7010995AF960FB6F894DEBFDE
:1022D0000FBECDBFDF91CF911F910F91FF90EF9077
:1022E000DF90CF900895CF92DF92EF92FF920F93FD
:1022F0001F93CF93DF93CDB7DEB7AF970FB6F894A8
:10230000DEBF0FBECDBF8C016B017A0186E891E084
:102310009A8389831B821C821D821E821C861B86D7
:1023200048EE53E060E070E04D875E876F87788B02
:102330002CE131E03A872987988F8F8B198E1A8E7E
:102340001B8E1C8E24E029A39BA78AA71CA61DA672
:102350001EA61FA6D8011C968C91843060F40E94A2
:102360004305882321F0F80184850E941E0584E03E
:10237000D8011C968C938091770390917803A0915B
:102380007903B0917A038EA39FA3A8A7B9A78B83E3
:102390009C83AD83BE8318861F82AE01465D5F4F6E
:1023A000B601CE0101960E94A00E0097C1F0D8019F
:1023B000ED91FC910684F785E02D86E891E09DA3E0
:1023C0008CA38CA59DA5AEA5BFA58EA39FA3A8A7F2
:1023D000B9A7A701BE016C5D7F4FC8010995AF96F3
:1023E0000FB6F894DEBF0FBECDBFDF91CF911F9126
:1023F0000F91FF90EF90DF90CF900895FB01019037
:102400000020E9F73197AF01461B570BDC01ED9136
:10241000FC910280F381E02D09948F929F92AF92FC
:10242000BF92EF92FF920F931F93CF93DF93CDB79D
:10243000DEB7A1970FB6F894DEBF0FBECDBF7C010B
:10244000FA01CB0119A2223008F42AE08E010F5DB7
:102450001F4F822E912CB12CA12CBF01A5019401FC
:102460000E94001CF901CA016A300CF5605DD801B8
:102470006E938D01232B242B252B79F790E080E0A0
:10248000109721F0BD01C7010E94FE11A1960FB661
:10249000F894DEBF0FBECDBFDF91CF911F910F919A
:1024A000FF90EF90BF90AF909F908F900895695CE0
:1024B000DECFCF93DF93BC018AEB92E00E94FE1146
:1024C000EC0168E871E08AEB92E00E94FE118C0F4B
:1024D0009D1FDF91CF9108958F929F92AF92BF92EF
:1024E000CF92DF92EF92FF920F931F93CF93DF93E0
:1024F0007C01EB016C0182E0C80ED11C4701E5E0D4
:102500008E0E911C10E000E0F60141916F0150E049
:1025100070E060E02AE0CE010E940D125C01E881CB
:10252000F9810190F081E02D6EE2CE0109958A0DCE
:102530009B1D080F191FC814D90431F7F7014581F5
:1025400050E070E060E02AE0CE010E940D12800FA2
:10255000911FDF91CF911F910F91FF90EF90DF902E
:10256000CF90BF90AF909F908F9008953F924F92E1
:102570005F926F927F928F929F92AF92BF92CF9213
:10258000DF92EF92FF920F931F93CF93DF93CDB71C
:10259000DEB7EA970FB6F894DEBF0FBECDBF7C0161
:1025A0002A013B0169010E9424024B015C01870161
:1025B0000D5B1F4FC8010E94420E181619069CF0B1
:1025C0000E942402681979098A099B094616570650
:1025D0006806790608F466C162E370E080E090E086
:1025E0000E94F201E7CF42E250E0BE016F5F7F4FF1
:1025F000C8010E943B0D89818230D1F0312C832D9E
:10260000EA960FB6F894DEBF0FBECDBFDF91CF9133
:102610001F910F91FF90EF90DF90CF90BF90AF9000
:102620009F908F907F906F905F904F903F90089514
:10263000F801848995898334910501F76D817E8144
:102640008F8198850E94311C4B015C01F6018082CC
:102650009182A282B38246E050E0B701685F7F4F6B
:10266000CE014D960E943E1C892B41F6F7018081D8
:102670009181A281B38188169906AA06BB0608F447
:10268000BDCF84819581A681B78188159905AA055A
:10269000BB0508F4B3CF89899A89AB89BC89868741
:1026A0009787A08BB18B4EEC50E070E060E0C801E2
:1026B0000E943B0D312CC701829698AB8FA7F70182
:1026C000B696FAABE9AB08969CAB8BAB67019AE187
:1026D000C90ED11CBD96FEABEDABC701429698AFBB
:1026E0008FABFD97FAAFE9AF4701FEE18F0E911C6A
:1026F000F801818D928D181619060CF080CFC80153
:102700000E945A0D8333910509F4B2C014F581304B
:10271000910509F464C044F4892B51F3C8010E9467
:102720005A0DAC01552775C08330910509F462C07C
:102730000697A1F7C8010E945A0DB82E44E050E058
:10274000B401C8010E943B0DEB2DE450FF0BAF011B
:1027500060C08A33910509F45FC084F58533910523
:10276000B1F1C697D9F6C8010E945A0D5C01B601B5
:10277000CE0189960E94FB0D8BA59CA5ADA5BEA59B
:10278000892B8A2B8B2BB1F0EDA9FEA940805180BB
:1027900062807380B601CE0183960E94FB0D8DA1ED
:1027A0009EA1AFA1B8A5A501481659066A067B06E9
:1027B00009F0B8CF44E050E0B60118C08B33910562
:1027C00009F440C08F3F910509F492CFA7CFC8010B
:1027D0000E945A0DC8010E945A0D382E89CFC80197
:1027E0000E945A0D44E050E06FA978ADC8010E94E4
:1027F0003B0D7ECFC8010E945A0DB82E44E050E038
:1028000069AD7AADC8010E943B0D8B2D8450990BA8
:10281000AC0170E060E0EACFC8010E945A0D44E0CC
:1028200050E069A97AA9C8010E943B0DF70166A191
:1028300077A180A591A50E94311C66A377A380A7EC
:1028400091A756CFC8010E945A0D44E050E06BA9F1
:102850007CA9C8010E943B0DF70162A573A584A560
:1028600095A50E94311C62A773A784A795A740CFA6
:10287000C8010E945A0D44E050E06FA578A9C80134
:102880000E943B0DF70162A173A184A195A10E9452
:10289000311C62A373A384A395A366A777A780AB1B
:1028A00091AB26CF33243A94AACE7F928F929F92F7
:1028B000AF92BF92CF92DF92EF92FF920F931F934E
:1028C000CF93DF93CDB7DEB7A6970FB6F894DEBFF0
:1028D0000FBECDBF8C01762E942E852E20E2A22E27
:1028E000CE0101967C01DC01EA2D1D92EA95E9F703
:1028F0006801F3E4CF0ED11C86E891E09AA389A386
:102900008FEF8BA38CA38DA38EA343E450E0BE0175
:102910006F5D7F4FC6010E94CE03019609F4BFC0D0
:1029200081E089838A8386E0B82EBB821C82D8012D
:1029300014966D917D918D919C9117970E94311CF9
:102940006D837E838F83988789869A8680E890E05E
:102950009C878B874CE150E0B701C6010E94660B53
:10296000FE0137968AE1DF011D928A95E9F7480159
:10297000B8E08B0E911CF401D70101900D92BA942E
:10298000E1F740E150E0B701C6010E94660BF70194
:102990001192AA94E9F796E0A92EB12C40E250E0FA
:1029A000B701C6010E94660BF1E0AF1AB108B1F79A
:1029B00083E6898392E89A8393E59B838C8385E3FE
:1029C0008D8381E08E837F829DE3988797E099874E
:1029D0008A8786E0F401DE011B9601900D928A95AC
:1029E000E1F78CE0898B8A8B6BE871E0CE0143962E
:1029F0000E94521CD8011B966C91CE0149960E94F0
:102A0000A900F8016485CE014B960E94A900D80167
:102A10001D966C91CE014D960E94A9004EE150E0AA
:102A2000B701C6010E94660BB3E07B121EC082E3B1
:102A3000898384E08A83F80196859B8397859C83AC
:102A400090899D8391899E8396E39F838887828D59
:102A50008987838D8A87848D8B87858D8C874CE0D1
:102A600050E0B701C6010E94660B87E3898386E0C8
:102A70008A8391E09B8393E09C838D838FE08E8398
:102A80008AE38F838BE388878FEF898749E050E063
:102A9000B701C6010E94660BC6010E94AA05A69650
:102AA0000FB6F894DEBF0FBECDBFDF91CF911F915F
:102AB0000F91FF90EF90DF90CF90BF90AF909F90DD
:102AC0008F907F9008954F925F926F927F928F9236
:102AD0009F92AF92BF92DF92EF92FF920F931F935C
:102AE000CF93DF9300D000D000D0CDB7DEB7809178
:102AF000B10281112AC0109299021092980288EEB8
:102B000093E0A0E0B0E080939A0290939B02A093A0
:102B10009C02B0939D028CE191E090939702809388
:102B2000960286E891E09093A5028093A402109209
:102B3000A6021092A7021092A8021092A90284E0A5
:102B40008093AE0281E08093B10283E592E090939E
:102B50005202809351028091B902882309F452C134
:102B600080E591E00E94870046E050E062E071E07D
:102B700089E090E00E94660286E891E09A8389836A
:102B80001B821C821D821E82CE0103960E94C603F8
:102B900010927502109276021092770210927802CB
:102BA0001092790210927A0210927B0210927C02AB
:102BB00010927D0210927E0210927F02109280028B
:102BC00080E69AEEA0E0B0E08093890290938A02BA
:102BD000A0938B02B0938C0280EA9FE0A0E0B0E06B
:102BE00080938D0290938E02A0938F02B0939002F7
:102BF000E1E6F2E084E1DF011D928A95E9F786E0E3
:102C0000E2E0F1E0ABE5B2E001900D928A95E1F7E8
:102C1000109295020E94761B2FEC37E040E050E0C6
:102C20000E94CE1BDC01CB010196A11DB11D80933A
:102C3000570290935802A0935902B0935A0280937E
:102C4000530290935402A0935502B093560286E922
:102C500092E00E94360564E470E086E992E00E940A
:102C6000560A882309F4D2C00E9424024B015C0159
:102C700048EE442E43E0542E612C712C53E0D52EA7
:102C800002E0F12CE12C80919502833009F440C0E0
:102C90008111D5C08091570290915802A09159029C
:102CA000B0915A020196A11DB11D809357029093D5
:102CB0005802A0935902B0935A020E942402681944
:102CC00079098A099B09A30192010E94001CA901AC
:102CD00061E083E592E00E94551481E080939502C3
:102CE00091E0E916F10479F20E9424026819790949
:102CF0008A099B092091890230918A0240918B02B6
:102D000050918C02261737074807590708F0B9CFAA
:102D100086E992E00E943605809157029091580210
:102D2000A0915902B0915A020196A11DB11D809344
:102D3000570290935802A0935902B0935A020E94EE
:102D40002402609391027093920280939302909375
:102D50009402A1E0EA16F10409F058C080E591E080
:102D60000E9487000091510210915202B801625FE7
:102D70007F4FCE0101960E94FB0DCE0103960E946B
:102D8000C603B8016A5E7F4FCE0101960E94FB0D1B
:102D900044E050E0BE016D5F7F4F81E090E00E9413
:102DA0006602B8016E5E7F4FCE0101960E94FB0D58
:102DB00044E050E0BE016D5F7F4F85E090E00E94EF
:102DC0006602B801625E7F4FCE0101960E94FB0D44
:102DD0008B819C81AD81BE81809377039093780332
:102DE000A0937903B0937A030E94CD017F73809101
:102DF0000001909101016827792770930101609388
:102E0000000106C00E9404068111AACEF12CE12C1B
:102E1000C70126960FB6F894DEBF0FBECDBFDF9177
:102E2000CF911F910F91FF90EF90DF90BF90AF90E7
:102E30009F908F907F906F905F904F900895843017
:102E400031F58091570290915802A0915902B091AA
:102E50005A020196A11DB11D80935702909358020A
:102E6000A0935902B0935A020E942402681979096A
:102E70008A099B09A30192010E94001CA90163E039
:102E800083E592E00E9455140093950229CF81308A
:102E900091F540918D0250918E0260918F02709158
:102EA00090029E012F5F3F4F83E592E00E94B61291
:102EB000182F823009F0C1C089819A81AB81BC8111
:102EC0008093570290935802A0935902B0935A02EC
:102ED0000E942402681979098A099B09A3019201B9
:102EE0000E94001CA90163E083E592E00E94551452
:102EF00010939502F5CE823009F0F2CE40918D020A
:102F000050918E0260918F02709190029E012F5F0E
:102F10003F4F83E592E00E94B612182F853009F0EA
:102F200087C0D09295028091750290917602A0910F
:102F30007702B0917802892B8A2B8B2B61F484E87D
:102F400093E0A0E0B0E08093750290937602A093A6
:102F50007702B09378028091790290917A02A091E1
:102F60007B02B0917C02892B8A2B8B2BA1F4809160
:102F7000750290917602A0917702B0917802B69591
:102F8000A795979587958093790290937A02A0935D
:102F90007B02B0937C0280917D0290917E02A09191
:102FA0007F02B0918002892B8A2B8B2BE9F48091D0
:102FB000750290917602A0917702B0917802AC01EF
:102FC000BD0123E076956795579547952A95D1F7EA
:102FD000841B950BA60BB70B80937D0290937E020A
:102FE000A0937F02B09380028091790290917A023F
:102FF000A0917B02B0917C02809381029093820227
:10300000A0938302B093840280917D0290917E020E
:10301000A0917F02B09180028093850290938602F6
:10302000A0938702B0938802EE24E394F12C58CE4B
:10303000863019F41092950253CE1F3FD9F350CE2B
:103040001F920F920FB60F9211242F933F934F931D
:103050005F936F937F938F939F93AF93BF93EF9300
:10306000FF938AEB92E00E943E01FF91EF91BF91A6
:10307000AF919F918F917F916F915F914F913F9110
:103080002F910F900FBE0F901F9018951F920F92C7
:103090000FB60F9211242F938F939F93EF93FF936B
:1030A000E091CA02F091CB028081E091D002F091D0
:1030B000D10282FD1BC090818091D3028F5F8F73FC
:1030C0002091D402821741F0E091D302F0E0E6545F
:1030D000FD4F958F8093D302FF91EF919F918F9138
:1030E0002F910F900FBE0F901F9018958081F4CFF5
:1030F0001F920F920FB60F9211242F933F938F932D
:103100009F93AF93BF9380912C0290912D02A09139
:103110002E02B0912F0230912B0223E0230F2D3786
:1031200058F50196A11DB11D20932B0280932C020E
:1031300090932D02A0932E02B0932F028091300223
:1031400090913102A0913202B09133020196A11DFB
:10315000B11D8093300290933102A0933202B0935C
:103160003302BF91AF919F918F913F912F910F901B
:103170000FBE0F901F90189526E8230F0296A11DF1
:10318000B11DD2CF1F920F920FB60F9211240F9044
:103190000FBE0F901F901895EAEBF2E01382128297
:1031A00048EE53E060E070E04483558366837783A4
:1031B00086E491E09183808385EC90E09587848715
:1031C00084EC90E09787868780EC90E0918B808BF1
:1031D00081EC90E0938B828B82EC90E0958B848BDA
:1031E00086EC90E0978B868B118E128E138E148E48
:1031F000E7E5F3E086E891E0918380831282138211
:1032000014821582EDE5F3E09183808312821382AC
:1032100014821582E3E6F3E09183808312821382A5
:1032200014821582E9E6F3E091838083128213828F
:1032300014821582EFE6F3E0918380831282138279
:1032400014821582EBE7F3E091838083128213826C
:1032500014821582E5E7F3E0918380831282138262
:1032600014821582E1E8F3E0918380831282138255
:1032700014821582E7E8F3E091838083128213823F
:1032800014821582EAEBF3E0918380831282138229
:1032900014821582E4EBF3E091838083A0ECA28397
:1032A00038EA338328E02483BAE6B583EEEAF3E014
:1032B00091838083A28333832483BDE7B583E8EAC7
:1032C000F3E091838083A28333832483B1E0B583C9
:1032D000E2EAF3E091838083A28333832483B5837E
:1032E000ECE9F3E0918380838FEF8283838384838F
:1032F0001582EDE8F3E013821282448355836683DE
:10330000778388E591E09183808384E0848788EEE9
:1033100093E0968785870895CF93DF93CDB7DEB787
:10332000C254D1090FB6F894DEBF0FBECDBF78945A
:1033300084B5826084BD84B5816084BD85B58260BA
:1033400085BD85B5816085BD80916E00816080936B
:103350006E001092810080918100826080938100D4
:1033600080918100816080938100809180008160E4
:10337000809380008091B10084608093B10080913F
:10338000B00081608093B00080917A008460809367
:103390007A0080917A00826080937A0080917A002E
:1033A000816080937A0080917A00806880937A00AF
:1033B0001092C1000E946315E091CA02F091CB0205
:1033C00082E08083E091C602F091C7021082E09112
:1033D000C802F091C9028FEC80831092D202E09172
:1033E000CE02F091CF0286E08083E091CC02F09192
:1033F000CD02808180618083E091CC02F091CD028A
:10340000808188608083E091CC02F091CD02808140
:1034100080688083E091CC02F091CD0280818F7D25
:1034200080830E946315892B09F04DC082E991E0E9
:103430000E94591286E891E09A83898340919E0305
:1034400050919F036091A0037091A1034B835C8313
:103450006D837E839AAB89AB4091A4035091A50301
:103460006091A6037091A7034BAB5CAB6DAB7EABD9
:1034700098AF8FAB4091AA035091AB036091AC031E
:103480007091AD0349AF5AAF6BAF7CAF9EAF8DAFBC
:103490008091B0039091B103A091B203B091B303B6
:1034A00023968CAF9DAFAEAFBFAF23979E012F5F2A
:1034B0003F4FAE014F5C5F4FBE01695C7F4FCE0155
:1034C000CD960E946E0768EE73E080E090E00E9467
:1034D000F2018AEB91E00E94591268EE73E080E0FD
:1034E00090E00E94F20188E0D82E95E4C92E20E4F5
:1034F000B22EAA24AA9436E8E32E31E0F32E00E09F
:1035000010E08AEB92E00E941E01892B09F481C031
:103510008AEB92E00E94FC00803709F07AC086E0D6
:10352000E2E1F1E0DE01119601900D928A95E1F75A
:1035300086E0E2E0F1E0DE01179601900D928A95B7
:10354000E1F7DD86CF86188A198A1A8A1B8A1C8AB7
:103550001D8A1E8ABF8AA88E198E1A8EE091B0032A
:10356000F0E084E0DE015B9601900D928A95E1F730
:10357000E091B603F0E084E0DE015F9601900D92E9
:103580008A95E1F7DBA21CA21DA21EA21FA218A60B
:1035900019A61AA681E48BA78CE68CA78FE68DA7C7
:1035A00088E68EA781E68FA781E288AB64E170E0B0
:1035B000CE010F960E942704998F8A8F68E070E0F1
:1035C000CE0183960E9427049DA38EA3FAAAE9AA9E
:1035D0008091B6039091B703A091B803B091B9035D
:1035E0008BAB9CABADABBEAB50E040E0BE016F5CC3
:1035F0007F4F8DE893E00E94D409892BB1F48DECC4
:1036000091E00E94591260E177E280E090E00E9430
:10361000F2010115110509F474CF0E942A018823D3
:1036200009F461CF0E9400005ECF40E350E0BE018C
:103630006F5F7F4F8DE893E00E94A00B892B19F4F8
:103640008BEE91E0DECF8DE893E00E94710585E07E
:1036500092E0D7CF8F929F92AF92BF92CF92DF929C
:10366000EF92FF92CF93DF93EC01688179818A8199
:103670009B81611571058105910521F464E279ED65
:103680008BE597E02DE133EF41E050E00E94CE1B47
:1036900049015A019B01AC01A7EAB1E40E94ED1B6C
:1036A0006B017C01ACEEB4EFA50194010E94FB1B01
:1036B000C60ED71EE81EF91EF7FE06C081E0C81A26
:1036C000D108E10880E8F80AC882D982EA82FB8240
:1036D000C701B6019F77DF91CF91FF90EF90DF9008
:1036E000CF90BF90AF909F908F9008958F929F92B0
:1036F000AF92BF92CF92DF92EF92FF92609108015A
:103700007091090180910A0190910B016115710579
:103710008105910521F464E279ED8BE597E02DE1D7
:1037200033EF41E050E00E94CE1B49015A019B015A
:10373000AC01A7EAB1E40E94ED1B6B017C01ACEE89
:10374000B4EFA50194010E94FB1BC60ED71EE81E14
:10375000F91EF7FE06C081E0C81AD108E10880E82A
:10376000F80AC0920801D0920901E0920A01F09291
:103770000B01C701B6019F77FF90EF90DF90CF90CC
:10378000BF90AF909F908F900895609308017093C1
:10379000090180930A0190930B010895052E97FB70
:1037A0001EF400940E94E51B57FD07D00E94001CE8
:1037B00007FC03D04EF40C94E51B509540953095D2
:1037C00021953F4F4F4F5F4F08959095809570958D
:1037D00061957F4F8F4F9F4F08950E94221CA59F98
:1037E000900DB49F900DA49F800D911D11240895FC
:1037F000B7FF0C94ED1B0E94ED1B821B930B0895E9
:10380000A1E21A2EAA1BBB1BFD010DC0AA1FBB1FE4
:10381000EE1FFF1FA217B307E407F50720F0A21B56
:10382000B30BE40BF50B661F771F881F991F1A94C3
:1038300069F760957095809590959B01AC01BD01ED
:10384000CF010895A29FB001B39FC001A39F700D47
:10385000811D1124911DB29F700D811D1124911D98
:103860000895692796276927782787277827089555
:10387000EE0FFF1F0590F491E02D0994FB01DC0190
:1038800004C08D910190801921F441505040C8F737
:10389000881B990B0895DC0101C06D934150504085
:1038A000E0F70895FB01DC0101900D920020E1F7A3
:0638B0000895F894FFCF1B
:1038B60000C0DEADBEEFFEED0100000001005E00BF
:1038C600000074D21DF3AEC7000000008F03660B24
:1038D6002404BF00BB005A0DE107560AF10836055D
:1038E600CE030011AA05420E3B0D1D040D0409046A
:1038F6000504000000006001C000ED00AD011E01DE
:10390600FC00100100000000B003A00B5D0B480B8B
:10391600620C840DF007D40973119E0D71054F05D5
:103926005E045B045904A5034F04D10D070EA70DD1
:103936004B04000000006C120D0A0057495A6E65D0
:1039460074004661696C656420746F20636F6E66EF
:1039560069677572652045746865726E6574207551
:1039660073696E6720444843500045746865726EFB
:10397600657420636F6E6E65637465640046616985
:103986006C656420746F206F70656E2052415720FD
:10399600636F6E6E656374696F6E004661696C6510
:1039A6006420746F20777269746520746F20736F5A
:1039B600636B65740049434D50204563686F205220
:1039C600657175657374207061636B6574207365CA
:0439D6006E742E00DD
:00000001FF
