:100000000C945D000C9485000C9485000C943317BF
:100010000C9433170C9433170C9485000C948500C2
:100020000C9485000C9485000C9485000C9485003C
:100030000C9485000C9485000C9485000C9485002C
:100040000C9491160C9485000C9401170C94DB16FB
:100050000C9485000C9485000C9485000C9485000C
:100060000C9485000C94850000000008000201003B
:100070000003040700000000000000000000000072
:10008000250028002B0000000000240027002A0083
:10009000040404040404040402020202020203032E
:1000A0000303030301020408102040800102040836
:1000B00010200102040810203D1711241FBECFEFAD
:1000C000D8E0DEBFCDBF12E0A0E0B1E0E6EDFAE39C
:1000D00002C005900D92A834B107D9F723E0A8E437
:1000E000B2E001C01D92AB3EB207E1F710E0CDE5F2
:1000F000D0E004C02197FE010E94481DCC35D107F5
:10010000C9F70E94FB170C94691D0C9400008CBD6C
:100110009DBD089590E0FC01EC55FF4F2491805760
:100120009F4FFC018491882399F090E0880F991FDC
:10013000FC01EA57FF4FA591B491FC01E458FF4F31
:10014000859194918FB7F894EC91E22BEC938FBF4B
:10015000089520E3FC0120833296862F82958F70CC
:100160006F706A3030F4605D6293682F8111F5CF53
:100170000895695CF9CFFC01818D928D08950895F1
:100180003FB7F8948091C8029091C902A091CA0229
:10019000B091CB0226B5A89B05C02F3F19F0019660
:1001A000A11DB11D3FBFBA2FA92F982F8827BC01D1
:1001B000CD01620F711D811D911D42E0660F771FF9
:1001C000881F991F4A95D1F708958F929F92AF92F9
:1001D000BF92CF92DF92EF92FF924B015C010E949F
:1001E000C0006B017C010E94C0006C197D098E0962
:1001F0009F09683E734081059105A8F321E0821AAA
:100200009108A108B10888EEC80E83E0D81EE11C51
:10021000F11C81149104A104B10429F7FF90EF901F
:10022000DF90CF90BF90AF909F908F9008952FB7A1
:10023000F8946091C4027091C5028091C6029091B9
:10024000C7022FBF0895AF92BF92CF92DF92EF9275
:10025000FF920F931F93CF93DF936C017B018B0170
:10026000040F151FEB015E01AE18BF08C017D107C0
:1002700059F06991D601ED91FC910190F081E02D4A
:10028000C6010995892B79F7C501DF91CF911F919F
:100290000F91FF90EF90DF90CF90BF90AF900895B7
:1002A000FC01538D448D252F30E0842F90E0821B7C
:1002B000930B541710F0CF96089501970895FC0101
:1002C000918D828D981761F0A28DAE0FBF2FB11D59
:1002D0005D968C91928D9F5F9F73928F90E00895B1
:1002E0008FEF9FEF0895FC01918D828D981731F06B
:1002F000828DE80FF11D858D90E008958FEF9FEFBF
:100300000895FC01918D228D892F90E0805C9F4F94
:10031000821B91098F73992708958AEE92E00E94BB
:10032000810121E0892B09F420E0822F089580E0EB
:1003300090E0892B29F00E948D0181110C9400001E
:100340000895FC01A48DA80FB92FB11DA35ABF4F6A
:100350002C91848D90E001968F739927848FA689C4
:10036000B7892C93A089B1898C91837080648C9318
:10037000938D848D981306C00288F389E02D8081C7
:100380008F7D80830895EF92FF920F931F93CF93F9
:10039000DF93EC0181E0888F9B8D8C8D98131AC0C0
:1003A000E889F989808185FF15C09FB7F894EE89A7
:1003B000FF896083E889F989808183708064808304
:1003C0009FBF81E090E0DF91CF911F910F91FF904F
:1003D000EF900895F62E0B8D10E00F5F1F4F0F73F7
:1003E0001127E02E8C8D8E110CC00FB607FCFACFB2
:1003F000E889F989808185FFF5CFCE010E94A101AE
:10040000F1CFEB8DEC0FFD2FF11DE35AFF4FF08282
:100410009FB7F8940B8FEA89FB8980818062CFCFE8
:10042000CF93DF93EC01888D8823B9F0AA89BB892B
:10043000E889F9898C9185FD03C0808186FD0DC016
:100440000FB607FCF7CF8C9185FFF2CF808185FF37
:10045000EDCFCE010E94A101E9CFDF91CF910895A8
:10046000FC0120812EBD9B012150310941F05181B9
:100470000DB407FEFDCF4EB55EBD4193F5CF615083
:100480007109860F971F0DB407FEFDCF2EB5FC0135
:1004900020830895E0915102F09152028081909161
:1004A0005002892B80830895E0915102F09152020D
:1004B00090818091500280958923808308958EBD1C
:1004C00000000DB407FEFDCF8EB50895AF92BF9228
:1004D000CF92DF92EF92FF920F931F93CF93DF9310
:1004E000CDB7DEB728970FB6F894DEBF0FBECDBFED
:1004F0008C017B016A018091E8028333E1F45801A9
:10050000A40EB51EA016B10609F46FC00E945402D5
:1005100080EF0E945F02812F0E945F02802F0E9465
:100520005F020F5F1F4FF70181917F010E945F0201
:100530000E944A02E7CF5B01A40EB51E8433C1F4CA
:100540000E94540219830A838D2D80688B83CC828C
:1005500064E070E0CE0101960E943002AE14BF0448
:1005600009F441C0F70181917F010E945F02F6CF3B
:100570000E9454020F3F110509F028F419820A83E2
:1005800084E08B830CC017FD17C019820A8333E007
:10059000169507953A95E1F7007E0C600B8386E08F
:1005A000C816D104A0F5F701DE011496EA15FB0583
:1005B00099F081918D93FACFC80126E096958795A1
:1005C0002A95E1F7807E19830A830115104C10F4F7
:1005D0008461D7CF8C61D5CFB6016D5F7F4FCE01DF
:1005E00001960E9430020E944A02C60128960FB668
:1005F000F894DEBF0FBECDBFDF91CF911F910F9159
:10060000FF90EF90DF90CF90BF90AF90089563E0A0
:1006100070E0CE0101960E943002F70181917F01C6
:100620000E945F02AE14BF04C1F7DDCFCF93DF930A
:100630001F92CDB7DEB7898341E050E0BE016F5F06
:100640007F4F90E080E00E9466020F90DF91CF9193
:10065000089590E02091E802233339F40C96982F06
:10066000990F990F990F80E008954896F8CFDA0115
:10067000E0915402F0E0FE2FEE27E60FF71F90E026
:10068000982F8827A901BD018E0F9F1F0C94660229
:10069000CF93DF9300D0CDB7DEB779836A8322E0B2
:1006A00030E0AE014F5F5F4F60E170E00E943703C2
:1006B0000F900F90DF91CF910895CF93DF9300D0EB
:1006C000CDB7DEB779836A8322E030E0AE014F5FB9
:1006D0005F4F64E070E00E9437030F900F90DF914E
:1006E000CF910895CF93DF931F92CDB7DEB72091BE
:1006F000540230E0322F2227260F371F90E0982F28
:100700008827498341E050E0BE016F5F7F4F820F31
:10071000931F0E9466020F90DF91CF910895CF93AF
:10072000DF931F92CDB7DEB76983DC01ED91FC91B9
:100730000280F381E02D41E050E0BE016F5F7F4F0A
:1007400009950F90DF91CF910895CF93DF931F927A
:10075000CDB7DEB76983DC01ED91FC910480F581B2
:10076000E02D41E050E0BE016F5F7F4F09950F9093
:10077000DF91CF910895FC019485FB018485981346
:1007800003C081E0943008F080E00895CF93DF93B8
:100790001F92CDB7DEB76983DC01ED91FC91028039
:1007A000F381E02D41E050E0BE016F5F7F4F09957E
:1007B0000F90DF91CF910895FC01768765870895AA
:1007C000DC01ED91FC91068CF78DE02D099591E00F
:1007D00089270895862F089581E08627089521E0CE
:1007E000FC018485843008F020E0822F089544E0E5
:1007F00050E0BC018FE090E00C9466020895FF92F7
:100800000F931F93CF93DF93EB01FC01178A168A96
:100810002A81211109C02B81211106C02C812111AF
:1008200003C02D81222301F141155105E9F08A0110
:10083000FC01F08C80E591E00E948700AE014E5FE4
:100840005F4F24E030E06CE070E08F2D0E943703B2
:10085000B8018F2D0E94480381E090E0DF91CF9195
:100860001F910F91FF90089580E0F7CFFC018485E0
:1008700095850895FC0184899589089526E831E0DD
:10088000FC0131832083FB0140895189628973898E
:10089000FC0142835383648375830895DC01ED91E9
:1008A000FC91048CF58DE02D099490E080E0089592
:1008B0009B0140E050E0BA01DC01ED91FD91CD01DA
:1008C0004E0F5F1F611D711D22503109223031050D
:1008D00098F7CB01AA27BB2766277727840F951F98
:1008E000A61FB71FAD0166277727840F951FA61F88
:1008F000B71F809590950895FB0101900020E9F7BE
:100900003197AF01461B570BDC01ED91FC91028042
:10091000F381E02D09948F929F92AF92BF92EF9254
:10092000FF920F931F93CF93DF93CDB7DEB7A197BD
:100930000FB6F894DEBF0FBECDBF7C01FA01CB012C
:1009400019A2223008F42AE08E010F5D1F4F822E7B
:10095000912CB12CA12CBF01A50194010E94101D66
:10096000F901CA016A300CF5605DD8016E938D0102
:10097000232B242B252B79F790E080E0109721F092
:10098000BD01C7010E947C04A1960FB6F894DEBF9A
:100990000FBECDBFDF91CF911F910F91FF90EF90D0
:1009A000BF90AF909F908F900895695CDECFCF93FA
:1009B000DF93BC018AEE92E00E947C04EC0164E9C2
:1009C00071E08AEE92E00E947C048C0F9D1FDF9103
:1009D000CF910895DC0186E891E08D939D9384E0AA
:1009E000FB0101900D928A95E1F70895AF92BF92B5
:1009F000CF92DF92EF92FF920F931F93CF93DF93EB
:100A000000D000D0CDB7DEB78C016B017A018091A8
:100A1000E8028333E9F45B016801C40ED51EC016F9
:100A2000D106A9F10E9454028FE00E945F02812F3B
:100A30000E945F02802F0E945F020F5F1F4F80E0C5
:100A40000E945F02F50181935F010E944A02E7CF95
:100A5000843369F50E94540219830A838F2D8F779E
:100A60008B83EC8264E070E0CE0101960E9430023C
:100A7000A70170E060E0C6010E945B1DE114F10473
:100A800021F0B701C6010E9430020E944A02C7014C
:100A90000F900F900F900F90DF91CF911F910F91BA
:100AA000FF90EF90DF90CF90BF90AF9008950E949D
:100AB00054020F3F110509F030F419820A831B829A
:100AC00063E070E0D1CF17FD0BC019820A8333E0D9
:100AD000169507953A95E1F7007E08600B83F0CFF5
:100AE000C80126E0969587952A95E1F7807E1983BF
:100AF0000A830115104C18F480618B83E1CF886163
:100B0000FCCFCF93DF931F92CDB7DEB72091540275
:100B100030E0322F2227260F371F90E0982F8827AA
:100B200041E050E0BE016F5F7F4F820F931F0E9434
:100B3000F60489810F90DF91CF910895CF93C82F4C
:100B4000462F61E070E00E94720361E070E08C2F3C
:100B50000E9481058111F9CFCF910895CF93C82FBD
:100B600080E591E00E94870068E070E08C2FCF91D3
:100B70000C949E05CF93C82F80E591E00E948700DA
:100B800060E170E08C2FCF910C949E05CF93DF93A2
:100B9000EC01888D843020F40E94BA0584E0888FAF
:100BA000DF91CF91089563E070E00C948105CF93BD
:100BB000C82F80E591E00E9487008C2FCF910C9484
:100BC000D305EF92FF920F931F93CF937C0108E41C
:100BD00012E0C0E0F801219131918F01F70182818B
:100BE00093812817390729F0CF5FC43099F780E047
:100BF00006C08C2F0E94D7058431B1F781E0CF91D8
:100C00001F910F91FF90EF900895CF93DF93EC0128
:100C10008C858430D0F40E94D705843189F08823F4
:100C200079F0883169F021E08C3159F4E881F9815B
:100C30000084F185E02DCE01099521E0892B09F48E
:100C400020E0822FDF91CF91089580E0FBCFCF92FB
:100C5000DF92EF92FF92CF93DF93EC018C8584308B
:100C600068F40E94AE050E9417016B017C018C851F
:100C70000E94D705811109C084E08C87DF91CF9154
:100C8000FF90EF90DF90CF90089561E070E080E0FA
:100C900090E00E94E5000E941701AB01BC014C19D5
:100CA0005D096E097F098D859E85B0E0A0E048173B
:100CB00059076A077B07D8F28C850E94BA05DCCFFA
:100CC000CF93FC01C08D80E591E00E94870060E237
:100CD00070E08C2F0E949E0562E070E08C2F0E94D5
:100CE000810584FD16C062E070E08C2F0E948105B2
:100CF00083FF0AC048E162E070E08C2F0E9472031B
:100D000080E090E0CF91089580E591E00E94870017
:100D1000E3CF40E162E070E08C2F0E94720381E03B
:100D2000F0CFCF93DF931F92CDB7DEB741E050E015
:100D3000BE016F5F7F4F90E080E00E94F6048981E2
:100D40000F90DF91CF910895CF93DF93C4E1D0E06E
:100D50000E949106882361F061E070E080E090E0FD
:100D60000E94E5002197A1F780E0DF91CF910895DF
:100D700081E0FBCFDF92EF92FF920F931F93CF930F
:100D8000DF9300D0CDB7DEB760E372E080E090E0A3
:100D90000E94E500DFB6F8940AE910E04EEAE42E7E
:100DA00040E0F42E80915302811142C0F8018491F9
:100DB000F7019491E82FF0E0EE0FFF1FEA57FF4F85
:100DC000A591B4918C91982321F5E2E7F0E084910C
:100DD000F7019491F80124912223D9F0882359F046
:100DE000833009F4A6C008F099C0813009F4A7C087
:100DF000823009F4A8C0E22FF0E0EE0FFF1FE458A4
:100E0000FF4FA591B4918FB7F8942C91922B9C939E
:100E10008FBF8AE00E948A008CB580618CBD8CB542
:100E200080648CBD8DE00E948A008BE00E948A0065
:100E3000809153028F5F80935302DFBEF8010491CB
:100E4000E02FF0E0EE0FFF1FE458FF4F85919491E3
:100E50009093520280935102F701E490E092500285
:100E60008AE00E948A000E944A0280E591E00E9486
:100E7000870084E38093E80280E80E9416030E94C2
:100E8000A406882309F46CC088E00E9416030E941F
:100E90009106883009F064C080E10E9416030E9428
:100EA0009106803109F05CC080E00E9416030E9428
:100EB0009106182F811154C041E050E0BE016F5FD0
:100EC0007F4F8FE190E00E94F6048981833009F022
:100ED00047C080E48093540242E06EE170E0812FCD
:100EE0000E94720342E06FE170E0812F0E94720362
:100EF0001F5F143089F740E06EE170E0812F0E949F
:100F0000720340E06FE170E0812F0E9472031F5F67
:100F1000183089F781E08093E9028CC08730B1F006
:100F20008830D1F0843009F066CF809180008F7DC9
:100F300003C0809180008F77809380005CCF84B560
:100F40008F7784BD58CF84B58F7DFBCF8091B00063
:100F50008F778093B0004FCF8091B0008F7DF9CF15
:100F600087E38093E80280E80E9416030E94A406AB
:100F7000882329F188E00E9416030E949106883098
:100F8000F1F480E10E9416030E949106182F80312F
:100F9000B1F480E00E9416030E94910681110FC0F7
:100FA00041E050E0BE016F5F7F4F89E390E00E9417
:100FB000F6048981843019F410935402ABCF83E393
:100FC0008093E80280E80E9416030E94A40688230A
:100FD00071F180E10E9416030E949106803139F57B
:100FE00082E10E9416030E949106823101F580E0A1
:100FF0000E9416030E949106811119C084E080931B
:10100000540215E51A8341E050E0BE016E5F7F4F48
:101010008BE190E00E946602198341E050E0BE013E
:101020006F5F7F4F8AE190E00E94660273CF10925B
:10103000E80280E00F900F90DF91CF911F910F9108
:10104000FF90EF90DF900895CF92DF92EF92FF92A2
:101050000F931F93CF93DF937C016B01EA0189010A
:101060008091E9028823C1F180E591E00E94870028
:1010700046E050E062E071E089E090E00E946602A4
:10108000C70102960E94F703BE016E5F7F4F44E0E6
:1010900050E081E090E00E946602B8016E5F7F4FF1
:1010A00044E050E085E090E00E946602F601828113
:1010B0009381A481B5818093AD039093AE03A093F7
:1010C000AF03B093B003DF91CF911F910F91FF90C9
:1010D000EF90DF90CF9008950E94BA06882399F38D
:1010E000C3CF1F93CF93DF931F92CDB7DEB7182FD7
:1010F00080E591E00E948700812F0E94290327E06C
:10110000129FF0011124E453FD4F22813381377087
:1011100041E050E0BE016F5F7F4F820F931F0E943E
:10112000F60489810F90DF91CF911F910895FC0102
:10113000808D843040F4218D328D232B21F00E944C
:10114000710890E008958FEF9FEF0895CF93DF939C
:10115000FC012485243028F08FEF9FEFDF91CF91A1
:101160000895EC010190F081E02D0084F185E02DDF
:101170000995892B89F38C850E94710890E0EECF48
:10118000DA01E0915402F0E0FE2FEE27E60FF71FA0
:1011900090E0982F8827A901BD018E0F9F1F0C9406
:1011A000F6048F929F92AF92BF92CF92DF92EF920E
:1011B000FF921F93CF93DF93CDB7DEB72C970FB677
:1011C000F894DEBF0FBECDBF2091E80214E02223C9
:1011D00029F16B017C0180E591E00E9487005E01AE
:1011E00027E0A20EB11C450110E0812F0E94D3051B
:1011F000F40181934F01882349F11F5F1430A9F74F
:1012000010E0F50181915F018D31D9F08831C9F08D
:101210008A518230B0F01F5F143099F7812F2C96DD
:101220000FB6F894DEBF0FBECDBFDF91CF911F91F7
:10123000FF90EF90DF90CF90BF90AF909F908F90F6
:10124000089560E170E0812F0E949E05A12EB12CCF
:1012500083EE93E00197F1F742E870E060E0812FC0
:101260000E9472034FEF62E070E0812F0E947203D0
:10127000B601C114D10491F4809100019091010153
:1012800001968115F0EC9F0708F45CC09093010172
:10129000809300016091000170910101812F0E94F3
:1012A0005D0386E0ECE0F1E0DE01119601900D9225
:1012B0008A95E1F7F70183818F778C8384818D8311
:1012C00085818E83A7014E5F5F4F24E030E06CE0A4
:1012D00070E0812F0E943703B601812F0E944803DE
:1012E00026E030E0AE014F5F5F4F66E070E0812F97
:1012F0000E94370361E070E0812F0E949E0527E085
:101300002A9DC0012B9D900D11249C0124533D4F1B
:101310007901F9011182108222E030E0AE01455FCF
:101320005F4F68E270E0812F0E94C0088B859C852A
:10133000982789279827F70193838283168215823D
:1013400014826CCF80E090ECA1CFCF92DF92EF922D
:10135000FF920F931F93CF93DF9300D000D000D064
:10136000CDB7DEB78C016B017A01FC01808D843032
:1013700010F40E94BA0586E891E09A838983F60109
:1013800082819381A481B5818B839C83AD83BE834D
:10139000B701CE0101960E94D108F801808F8430F8
:1013A000A0F4F586E486128E118E81E026960FB6A3
:1013B000F894DEBF0FBECDBFDF91CF911F910F918B
:1013C000FF90EF90DF90CF90089580E0EFCF7F9275
:1013D0008F929F92AF92BF92CF92DF92EF92FF9245
:1013E0000F931F93CF93DF9300D0CDB7DEB7782E46
:1013F0008B014A01590122E030E0AE014F5F5F4F9F
:1014000064E270E00E94C008E980FA80FE24EF24C4
:10141000FE24E00EF11E970137704091E802072D7F
:1014200010E0433309F042C0085F1F4F102F002720
:10143000110F110F110FC901800F911F4733C9F10F
:10144000A9014A0D5B1D4130584098F160E078E0F9
:101450006B01C21AD30AA601B4010E946602A5015B
:101460004C195D09B4016C0D7D1DC8010E94660216
:10147000EA0CFB1CF982EA8222E030E0AE014F5F09
:101480005F4F64E270E0872D0E9437030F900F904A
:10149000DF91CF911F910F91FF90EF90DF90CF9050
:1014A000BF90AF909F908F907F900895005F1F4FE7
:1014B000BDCFA501B401DACFEF92FF921F93CF9376
:1014C000DF9300D0CDB7DEB7182F22E030E0AE01B9
:1014D0004F5F5F4F60E270E00E94C008E980FA80D1
:1014E000FE24EF24FE2422E030E0AE014F5F5F4F88
:1014F00060E270E0812F0E94C00889819A8198275C
:1015000089279827E816F90689F487E0189FF001E3
:101510001124E453FD4FF582E482C7010F900F9030
:10152000DF91CF911F91FF90EF9008957C01DBCF69
:101530001F93CF93DF93182F80E591E00E948700DF
:10154000812F0E945C0AEC01812F0E94D305873114
:1015500021F08C3111F0D0E0C0E0CE01DF91CF91CD
:101560001F910895CF93DF93EC018C85843060F454
:101570000E94D705873111F08C3131F48C850E949F
:10158000980A8115984088F3DF91CF910895FC0166
:101590008485843010F40C94980A90E080E00895DB
:1015A000CF92DF92EF92FF921F93CF93DF93182F8A
:1015B0007B01EA014130584010F0C0E0D8E080E5FE
:1015C00091E00E948700812F0E945C0A6C01812FAC
:1015D0000E94D305873111F08C3121F5CC16DD0640
:1015E00070F380E591E00E9487009E01A70170E002
:1015F00060E0812F0E94E70960E270E0812F0E9485
:101600009E0562E070E0812F0E94810584FD0DC07F
:10161000812F0E94D3058823B9F080E591E00E94D4
:101620008700EFCFD0E0C0E0DCCF40E162E070E0C7
:10163000812F0E947203CE01DF91CF911F91FF9005
:10164000EF90DF90CF900895D0E0C0E0F4CF0F93FB
:101650001F93CF93DF938C01EA01FC0184858430D2
:1016600048F40E94D00A892B39F481E090E0F80117
:1016700093838283D0E0C0E0CE01DF91CF911F91B0
:101680000F9108959F92AF92BF92CF92DF92EF9207
:10169000FF920F931F93CF93DF938C015B01942EE6
:1016A000E52EFC01C688D788F08C80E591E00E9489
:1016B00087008F2D0E945C0AC92DDE2D8C179D0797
:1016C00008F4EC019E01A501B6018F2D0E94E709E7
:1016D000F801868997898C0F9D1F978B868BCE0189
:1016E000DF91CF911F910F91FF90EF90DF90CF90FE
:1016F000BF90AF909F900895FF920F931F93CF9349
:10170000DF9300D0CDB7DEB7F82E22E030E0AE0197
:101710004F5F5F4F66E270E00E94C00809811A8146
:1017200010270127102722E030E0AE014F5F5F4F06
:1017300066E270E08F2D0E94C00889819A81982707
:10174000892798270817190749F4C8010F900F90A7
:10175000DF91CF911F910F91FF9008958C01E3CFFE
:101760001F93CF93DF93182F87E0189FE001112478
:10177000C453DD4F88819981009761F480E591E041
:101780000E948700812F0E947C0B2E81821B910971
:1017900099838883DF91CF911F910895AF92BF9273
:1017A000CF92DF92EF92FF920F931F93CF93DF932D
:1017B000EC017B018091E802811120C01B821A821A
:1017C00088EE93E0A0E0B0E08C839D83AE83BF837E
:1017D00086E191E09983888384E08C8788EE93E0AA
:1017E0009E878D87CE01DF91CF911F910F91FF9042
:1017F000EF90DF90CF90BF90AF90089588E4C82E0F
:1018000082E0D82E10E094E0B92EA12CD6012D91C3
:101810003D916D01F701828193812817390791F479
:10182000812F0E94D705082F873111F08C3139F5AF
:10183000812F0E94B00B892B59F50C3119F4812F9F
:101840000E94AE051F5F143009F7A11008C0D70130
:10185000ED91FC910190F081E02DC70109951B826B
:101860001A8288EE93E0A0E0B0E08C839D83AE8383
:10187000BF8386E191E099838883BC86AFCF8431B2
:1018800049F08111DFCFF601329711821082DACF51
:10189000B12ED8CFAA24A394D5CF8F929F92AF9286
:1018A000BF92CF92DF92EF92FF921F93CF93DF937D
:1018B000CDB7DEB72F970FB6F894DEBF0FBECDBF02
:1018C0005C014B017A018091E8028823A1F1B50106
:1018D000CE0101960E94CE0B88E4C82E82E0D82E5D
:1018E00010E0F601219131916F01F5018281938120
:1018F0002817390751F4812F0E94D705873129F421
:10190000A701B401812F0E94D00A1F5F143049F74C
:10191000C7012F960FB6F894DEBF0FBECDBFDF9183
:10192000CF911F91FF90EF90DF90CF90BF90AF903D
:101930009F908F900895F12CE12CEACFFC018485D3
:10194000843010F40C94B00B90E080E008954F9236
:101950005F927F928F929F92AF92BF92CF92DF92CF
:10196000EF92FF920F931F93CF93DF9300D0CDB7E9
:10197000DEB7782E6B014A01A82EB12C27E0829F9A
:10198000C0011124FC01E453FD4F7F01008111814E
:1019900080E591E00E9487000815190554F4872D11
:1019A0000E947C0BF70126818C01021B1109118317
:1019B00000830115110519F5872D0E94D305843187
:1019C00059F0882349F001E010E08C3111F410E067
:1019D00000E0119501951109C8010F900F90DF915A
:1019E000CF911F910F91FF90EF90DF90CF90BF901C
:1019F000AF909F908F907F905F904F90089580164A
:101A000091060CF4840187E08A9DF0018B9DF00D16
:101A10001124E453FD4FE280F380C114D10451F14D
:101A20002701F7E05F22872D0E942903840D951D71
:101A30002091E802273309F453C09801240D351D85
:101A40002130384008F44CC020E038E049018418C7
:101A50009508A401B6010E94F6042601480C591C01
:101A60006801C818D908872D0E942903A601B20170
:101A70000E94F604E00EF11E87E08A9DF0018B9D26
:101A8000F00D1124E453FD4FF382E2822081318175
:101A9000201B310B318320838681800F912F911D74
:101AA0008A3F910510F4232BF1F487E08A9DF00121
:101AB0008B9DF00D1124E453FD4F1682F982EA82CA
:101AC00022E030E0AE014F5F5F4F68E270E0872DAB
:101AD0000E94370360E470E0872D0E949E057CCF52
:101AE000A801B601C5CF868377CFCF93DF93FC01E2
:101AF000218D328D2115310529F48FEF9FEFDF9174
:101B0000CF910895EC01808D4217530708F0A90189
:101B10000E94A70C1816190684F7298D3A8D281BE8
:101B2000390B3A8F298FEBCF0F931F93CF93DF930E
:101B30001F92CDB7DEB7FC01218D328D232B41F4EE
:101B40008FEF9FEF0F90DF91CF911F910F9108952D
:101B50008C0141E050E0BE016F5F7F4FFC01808D42
:101B60000E94A70C181619065CF7F801818D928D5A
:101B70000197928F818F898190E0E4CF0F931F931B
:101B8000CF93DF93CDB7DEB728970FB6F894DEBFBB
:101B90000FBECDBF8C01D80159964D915C915A97DB
:101BA0004115510551F0ED91FC91048CF58DE02D1E
:101BB00070E060E0C8010995EECFF801808D0E94C9
:101BC000B00B892BB1F148E050E0BE016F5F7F4F51
:101BD000D80158968C910E94A70C18161906F4F497
:101BE000D801509684E0FE01319601900D928A95BD
:101BF000E1F78D8190E0982F88272E81820F911D2B
:101C0000F801958B848B8F81282F30E0322F22278B
:101C10008885820F932F911D928F818F28960FB602
:101C2000F894DEBF0FBECDBFDF91CF911F910F9112
:101C3000089590E080E0F2CFCF93DF931F92CDB76D
:101C4000DEB741E050E0BE016F5F7F4FFC0184854D
:101C50000E94A70C1816190634F4898190E00F90A1
:101C6000DF91CF9108958FEF9FEFF9CFFC0184852D
:101C7000843010F40C94A70C90E080E00895AF92AB
:101C8000BF92CF92DF92EF92FF920F931F93CF9369
:101C9000DF9300D000D000D0CDB7DEB79091E8023E
:101CA00014E0992329F16B01082F80E591E00E944F
:101CB00087009E012F5F3F4F7901590110E0812F6E
:101CC0000E94D305F50181935F01882341F11F5FD5
:101CD0001430A9F710E0F70191917F019D31D1F007
:101CE0009831C1F09A519230A8F01F5F143099F7E3
:101CF000812F26960FB6F894DEBF0FBECDBFDF91C1
:101D0000CF911F910F91FF90EF90DF90CF90BF90F8
:101D1000AF90089560E170E0812F0E949E05E12E52
:101D2000F12C83EE93E00197F1F7402F70E060E033
:101D3000812F0E9472034FEF62E070E0812F0E94BA
:101D40007203B601CD2889F48091000190910101C0
:101D500001968115F0EC9F0798F190930101809313
:101D600000016091000170910101812F0E945D03CB
:101D700061E070E0812F0E949E0527E02E9DC0014A
:101D80002F9D900D11249C0124533D4F7901F901A1
:101D90001182108222E030E0AE014B5F5F4F68E2BB
:101DA00070E0812F0E94C0088D819E81982789272D
:101DB0009827F7019383828316821582148298CF25
:101DC00080E090ECCACF0F931F93CF93DF93EC0189
:101DD0008B01888D843010F40E94BA05B80182E02E
:101DE0000E943F0E888F843050F41D870C871A8E16
:101DF000198E81E0DF91CF911F910F91089580E0BE
:101E0000F9CF4F925F926F927F928F929F92AF9293
:101E1000BF92CF92DF92EF92FF920F931F93CF93D7
:101E2000DF93CDB7DEB763970FB6F894DEBF0FBE72
:101E3000CDBF7C016B013A01FB0120E090E080E026
:101E40006AE03191332309F461C040ED430F4A3019
:101E500008F04DC0689FA001699F500D1124CA0170
:101E6000C097830F911D37FD9A958F3F910549F3D8
:101E700040F3F70142815381648175818091B903F8
:101E80009091BA03A091BB03B091BC0348175907C6
:101E90006A077B0709F40DC28701085F1F4F0E9484
:101EA00017016F7077277C5FC8010E94E30E8130B5
:101EB00009F004C286E891E09A838983F701828160
:101EC0009381A481B5818B839C83AD83BE8345E3DD
:101ED00050E0BE016F5F7F4FC8010E94FF03892B56
:101EE000A9F5D12CC12CC8010E94C60517C03E32ED
:101EF00009F0BFCF233009F4BCCFD301A20FB11D2D
:101F000012968C932F5F90E080E09BCF233009F0F6
:101F1000B0CFF3018583CC24C394D12CC601639642
:101F20000FB6F894DEBF0FBECDBFDF91CF911F91EA
:101F30000F91FF90EF90DF90CF90BF90AF909F9068
:101F40008F907F906F905F904F9008950E9417013F
:101F5000F7017783668342E050E0B7016A5F7F4F05
:101F6000C8010E94420B81E090E09A83898342E09D
:101F700050E0BE016F5F7F4FC8010E94420B80E0BE
:101F800091E09A83898342E050E0BE016F5F7F4F0A
:101F9000C8010E94420B1A82198242E050E0BE0141
:101FA0006F5F7F4FC8010E94420B42E050E0BE01CC
:101FB0006F5F7F4FC8010E94420B42E050E0BE01BC
:101FC0006F5F7F4FC8010E94420B5601F60180816E
:101FD000882301F16501F60181912F01882311F019
:101FE0008E32B1F446018A189B081814190474F44F
:101FF0008D8641E050E0BE01635F7F4FC8010E94C3
:10200000420BA401B501C8010E94420B5201DECF70
:102010006201E1CF1D8641E050E0BE01635F7F4F6A
:10202000C8010E94420BC12CDD24D394DA82C982FC
:1020300042E050E0BE016F5F7F4FC8010E94420B3B
:10204000DA82C98242E050E0BE016F5F7F4FC80173
:102050000E94420BC8010E946006892B09F441CFFF
:10206000F3E0AF2EB12C230122E0420E511CD4C06C
:10207000F7014281538164817581808D918DA28D9C
:10208000B38D481759076A077B0709F008C1848D8B
:10209000958DC59709F003C181A192A15DEFC52E71
:1020A000DD24DA940C970CF4ADC04CE050E0BE0196
:1020B0006F5F7F4FC8010E94750D8B819C819827AF
:1020C000892798279A8B898BF70146815781298127
:1020D0003A814217530709F0E7C097FFE5C08F70B8
:1020E00092703BEFC32EDD24DA94892B09F08AC06D
:1020F0006F8078847624672476242AEFC22EDD242C
:10210000DA946114710409F47DC0D12CC12C8D8145
:102110009E81982789279827C816D906F8F441E0A8
:1021200050E0BE01635F7F4FC8010E94750D4D8571
:10213000442331F050E070E060E0C8010E94750D6A
:102140008D858111ECCF44E050E070E060E0C80183
:102150000E94750DFFEFCF1ADF0AD9CF912C812C89
:1021600041E050E0BE016D5E7F4FC8010E94750DD9
:102170004B89842F807C09F06CC0442331F050E0FF
:1021800070E060E0C8010E94750D8B898111E8CF75
:1021900042E050E0BE01615F7F4FC8010E94750DB3
:1021A00042E050E0BE01635F7F4FC8010E94750DA1
:1021B00044E050E070E060E0C8010E94750D42E02C
:1021C00050E0BE016F5E7F4FC8010E94750D8F8584
:1021D000988949895A898115914009F043C0CD8475
:1021E000DE84DC24CD24DC2481E0C816D104D1F5C2
:1021F0004115544009F04AC044E050E0B201C80122
:102200000E94750D21E0A21AB10809F46CCEFFEF0F
:10221000CF16DF0609F067CE0E9417013B014C0183
:10222000C8010E94BE0D181619060CF421CF0E9499
:102230001701661977098809990969387341810579
:10224000910548F562E370E080E090E00E94E500CF
:10225000E7CF41E050E070E060E0C8010E94750DFA
:102260001B8A93CF54274527542770E060E0C801AC
:102270000E94750DFFEF8F1A9F0A6814790409F008
:102280006FCF96EFC92EDD24DA94BCCFE7EFCE2EC8
:10229000DD24DA94B7CFCC24CA94DC2CB3CF6EEF14
:1022A000C62EDD24DA94AECF4CEFC42EDD24DA94B2
:1022B000A9CF8EEFC82EDD24DA9430CED12CC12CDC
:1022C0002DCECF92DF92EF92FF920F931F93CF9379
:1022D000DF93CDB7DEB7AF970FB6F894DEBF0FBE72
:1022E000CDBF7C016A0106E811E01A8309831C86D0
:1022F0001B8688EE93E0A0E0B0E08D879E87AF87D5
:10230000B88B84E491E09A878987188F0F8B198E98
:102310001A8E1B8E1C8E84E089A31BA70AA71CA6FD
:102320001DA61EA61FA68091AD039091AE03A0919D
:10233000AF03B091B0038EA39FA3A8A7B9A78B83C7
:102340009C83AD83BE8318861F82AE01465D5F4FBE
:10235000CE0101960E94010F81309105B1F4D701A1
:10236000ED91FC910488F589E02D1DA30CA38CA5AB
:102370009DA5AEA5BFA58EA39FA3A8A7B9A7A6019B
:10238000BE016C5D7F4FC7010995AF960FB6F894FB
:10239000DEBF0FBECDBFDF91CF911F910F91FF9098
:1023A000EF90DF90CF900895CF92DF92EF92FF925F
:1023B0000F931F93CF93DF93CDB7DEB7AF970FB6D1
:1023C000F894DEBF0FBECDBF8C016B017A0186E8A9
:1023D00091E09A8389831B821C821D821E821C8647
:1023E0001B8648EE53E060E070E04D875E876F87A4
:1023F000788B24E431E03A872987988F8F8B198E68
:102400001A8E1B8E1C8E24E029A39BA78AA71CA6CC
:102410001DA61EA61FA6D8011C968C91843060F4C0
:102420000E94D705882321F0F80184850E94AE051B
:1024300084E0D8011C968C938091AD039091AE03FB
:10244000A091AF03B091B0038EA39FA3A8A7B9A793
:102450008B839C83AD83BE8318861F82AE01465D4D
:102460005F4FB601CE0101960E94010F0097C1F0A7
:10247000D801ED91FC910684F785E02D86E891E086
:102480009DA38CA38CA59DA5AEA5BFA58EA39FA340
:10249000A8A7B9A7A701BE016C5D7F4FC801099528
:1024A000AF960FB6F894DEBF0FBECDBFDF91CF91D0
:1024B0001F910F91FF90EF90DF90CF9008950F93B1
:1024C0001F93CF938C01FC016281738183E00E9492
:1024D0003F0EC82F8430F8F480E591E00E94870019
:1024E0008C2F0E94D305833131F08C2FCF911F9117
:1024F0000F910C94AE0562E070E08C2F0E949E0557
:10250000F80182819381EC2FF0E0EE0FFF1FE85B72
:10251000FD4F91838083CF911F910F910895CF92AA
:10252000DF92EF92FF921F93CF93DF93EC017B0139
:102530006A018C85843048F40E94D705882319F0FD
:102540008C850E94AE0584E08C87F701828193819F
:10255000A481B5810097A105B10551F490E080E018
:10256000DF91CF911F91FF90EF90DF90CF90089572
:102570008F3F9F4FAF4FBF4F89F370E060E081E224
:102580000E943F0E182F8C87843040F780E591E041
:102590000E948700A7014E5F5F4F24E030E06CE0AF
:1025A00070E0812F0E943703B601812F0E944803FB
:1025B00064E070E0812F0E949E050E9417016B016C
:1025C0007C018C850E94D705873111F18C3101F196
:1025D000882321F20E941701AB01BC014C195D094F
:1025E0006E097F098D859E85B0E0A0E08417950770
:1025F000A607B70738F061E070E080E090E00E9445
:10260000E500DFCF8C850E94BA0584E08C87A6CFD9
:1026100081E090E0A5CF0F931F93CF93DF9300D07D
:10262000CDB7DEB7FC0124852430E0F48C0180E5D1
:1026300091E00E94870022E030E0AE014F5F5F4FE3
:1026400060E170E0F80184850E94C00889819A8168
:102650009827892798270F900F90DF91CF911F918E
:102660000F91089590E080E0F6CFEF92FF920F93E4
:102670001F93CF93DF9300D000D0CDB7DEB78C018E
:102680007B01FB0184858430A8F086E891E0F801A5
:10269000918380831282138214821582C8010F9065
:1026A0000F900F900F90DF91CF911F910F91FF909E
:1026B000EF90089580E591E00E94870024E030E0EB
:1026C000AE014F5F5F4F6CE070E0F70184850E94C0
:1026D000C008BE016F5F7F4FC8010E94EA04DECFD1
:1026E0000F931F93CF93DF9300D0CDB7DEB7FC01DC
:1026F00024852430E0F48C0180E591E00E9487007D
:1027000022E030E0AE014F5F5F4F64E070E0F8011F
:1027100084850E94C00889819A81982789279827F3
:102720000F900F90DF91CF911F910F91089590E03E
:1027300080E0F6CF8F929F92AF92BF92CF92DF92BE
:10274000EF92FF920F931F93CF93DF937C01EB01E6
:102750006C0182E0C80ED11C4701E5E08E0E911C91
:1027600010E000E0F60141916F0150E070E060E0A0
:102770002AE0CE010E948B045C01E881F98101907E
:10278000F081E02D6EE2CE0109958A0D9B1D080FA8
:10279000191FC814D90431F7F701458150E070E0E2
:1027A00060E02AE0CE010E948B04800F911FDF9130
:1027B000CF911F910F91FF90EF90DF90CF90BF903E
:1027C000AF909F908F9008953F924F925F926F923B
:1027D0007F928F929F92AF92BF92CF92DF92EF92B1
:1027E000FF920F931F93CF93DF93CDB7DEB7EA9796
:1027F0000FB6F894DEBF0FBECDBF7C012A013B01AE
:1028000069010E9417014B015C0187010D5B1F4F9D
:10281000C8010E94BE0D181619069CF00E941701EF
:10282000681979098A099B094616570668067906C8
:1028300008F466C162E370E080E090E00E94E50089
:10284000E7CF42E250E0BE016F5F7F4FC8010E94B8
:10285000750D89818230D1F0312C832DEA960FB627
:10286000F894DEBF0FBECDBFDF91CF911F910F91C6
:10287000FF90EF90DF90CF90BF90AF909F908F90A0
:102880007F906F905F904F903F900895F8018489FA
:1028900095898334910501F76D817E818F819885BB
:1028A0000E94411D4B015C01F60180829182A2824F
:1028B000B38246E050E0B701685F7F4FCE014D968E
:1028C0000E944E1D892B41F6F70180819181A281E2
:1028D000B38188169906AA06BB0608F4BDCF848189
:1028E0009581A681B78188159905AA05BB0508F4CD
:1028F000B3CF89899A89AB89BC8986879787A08B52
:10290000B18B4EEC50E070E060E0C8010E94750DA4
:10291000312CC701829698AB8FA7F701B696FAAB18
:10292000E9AB08969CAB8BAB67019AE1C90ED11C51
:10293000BD96FEABEDABC701429698AF8FABFD974E
:10294000FAAFE9AF4701FEE18F0E911CF801818DCE
:10295000928D181619060CF080CFC8010E94940DB4
:102960008333910509F4B2C014F58130910509F45F
:1029700064C044F4892B51F3C8010E94940DAC014A
:10298000552775C08330910509F462C00697A1F7F9
:10299000C8010E94940DB82E44E050E0B401C80173
:1029A0000E94750DEB2DE450FF0BAF0160C08A3320
:1029B000910509F45FC084F585339105B1F1C6979F
:1029C000D9F6C8010E94940D5C01B601CE0189962A
:1029D0000E94EA048BA59CA5ADA5BEA5892B8A2BD8
:1029E0008B2BB1F0EDA9FEA94080518062807380ED
:1029F000B601CE0183960E94EA048DA19EA1AFA1EB
:102A0000B8A5A501481659066A067B0609F0B8CF95
:102A100044E050E0B60118C08B33910509F440C082
:102A20008F3F910509F492CFA7CFC8010E94940D62
:102A3000C8010E94940D382E89CFC8010E94940DC0
:102A400044E050E06FA978ADC8010E94750D7ECFBB
:102A5000C8010E94940DB82E44E050E069AD7AADF3
:102A6000C8010E94750D8B2D8450990BAC0170E04C
:102A700060E0EACFC8010E94940D44E050E069A9EB
:102A80007AA9C8010E94750DF70166A177A180A5FA
:102A900091A50E94411D66A377A380A791A756CF59
:102AA000C8010E94940D44E050E06BA97CA9C801C4
:102AB0000E94750DF70162A573A584A595A50E94D6
:102AC000411D62A773A784A795A740CFC8010E94A4
:102AD000940D44E050E06FA578A9C8010E94750DDF
:102AE000F70162A173A184A195A10E94411D62A377
:102AF00073A384A395A366A777A780AB91AB26CFDA
:102B000033243A94AACE7F928F929F92AF92BF9233
:102B1000CF92DF92EF92FF920F931F93CF93DF93A9
:102B2000CDB7DEB7A6970FB6F894DEBF0FBECDBF08
:102B30008C01762E942E852E20E2A22ECE010196B7
:102B40007C01DC01EA2D1D92EA95E9F76801F3E4C6
:102B5000CF0ED11C86E891E09AA389A38FEF8BA3B7
:102B60008CA38DA38EA343E450E0BE016F5D7F4F25
:102B7000C6010E94FF03019609F4BFC081E089836A
:102B80008A8386E0B82EBB821C82D80114966D9190
:102B90007D918D919C9117970E94411D6D837E833D
:102BA0008F83988789869A8680E890E09C878B87B8
:102BB0004CE150E0B701C6010E94420BFE0137967E
:102BC0008AE1DF011D928A95E9F74801B8E08B0E92
:102BD000911CF401D70101900D92BA94E1F740E104
:102BE00050E0B701C6010E94420BF7011192AA946E
:102BF000E9F796E0A92EB12C40E250E0B701C601FA
:102C00000E94420BF1E0AF1AB108B1F783E6898365
:102C100092E89A8393E59B838C8385E38D8381E09F
:102C20008E837F829DE3988797E099878A8786E0E5
:102C3000F401DE011B9601900D928A95E1F78CE07C
:102C4000898B8A8B67E971E0CE0143960E94621DF1
:102C5000D8011B966C91CE0149960E94A900F801FB
:102C60006485CE014B960E94A900D8011D966C91F7
:102C7000CE014D960E94A9004EE150E0B701C60179
:102C80000E94420BB3E07B121EC082E3898384E082
:102C90008A83F80196859B8397859C8390899D8381
:102CA00091899E8396E39F838887828D8987838D10
:102CB0008A87848D8B87858D8C874CE050E0B701A7
:102CC000C6010E94420B87E3898386E08A8391E0F4
:102CD0009B8393E09C838D838FE08E838AE38F8335
:102CE0008BE388878FEF898749E050E0B701C60101
:102CF0000E94420BC6010E946006A6960FB6F89489
:102D0000DEBF0FBECDBFDF91CF911F910F91FF901E
:102D1000EF90DF90CF90BF90AF909F908F907F907B
:102D200008951F920F920FB60F9211242F933F9385
:102D30008F939F93AF93BF938091C4029091C502EC
:102D4000A091C602B091C7023091C30223E0230FC5
:102D50002D3758F50196A11DB11D2093C302809314
:102D6000C4029093C502A093C602B093C70280919B
:102D7000C8029091C902A091CA02B091CB020196FB
:102D8000A11DB11D8093C8029093C902A093CA02ED
:102D9000B093CB02BF91AF919F918F913F912F91B3
:102DA0000F900FBE0F901F90189526E8230F0296E4
:102DB000A11DB11DD2CF1F920F920FB60F921124F9
:102DC0002F933F934F935F936F937F938F939F9333
:102DD000AF93BF93EF93FF938AEE92E00E94A1011D
:102DE000FF91EF91BF91AF919F918F917F916F91E3
:102DF0005F914F913F912F910F900FBE0F901F90B9
:102E000018951F920F920FB60F9211242F938F9344
:102E10009F93EF93FF93E091FA02F091FB02808180
:102E2000E0910003F091010382FD1BC0908180912D
:102E300003038F5F8F7320910403821741F0E091A9
:102E40000303F0E0E651FD4F958F80930303FF915C
:102E5000EF919F918F912F910F900FBE0F901F9028
:102E600018958081F4CF1F920F920FB60F92112404
:102E70000F900FBE0F901F901895EAEEF2E01382AC
:102E8000128288EE93E0A0E0B0E084839583A6836D
:102E9000B78384E791E09183808385EC90E0958708
:102EA000848784EC90E09787868780EC90E0918B14
:102EB000808B81EC90E0938B828B82EC90E0958B01
:102EC000848B86EC90E0978B868B118E128E138EFE
:102ED000148EE7E8F3E086E891E091838083128224
:102EE000138214821582EDE8F3E0918380831282CD
:102EF000138214821582E3E9F3E0918380831282C6
:102F0000138214821582E9E9F3E0918380831282AF
:102F1000138214821582EFE9F3E091838083128299
:102F2000138214821582E5EAF3E091838083128292
:102F3000138214821582E1EBF3E091838083128285
:102F4000138214821582EBEAF3E09183808312826C
:102F5000138214821582E7EBF3E09183808312825F
:102F6000138214821582EDEBF3E091838083128249
:102F7000138214821582E5EEF3E09183808312823E
:102F8000138214821582EFEDF3E09183808340EC8D
:102F9000428338EA338328E024835AE65583E9EDF7
:102FA000F3E0918380834283338324835DE75583F9
:102FB000E3EDF3E09183808342833383248351E004
:102FC0005583EDECF3E09183808342833383248344
:102FD0005583E7ECF3E0918380838FEF82838383D3
:102FE00084831582E3ECF3E08CE891E091838083A5
:102FF000138212820895CF93DF93CDB7DEB7CB54FF
:10300000D1090FB6F894DEBF0FBECDBF789484B55A
:10301000826084BD84B5816084BD85B5826085BDD4
:1030200085B5816085BD80916E00816080936E0062
:103030001092810080918100826080938100809154
:103040008100816080938100809180008160809305
:1030500080008091B10084608093B1008091B000C5
:1030600081608093B00080917A00846080937A00C0
:1030700080917A00826080937A0080917A008160EA
:1030800080937A0080917A00806880937A00109211
:10309000C1008091B70281112AC010929F02109244
:1030A0009E0288EE93E0A0E0B0E08093A0029093AF
:1030B000A102A093A202B093A30284E491E09093B2
:1030C0009D0280939C0286E891E09093AB028093EE
:1030D000AA021092AC021092AD021092AE021092AF
:1030E000AF0284E08093B40281E08093B70289E567
:1030F00092E090935802809357028091E9028823CE
:1031000009F455C180E591E00E94870046E050E057
:1031100062E071E089E090E00E94660286E891E05A
:103120009A8389831B821C821D821E82CE01039694
:103130000E94F70310927B0210927C0210927D0293
:1031400010927E0210927F021092800210928102F1
:1031500010928202109283021092840210928502D1
:103160001092860280E69AEEA0E0B0E080938F0293
:1031700090939002A0939102B093920280EA9FE014
:10318000A0E0B0E08093930290939402A093950204
:10319000B0939602E7E6F2E084E1DF011D928A95A2
:1031A000E9F786E0E2E0F1E0A1E6B2E001900D92FD
:1031B0008A95E1F710929B020E94861C2FEC37E063
:1031C00040E050E00E94DE1CDC01CB010196A11D15
:1031D000B11D80935D0290935E02A0935F02B09355
:1031E00060028093590290935A02A0935B02B093BD
:1031F0005C028CE992E00E94C60564E470E08CE910
:1032000092E00E94E30E882309F4D5C00E941701C2
:103210004B015C01A8EE4A2EA3E05A2E612C712CC2
:10322000B4E8CB2EB3E0DB2EE12CF12C12E0312EF2
:1032300010E000E080919B02833009F43FC08111CF
:103240001AC280915D0290915E02A0915F02B091DE
:1032500060020196A11DB11D80935D0290935E02F4
:10326000A0935F02B09360020E9417016819790968
:103270008A099B09A30192010E94101DA90161E026
:1032800089E592E00E94831581E080939B020130E2
:10329000110581F20E941701681979098A099B09B1
:1032A00020918F02309190024091910250919202B0
:1032B000261737074807590708F0BACF8CE992E07C
:1032C0000E94C60580915D0290915E02A0915F020E
:1032D000B09160020196A11DB11D80935D02909393
:1032E0005E02A0935F02B09360020E941701609398
:1032F0009702709398028093990290939A020130FA
:10330000110509F058C080E591E00E948700E09027
:103310005702F0905802B701625F7F4FCE010196CD
:103320000E94EA04CE0103960E94F703B7016A5E89
:103330007F4FCE0101960E94EA0444E050E0BE01B6
:103340006D5F7F4F81E090E00E946602B7016E5E84
:103350007F4FCE0101960E94EA0444E050E0BE0196
:103360006D5F7F4F85E090E00E946602B701625E6C
:103370007F4FCE0101960E94EA048B819C81AD8132
:10338000BE818093AD039093AE03A093AF03B0933F
:10339000B0030E94C0007F738091000190910101F1
:1033A00068277927709301016093000106C00E948D
:1033B000BA068111A7CE10E000E01093C00200937E
:1033C000BF02E091FA02F091FB0282E08083E0917B
:1033D000F602F091F7021082E091F802F091F90202
:1033E0008FEC808310920203E091FE02F091FF02C5
:1033F00086E08083E091FC02F091FD028081806193
:103400008083E091FC02F091FD02808188608083DE
:10341000E091FC02F091FD02808180688083E09160
:10342000FC02F091FD0280818F7D808360EA7FE065
:1034300080E090E00E94E500DE0111967D01012B05
:1034400009F062C08EE991E00E94D70486E891E01D
:103450009A8389834091C9035091CA036091CB0339
:103460007091CC034B835C836D837E839AAB89AB75
:103470004091CF035091D0036091D1037091D2035A
:103480004BAB5CAB6DAB7EAB22969FAF8EAF229702
:103490004091D5035091D6036091D7037091D80322
:1034A00026964CAF5DAF6EAF7FAF269728969FAF45
:1034B0008EAF28978091DB039091DC03A091DD0310
:1034C000B091DE032C968CAF9DAFAEAFBFAF2C9703
:1034D0009701AE014F5C5F4FBE01605C7F4FCE0134
:1034E0008A5B9F4F0E94240868EE73E080E090E0C2
:1034F0000E94E5008091BF029091C002892B21F4C7
:1035000086EC91E00E94D70468EE73E080E090E0E2
:103510000E94E50083EF91E00E94D70418E005E4E3
:1035200080E4D82E99249A9491E4892E2CE6722E68
:103530003FE6632E40E0A42E40E0B42E86E0EAE6AB
:10354000F1E0D70101900D928A95E1F786E0E2E083
:10355000F1E0DE01179601900D928A95E1F71D8743
:103560000F87188A198A1A8A1B8A1C8A1D8A1E8A42
:10357000DF8A988E198E1A8EE091DB03F0E084E0EA
:10358000DE015B9601900D928A95E1F7E091E103EF
:10359000F0E084E0DE015F9601900D928A95E1F7FC
:1035A0001BA31CA21DA21EA21FA218A619A61AA622
:1035B0008BA67CA66DA688E68EA781E68FA781E202
:1035C00088AB64E170E0CE010F960E945804998F99
:1035D0008A8F68E070E0CE0183960E9458049DA314
:1035E0008EA383EC93E00E945F12F701019000200C
:1035F000E9F7AF014E195F09B70183EC93E00E9430
:103600004D0C86E092E00E94D70463EC73E0CE019B
:10361000C1960E94CE0BCE01C1960E949E0C181638
:103620001906BCF4CE01C1960E941C0E86E292E0FF
:103630000E94D7048091C1029091C202019690939A
:10364000C2028093C10268EE73E080E090E00E94C5
:10365000E50068EE73E080E090E00E94E500A114D0
:10366000B10409F46BCF0E948D01882309F466CF61
:103670000E94000063CF843031F580915D0290910B
:103680005E02A0915F02B09160020196A11DB11D82
:1036900080935D0290935E02A0935F02B0936002FC
:1036A0000E941701681979098A099B09A3019201EF
:1036B0000E94101DA90163E089E592E00E94831534
:1036C00030929B02E4CD813091F54091930250916C
:1036D000940260919502709196029E012F5F3F4F78
:1036E00089E592E00E94E413282EB2E08B13BEC05D
:1036F00089819A81AB81BC8180935D0290935E0247
:10370000A0935F02B09360020E94170168197909C3
:103710008A099B09A30192010E94101DA90163E07F
:1037200089E592E00E94831520929B02B0CD823001
:1037300009F0ADCD409193025091940260919502B1
:10374000709196029E012F5F3F4F89E592E00E94A3
:10375000E413282EE5E08E1383C0F3E0F0939B0280
:1037600080917B0290917C02A0917D02B0917E02BB
:10377000892B8A2B8B2B41F4C0927B02D0927C0246
:10378000E0927D02F0927E0280917F029091800211
:10379000A0918102B0918202892B8A2B8B2BA1F4FC
:1037A00080917B0290917C02A0917D02B0917E027B
:1037B000B695A7959795879580937F029093800201
:1037C000A0938102B093820280918302909184023F
:1037D000A0918502B0918602892B8A2B8B2BE9F46C
:1037E00080917B0290917C02A0917D02B0917E023B
:1037F000AC01BD01E3E07695679557954795EA954D
:10380000D1F7841B950BA60BB70B80938302909383
:103810008402A0938502B093860280917F029091EA
:103820008002A0918102B0918202809387029093DE
:103830008802A0938902B0938A02809183029091BA
:103840008402A0918502B091860280938B029093AE
:103850008C02A0938D02B0938E0201E010E017CD90
:1038600086E0281203C010929B0211CD9FEF29120F
:103870000ECDF9CF8F929F92AF92BF92CF92DF92EF
:10388000EF92FF92CF93DF93EC01688179818A8177
:103890009B81611571058105910521F464E279ED43
:1038A0008BE597E02DE133EF41E050E00E94DE1C14
:1038B00049015A019B01AC01A7EAB1E40E94FD1C39
:1038C0006B017C01ACEEB4EFA50194010E940B1DCD
:1038D000C60ED71EE81EF91EF7FE06C081E0C81A04
:1038E000D108E10880E8F80AC882D982EA82FB821E
:1038F000C701B6019F77DF91CF91FF90EF90DF90E6
:10390000CF90BF90AF909F908F9008958F929F928D
:10391000AF92BF92CF92DF92EF92FF926091080137
:103920007091090180910A0190910B016115710557
:103930008105910521F464E279ED8BE597E02DE1B5
:1039400033EF41E050E00E94DE1C49015A019B0127
:10395000AC01A7EAB1E40E94FD1C6B017C01ACEE56
:10396000B4EFA50194010E940B1DC60ED71EE81EE0
:10397000F91EF7FE06C081E0C81AD108E10880E808
:10398000F80AC0920801D0920901E0920A01F0926F
:103990000B01C701B6019F77FF90EF90DF90CF90AA
:1039A000BF90AF909F908F9008956093080170939F
:1039B000090180930A0190930B010895052E97FB4E
:1039C0001EF400940E94F51C57FD07D00E94101DA4
:1039D00007FC03D04EF40C94F51C5095409530959F
:1039E00021953F4F4F4F5F4F08959095809570956B
:1039F00061957F4F8F4F9F4F08950E94321DA59F65
:103A0000900DB49F900DA49F800D911D11240895D9
:103A1000B7FF0C94FD1C0E94FD1C821B930B0895A4
:103A2000A1E21A2EAA1BBB1BFD010DC0AA1FBB1FC2
:103A3000EE1FFF1FA217B307E407F50720F0A21B34
:103A4000B30BE40BF50B661F771F881F991F1A94A1
:103A500069F760957095809590959B01AC01BD01CB
:103A6000CF010895A29FB001B39FC001A39F700D25
:103A7000811D1124911DB29F700D811D1124911D76
:103A80000895692796276927782787277827089533
:103A9000EE0FFF1F0590F491E02D0994FB01DC016E
:103AA00004C08D910190801921F441505040C8F715
:103AB000881B990B0895DC0101C06D934150504063
:103AC000E0F70895FB01DC0101900D920020E1F781
:063AD0000895F894FFCFF9
:103AD60000C0DEADBEEFFEED0100000001005E009D
:103AE600000000000000C603270BC70AB20A9E0C9E
:103AF6001C0EA6088F12D411360E27060506EF03F4
:103B0600EC03EA03BB03E003701335130B13DC036A
:103B1600000000008F03420B5504BF00BB00940D4C
:103B26009708E30EA509C605FF0361116006BE0DE1
:103B3600750D4E043E043A04360474D21DF3AEC726
:103B460000000000C30123015001100281015F0142
:103B56007301000000009A13000000005F12A50325
:103B66004D0CE1050D0A0057495A6E657400466111
:103B7600696C656420746F20636F6E666967757221
:103B8600652045746865726E6574207573696E6725
:103B96002044484350004661696C656420746F2078
:103BA600636F6E6669677572652045746865726EC7
:103BB6006574207573696E67207374617469632018
:103BC60049500045746865726E657420636F6E6E49
:103BD60065637465640049434D50204563686F20F2
:103BE60052657175657374207061636B65742073BB
:103BF600656E742E0A0049434D50204563686F2058
:103C06005265706C79207061636B657420726563B0
:083C160065697665642E0A0061
:00000001FF
