:020000040000FA
:100000000C945D000C9485000C9485000C942414D1
:100010000C9424140C9424140C9485000C948500E6
:100020000C9485000C9485000C9485000C9485003C
:100030000C9485000C9485000C9485000C9485002C
:100040000C94DA130C9485000C94A8130C9482136E
:100050000C9485000C9485000C9485000C9485000C
:100060000C9485000C94850000000008000201003B
:100070000003040700000000000000000000000072
:10008000250028002B0000000000240027002A0083
:10009000040404040404040402020202020203032E
:1000A0000303030301020408102040800102040836
:1000B00010200102040810202E1411241FBECFEFBF
:1000C000D8E0DEBFCDBF12E0A0E0B1E0E8E1F5E3AB
:1000D00002C005900D92AE30B107D9F723E0AEE033
:1000E000B2E001C01D92A239B207E1F710E0CDE500
:1000F000D0E004C02197FE010E94691ACC35D107D7
:10010000C9F70E94CB140C948A1A0C9400008CBD81
:100110009DBD089520E3FC0120833296862F8295B1
:100120008F706F706A3030F4605D6293682F811158
:10013000F5CF0895695CF9CF90E0FC01EC55FF4FD5
:10014000249180579F4FFC018491882399F090E07F
:10015000880F991FFC01EA57FF4FA591B491FC014C
:10016000E458FF4F859194918FB7F894EC91E22B6E
:10017000EC938FBF0895FC01818D928D08950895B1
:10018000AF92BF92CF92DF92EF92FF920F931F93A5
:10019000CF93DF936C017B018B01040F151FEB01E3
:1001A0005E01AE18BF08C017D10759F06991D6019A
:1001B000ED91FC910190F081E02DC6010995892B0C
:1001C00079F7C501DF91CF911F910F91FF90EF90CB
:1001D000DF90CF90BF90AF900895FC01538D448D78
:1001E000252F30E0842F90E0821B930B541710F0E2
:1001F000CF96089501970895FC01918D828D9817EF
:1002000061F0A28DAE0FBF2FB11D5D968C91928DC6
:100210009F5F9F73928F90E008958FEF9FEF0895F7
:10022000FC01918D828D981731F0828DE80FF11DC0
:10023000858D90E008958FEF9FEF0895FC01918DDB
:10024000228D892F90E0805C9F4F821B91098F73D4
:100250009927089584EA92E00E941E0121E0892BEB
:1002600009F420E0822F089580E090E0892B29F0A6
:100270000E942A0181110C9400000895FC01A48DB4
:10028000A80FB92FB11DA35ABF4F2C91848D90E0B8
:1002900001968F739927848FA689B7892C93A0899B
:1002A000B1898C91837080648C93938D848D981325
:1002B00006C00288F389E02D80818F7D80830895B8
:1002C000EF92FF920F931F93CF93DF93EC0181E0A6
:1002D000888F9B8D8C8D98131AC0E889F98980814D
:1002E00085FF15C09FB7F894EE89FF896083E88980
:1002F000F98980818370806480839FBF81E090E072
:10030000DF91CF911F910F91FF90EF900895F62EFE
:100310000B8D10E00F5F1F4F0F731127E02E8C8D98
:100320008E110CC00FB607FCFACFE889F9898081DD
:1003300085FFF5CFCE010E943E01F1CFEB8DEC0F92
:10034000FD2FF11DE35AFF4FF0829FB7F8940B8FFA
:10035000EA89FB8980818062CFCFCF93DF93EC0164
:10036000888D8823B9F0AA89BB89E889F9898C919D
:1003700085FD03C0808186FD0DC00FB607FCF7CF59
:100380008C9185FFF2CF808185FFEDCFCE010E9459
:100390003E01E9CFDF91CF9108953FB7F894809166
:1003A000150290911602A0911702B091180226B57D
:1003B000A89B05C02F3F19F00196A11DB11D3FBF9D
:1003C000BA2FA92F982F8827BC01CD01620F711D6C
:1003D000811D911D42E0660F771F881F991F4A9566
:1003E000D1F708958F929F92AF92BF92CF92DF92F2
:1003F000EF92FF924B015C010E94CD016B017C01E9
:100400000E94CD016C197D098E099F09683E7340D9
:1004100081059105A8F321E0821A9108A108B1088D
:1004200088EEC80E83E0D81EE11CF11C81149104F3
:10043000A104B10429F7FF90EF90DF90CF90BF9017
:10044000AF909F908F9008952FB7F894609111020C
:100450007091120280911302909114022FBF08959F
:10046000FC0120812EBD9B012150310941F05181B9
:100470000DB407FEFDCF4EB55EBD4193F5CF615083
:100480007109860F971F0DB407FEFDCF2EB5FC0135
:1004900020830895E0911A02F0911B0280819091CF
:1004A0001902892B80830895E0911A02F0911B02B2
:1004B00090818091190280958923808308958EBD53
:1004C00000000DB407FEFDCF8EB50895AF92BF9228
:1004D000CF92DF92EF92FF920F931F93CF93DF9310
:1004E000CDB7DEB728970FB6F894DEBF0FBECDBFED
:1004F0008C017B016A018091A3028333E1F45801EE
:10050000A40EB51EA016B10609F46FC00E945402D5
:1005100080EF0E945F02812F0E945F02802F0E9465
:100520005F020F5F1F4FF70181917F010E945F0201
:100530000E944A02E7CF5B01A40EB51E8433C1F4CA
:100540000E94540219830A838D2D80688B83CC828C
:1005500064E070E0CE0101960E943002AE14BF0448
:1005600009F441C0F70181917F010E945F02F6CF3B
:100570000E9454020F3F110509F028F419820A83E2
:1005800084E08B830CC017FD17C019820A8333E007
:10059000169507953A95E1F7007E0C600B8386E08F
:1005A000C816D104A0F5F701DE011496EA15FB0583
:1005B00099F081918D93FACFC80126E096958795A1
:1005C0002A95E1F7807E19830A830115104C10F4F7
:1005D0008461D7CF8C61D5CFB6016D5F7F4FCE01DF
:1005E00001960E9430020E944A02C60128960FB668
:1005F000F894DEBF0FBECDBFDF91CF911F910F9159
:10060000FF90EF90DF90CF90BF90AF90089563E0A0
:1006100070E0CE0101960E943002F70181917F01C6
:100620000E945F02AE14BF04C1F7DDCFCF93DF930A
:100630001F92CDB7DEB7898341E050E0BE016F5F06
:100640007F4F90E080E00E9466020F90DF91CF9193
:10065000089590E02091A302233339F40C96982F4B
:10066000990F990F990F80E008954896F8CFDA0115
:10067000E0911D02F0E0FE2FEE27E60FF71F90E05D
:10068000982F8827A901BD018E0F9F1F0C94660229
:10069000CF93DF9300D0CDB7DEB779836A8322E0B2
:1006A00030E0AE014F5F5F4F60E170E00E943703C2
:1006B0000F900F90DF91CF910895CF93DF9300D0EB
:1006C000CDB7DEB779836A8322E030E0AE014F5FB9
:1006D0005F4F64E070E00E9437030F900F90DF914E
:1006E000CF910895CF93DF931F92CDB7DEB72091BE
:1006F0001D0230E0322F2227260F371F90E0982F5F
:100700008827498341E050E0BE016F5F7F4F820F31
:10071000931F0E9466020F90DF91CF910895CF93AF
:10072000DF931F92CDB7DEB76983DC01ED91FC91B9
:100730000280F381E02D41E050E0BE016F5F7F4F0A
:1007400009950F90DF91CF910895FC019485FB01ED
:100750008485981303C081E0943008F080E0089508
:10076000CF93DF931F92CDB7DEB76983DC01ED91A4
:10077000FC910280F381E02D41E050E0BE016F5F0B
:100780007F4F09950F90DF91CF9108950895FF92C3
:100790000F931F93CF93DF93EB01FC01178A168A07
:1007A0002A81211109C02B81211106C02C81211120
:1007B00003C02D81222301F141155105E9F08A0181
:1007C000FC01F08C80E591E00E948700AE014E5F55
:1007D0005F4F24E030E06CE070E08F2D0E94370323
:1007E000B8018F2D0E94480381E090E0DF91CF9106
:1007F0001F910F91FF90089580E0F7CFFC01848551
:1008000095850895FC0184899589089520E831E053
:10081000FC0131832083FB014089518962897389FE
:10082000FC0142835383648375830895DC01ED9159
:10083000FC91048CF58DE02D099490E080E0089502
:10084000FC01768765870895DC01ED91FC91068CAB
:10085000F78DE02D099591E089270895862F089559
:1008600081E08627089521E0FC018485843008F02A
:1008700020E0822F0895AF92BF92CF92DF92EF9245
:10088000FF920F931F93CF93DF9300D000D0CDB78B
:10089000DEB78C016B017A018091A3028333E9F406
:1008A0005B016801C40ED51EC016D106A9F10E94D5
:1008B00054028FE00E945F02812F0E945F02802F0E
:1008C0000E945F020F5F1F4F80E00E945F02F501F0
:1008D00081935F010E944A02E7CF843369F50E9449
:1008E000540219830A838F2D8F778B83EC8264E007
:1008F00070E0CE0101960E943002A70170E060E036
:10090000C6010E947C1AE114F10421F0B701C6016E
:100910000E9430020E944A02C7010F900F900F9070
:100920000F90DF91CF911F910F91FF90EF90DF908B
:10093000CF90BF90AF9008950E9454020F3F1105D1
:1009400009F030F419820A831B8263E070E0D1CF92
:1009500017FD0BC019820A8333E0169507953A9567
:10096000E1F7007E08600B83F0CFC80126E0969582
:1009700087952A95E1F7807E19830A830115104C2B
:1009800018F480618B83E1CF8861FCCFCF93DF9334
:100990001F92CDB7DEB720911D0230E0322F222703
:1009A000260F371F90E0982F882741E050E0BE01C6
:1009B0006F5F7F4F820F931F0E943B0489810F90CE
:1009C000DF91CF910895CF93C82F462F61E070E05B
:1009D0000E94720361E070E08C2F0E94C6048111B6
:1009E000F9CFCF910895CF93C82F80E591E00E9471
:1009F000870068E070E08C2FCF910C94E304CF93D4
:100A0000C82F80E591E00E94870060E170E08C2FA4
:100A1000CF910C94E304CF93DF93EC01888D843065
:100A200020F40E94FF0484E0888FDF91CF91089525
:100A3000CF93C82F80E591E00E94870063E070E0CB
:100A40008C2FCF910C94C604CF93DF93EC018C854F
:100A50008430D0F40E941805843189F0882379F01D
:100A6000883169F021E08C3159F4E881F981008402
:100A7000F185E02DCE01099521E0892B09F420E0D4
:100A8000822FDF91CF91089580E0FBCFCF92DF924C
:100A9000EF92FF92CF93DF93EC018C85843068F462
:100AA0000E94F3040E9424026B017C018C850E9449
:100AB0001805811109C084E08C87DF91CF91FF90E8
:100AC000EF90DF90CF90089561E070E080E090E0DB
:100AD0000E94F2010E942402AB01BC014C195D0985
:100AE0006E097F098D859E85B0E0A0E04817590703
:100AF0006A077B07D8F28C850E94FF04DCCFCF9376
:100B0000FC01C08D80E591E00E94870060E270E00A
:100B10008C2F0E94E30462E070E08C2F0E94C604D8
:100B200084FD16C062E070E08C2F0E94C60483FF33
:100B30000AC048E162E070E08C2F0E94720380E0FE
:100B400090E0CF91089580E591E00E948700E3CF87
:100B500040E162E070E08C2F0E94720381E0F0CFF0
:100B6000CF93DF931F92CDB7DEB741E050E0BE01D7
:100B70006F5F7F4F90E080E00E943B0489810F907F
:100B8000DF91CF910895CF93DF93C4E1D0E00E942D
:100B9000B005882361F061E070E080E090E00E94A1
:100BA000F2012197A1F780E0DF91CF91089581E0D4
:100BB000FBCF1F93CF93DF931F92CDB7DEB7182FD4
:100BC00080E591E00E948700812F0E94290327E0A1
:100BD000129FF0011124E957FD4F228133813770B4
:100BE00041E050E0BE016F5F7F4F820F931F0E9474
:100BF0003B0489810F90DF91CF911F910895FC01F3
:100C0000808D843040F4218D328D232B21F00E9481
:100C1000D90590E008958FEF9FEF0895CF93DF936C
:100C2000FC012485243028F08FEF9FEFDF91CF91D6
:100C30000895EC010190F081E02D0084F185E02D14
:100C40000995892B89F38C850E94D90590E0EECF18
:100C5000DA01E0911D02F0E0FE2FEE27E60FF71F0C
:100C600090E0982F8827A901BD018E0F9F1F0C943B
:100C70003B048F929F92AF92BF92CF92DF92EF92FE
:100C8000FF921F93CF93DF93CDB7DEB72C970FB6AC
:100C9000F894DEBF0FBECDBF2091A30214E0222343
:100CA00039F16B017C0180E591E00E9487005E01D3
:100CB00027E0A20EB11C450110E063E070E0812F37
:100CC0000E94C604F40181934F01882349F11F5FFC
:100CD000143099F710E0F50181915F018D31D9F061
:100CE0008831C9F08A518230B0F01F5F143099F713
:100CF000812F2C960FB6F894DEBF0FBECDBFDF91CB
:100D0000CF911F91FF90EF90DF90CF90BF90AF9069
:100D10009F908F90089560E170E0812F0E94E3041E
:100D2000A12EB12C83EE93E00197F1F742E870E039
:100D300060E0812F0E9472034FEF62E070E0812F2C
:100D40000E947203B601C114D10491F4809106018E
:100D50009091070101968115F0EC9F0708F45CC0A3
:100D6000909307018093060160910601709107013D
:100D7000812F0E945D0386E0ECE0F1E0DE01119638
:100D800001900D928A95E1F7F70183818F778C832B
:100D900084818D8385818E83A7014E5F5F4F24E020
:100DA00030E06CE070E0812F0E943703B601812FA4
:100DB0000E94480326E030E0AE014F5F5F4F66E0DF
:100DC00070E0812F0E94370361E070E0812F0E9464
:100DD000E30427E02A9DC0012B9D900D11249C0166
:100DE00029573D4F7901F9011182108222E030E04C
:100DF000AE01455F5F4F68E270E0812F0E942806D8
:100E00008B859C85982789279827F7019383828370
:100E10001682158214826CCF80E090ECA1CFCF9225
:100E2000DF92EF92FF920F931F93CF93DF9300D047
:100E300000D000D0CDB7DEB78C016B017A01FC0188
:100E4000808D843010F40E94FF0480E891E09A8342
:100E50008983F60182819381A481B5818B839C83F0
:100E6000AD83BE83B701CE0101960E943906F80119
:100E7000808F8430A0F4F586E486128E118E81E096
:100E800026960FB6F894DEBF0FBECDBFDF91CF918F
:100E90001F910F91FF90EF90DF90CF90089580E029
:100EA000EFCFAF92BF92CF92DF92EF92FF920F936C
:100EB0001F93CF93DF9300D000D000D0CDB7DEB723
:100EC000082F6B0180E591E00E9487009E012F5F53
:100ED0003F4F7901590110E063E070E0812F0E94DB
:100EE000C604F50181935F01882341F11F5F14302F
:100EF00099F710E0F70181917F018D31D1F08831B0
:100F0000C1F08A518230A8F01F5F143099F7812F09
:100F100026960FB6F894DEBF0FBECDBFDF91CF91FE
:100F20001F910F91FF90EF90DF90CF90BF90AF9007
:100F3000089560E170E0812F0E94E304E12EF12C1E
:100F400083EE93E00197F1F7402F70E060E0812F8E
:100F50000E9472034FEF62E070E0812F0E947203E3
:100F6000B601CD2889F48091060190910701019680
:100F70008115F0EC9F0798F190930701809306018B
:100F80006091060170910701812F0E945D0361E06D
:100F900070E0812F0E94E30427E02E9DC0012F9D69
:100FA000900D11249C0129573D4F7901F9011182BF
:100FB000108222E030E0AE014B5F5F4F68E270E0EC
:100FC000812F0E9428068D819E8198278927982746
:100FD000F7019383828316821582148298CF80E072
:100FE00090ECCACFCF92DF92EF92FF921F93CF93F4
:100FF000DF93EC017B016A018C85843048F40E9408
:101000001805882319F08C850E94F30484E08C87EE
:10101000F70182819381A481B5810097A105B10573
:1010200051F490E080E0DF91CF911F91FF90EF901D
:10103000DF90CF9008958F3F9F4FAF4FBF4F89F301
:101040008091A302811103C084E08C87EACF70E015
:1010500060E081E20E945107182F8C87843008F7E6
:1010600080E591E00E948700A7014E5F5F4F24E07A
:1010700030E06CE070E0812F0E943703B601812FD1
:101080000E94480364E070E0812F0E94E3040E9404
:1010900024026B017C018C850E941805873109F1BF
:1010A0008C31F9F0882309F4BCCF0E942402AB01F3
:1010B000BC014C195D096E097F098D859E85B0E0E4
:1010C000A0E084179507A607B70738F061E070E045
:1010D00080E090E00E94F201DECF8C850E94FF0448
:1010E000B3CF81E090E09FCF0F931F93CF93DF9317
:1010F000EC018B01888D843010F40E94FF048091F4
:10110000A302811107C094E0988FDF91CF911F91C6
:101110000F910895B80182E00E945107888F8430B2
:1011200030F41D870C871A8E198E81E0EECF80E097
:10113000ECCF7F928F929F92AF92BF92CF92DF922D
:10114000EF92FF920F931F93CF93DF9300D0CDB711
:10115000DEB7782E8B014A01590122E030E0AE0162
:101160004F5F5F4F64E270E00E942806E980FA80DA
:10117000FE24EF24FE24E00EF11E9701377040910B
:10118000A302072D10E0433309F042C0085F1F4F50
:10119000102F0027110F110F110FC901800F911F80
:1011A0004733C9F1A9014A0D5B1D4130584098F100
:1011B00060E078E06B01C21AD30AA601B4010E9474
:1011C0006602A5014C195D09B4016C0D7D1DC801B5
:1011D0000E946602EA0CFB1CF982EA8222E030E0FF
:1011E000AE014F5F5F4F64E270E0872D0E943703CE
:1011F0000F900F90DF91CF911F910F91FF90EF9083
:10120000DF90CF90BF90AF909F908F907F90089588
:10121000005F1F4FBDCFA501B401DACFEF92FF925F
:101220001F93CF93DF9300D0CDB7DEB7182F22E006
:1012300030E0AE014F5F5F4F60E270E00E94280631
:10124000E980FA80FE24EF24FE2422E030E0AE01A3
:101250004F5F5F4F60E270E0812F0E942806898116
:101260009A81982789279827E816F90689F487E054
:10127000189FF0011124E957FD4FF582E482C70160
:101280000F900F90DF91CF911F91FF90EF900895F5
:101290007C01DBCF1F93CF93DF93182F80E591E084
:1012A0000E948700812F0E940E09EC0163E070E02C
:1012B000812F0E94C604873121F08C3111F0D0E0DB
:1012C000C0E0CE01DF91CF911F910895CF93DF93BE
:1012D000EC018C85843060F40E941805873111F090
:1012E0008C3131F48C850E944A098115984088F32D
:1012F000DF91CF910895FC018485843010F40C9423
:101300004A0990E080E008959F92AF92BF92CF92F9
:10131000DF92EF92FF920F931F93CF93DF938C0195
:101320005B01942EE52EFC01C688D788F08C80E501
:1013300091E00E9487008F2D0E940E09C92DDE2D9D
:101340008C179D0708F4EC019E01A501B6018F2DB5
:101350000E949908F801868997898C0F9D1F978BA9
:10136000868BCE01DF91CF911F910F91FF90EF906F
:10137000DF90CF90BF90AF909F9008958F929F92F3
:10138000AF92BF92CF92DF92EF92FF920F931F9393
:10139000CF936C015B018A01FC01C485C430F0F578
:1013A0007A014130584018F0E12C88E0F82E80E5B1
:1013B00091E00E9487008C2F0E940E094C0163E08F
:1013C00070E08C2F0E94C604873111F08C3149F5F2
:1013D0008E149F0460F380E591E00E9487009701DE
:1013E000A50170E060E08C2F0E94990860E270E037
:1013F0008C2F0E94E30462E070E08C2F0E94C604F0
:1014000084FD17C063E070E08C2F0E94C604811138
:101410000BC081E090E0F6019383828310E000E04E
:1014200010C0F12CE12CD7CF80E591E00E9487001D
:10143000E2CF40E162E070E08C2F0E947203EF285F
:1014400041F3C801CF911F910F91FF90EF90DF9072
:10145000CF90BF90AF909F908F900895FF920F9381
:101460001F93CF93DF9300D0CDB7DEB7F82E22E0E5
:1014700030E0AE014F5F5F4F66E270E00E942806E9
:1014800009811A8110270127102722E030E0AE01E0
:101490004F5F5F4F66E270E08F2D0E9428068981C2
:1014A0009A819827892798270817190749F4C801AE
:1014B0000F900F90DF91CF911F910F91FF900895A2
:1014C0008C01E3CF1F93CF93DF93182F87E0189FF2
:1014D000E0011124C957DD4F88819981009761F49B
:1014E00080E591E00E948700812F0E942E0A2E81C4
:1014F000821B910999838883DF91CF911F91089571
:10150000FC018485843010F40C94620A90E080E041
:1015100008954F925F927F928F929F92AF92BF9267
:10152000CF92DF92EF92FF920F931F93CF93DF93AF
:1015300000D0CDB7DEB7782E6B014A01A82EB12CB2
:1015400027E0829FC0011124FC01E957FD4F7F0174
:101550000081118180E591E00E948700081519053E
:1015600054F4872D0E942E0AF70126818C01021B5C
:101570001109118300830115110529F563E070E05D
:10158000872D0E94C604843159F0882349F001E078
:1015900010E08C3111F410E000E011950195110973
:1015A000C8010F900F90DF91CF911F910F91FF9085
:1015B000EF90DF90CF90BF90AF909F908F907F90F3
:1015C0005F904F900895801691060CF4840187E097
:1015D0008A9DF0018B9DF00D1124E957FD4FE280AB
:1015E000F380C114D10451F12701F7E05F22872D68
:1015F0000E942903840D951D2091A302273309F42D
:1016000053C09801240D351D2130384008F44CC0DA
:1016100020E038E0490184189508A401B6010E9431
:101620003B042601480C591C6801C818D908872DAD
:101630000E942903A601B2010E943B04E00EF11EA4
:1016400087E08A9DF0018B9DF00D1124E957FD4F35
:10165000F382E28220813181201B310B3183208390
:101660008681800F912F911D8A3F910510F4232BC5
:10167000F1F487E08A9DF0018B9DF00D1124E9576C
:10168000FD4F1682F982EA8222E030E0AE014F5F20
:101690005F4F68E270E0872D0E94370360E470E0DE
:1016A000872D0E94E3047CCFA801B601C5CF8683B5
:1016B00077CFCF93DF93FC01218D328D211531053A
:1016C00029F48FEF9FEFDF91CF910895EC01808D8A
:1016D0004217530708F0A9010E94890A1816190633
:1016E00084F7298D3A8D281B390B3A8F298FEBCF40
:1016F0000F931F93CF93DF931F92CDB7DEB7FC01FB
:10170000218D328D232B41F48FEF9FEF0F90DF91CE
:10171000CF911F910F9108958C0141E050E0BE01DF
:101720006F5F7F4FFC01808D0E94890A1816190691
:101730005CF7F801818D928D0197928F818F89815D
:1017400090E0E4CFCF93DF931F92CDB7DEB741E0B7
:1017500050E0BE016F5F7F4FFC0184850E94890AC3
:101760001816190634F4898190E00F90DF91CF911B
:1017700008958FEF9FEFF9CFFC018485843010F43A
:101780000C94890A90E080E008950F931F93CF9303
:10179000DF9300D0CDB7DEB7FC0124852430E0F420
:1017A0008C0180E591E00E94870022E030E0AE01EC
:1017B0004F5F5F4F60E170E0F80184850E9428066A
:1017C00089819A819827892798270F900F90DF9118
:1017D000CF911F910F91089590E080E0F6CF0F9385
:1017E0001F93CF93DF9300D0CDB7DEB7FC012485E4
:1017F0002430E0F48C0180E591E00E94870022E033
:1018000030E0AE014F5F5F4F64E070E0F801848527
:101810000E94280689819A819827892798270F9006
:101820000F90DF91CF911F910F91089590E080E08C
:10183000F6CFDC0180E891E08D939D9384E0FB017D
:1018400001900D928A95E1F70895EF92FF920F9320
:101850001F93CF93DF9300D000D0CDB7DEB78C01BC
:101860007B01FB0184858430A8F080E891E0F801D9
:10187000918380831282138214821582C8010F9093
:101880000F900F900F90DF91CF911F910F91FF90CC
:10189000EF90089580E591E00E94870024E030E019
:1018A000AE014F5F5F4F6CE070E0F70184850E94EE
:1018B0002806BE016F5F7F4FC8010E94190CDECF62
:1018C0000F931F93CF93DF93CDB7DEB728970FB653
:1018D000F894DEBF0FBECDBF8C01D80159964D9153
:1018E0005C915A974115510551F0ED91FC91048C92
:1018F000F58DE02D70E060E0C8010995EECFF801AC
:10190000808D0E94620A892BB1F148E050E0BE014F
:101910006F5F7F4FD80158968C910E94890A1816E4
:101920001906F4F4D801509684E0FE013196019036
:101930000D928A95E1F78D8190E0982F88272E816E
:10194000820F911DF801958B848B8F81282F30E0B9
:10195000322F22278885820F932F911D928F818F9E
:1019600028960FB6F894DEBF0FBECDBFDF91CF91A2
:101970001F910F91089590E080E0F2CF4F925F9217
:101980006F927F928F929F92AF92BF92CF92DF928F
:10199000EF92FF920F931F93CF93DF93CDB7DEB7F4
:1019A00063970FB6F894DEBF0FBECDBF7C016B010D
:1019B0003A01FB0120E090E080E06AE031913323BE
:1019C00009F461C040ED430F4A3008F04DC0689FF4
:1019D000A001699F500D1124CA01C097830F911D6A
:1019E00037FD9A958F3F910549F340F3F701428106
:1019F00053816481758180916D0390916E03A091F4
:101A00006F03B0917003481759076A077B0709F401
:101A10000DC28701085F1F4F0E9424026F70772755
:101A20007C5FC8010E947408813009F004C280E81C
:101A300091E09A838983F70182819381A481B581A2
:101A40008B839C83AD83BE8345E350E0BE016F5F13
:101A50007F4FC8010E94C703892BA9F5D12CC12C47
:101A6000C8010E940B0517C03E3209F0BFCF2330DA
:101A700009F4BCCFD301A20FB11D12968C932F5F36
:101A800090E080E09BCF233009F0B0CFF301858355
:101A9000CC24C394D12CC60163960FB6F894DEBF54
:101AA0000FBECDBFDF91CF911F910F91FF90EF90AF
:101AB000DF90CF90BF90AF909F908F907F906F906E
:101AC0005F904F9008950E942402F7017783668308
:101AD00042E050E0B7016A5F7F4FC8010E9484096D
:101AE00081E090E09A83898342E050E0BE016F5F1D
:101AF0007F4FC8010E94840980E091E09A83898326
:101B000042E050E0BE016F5F7F4FC8010E94840930
:101B10001A82198242E050E0BE016F5F7F4FC80118
:101B20000E94840942E050E0BE016F5F7F4FC80110
:101B30000E94840942E050E0BE016F5F7F4FC80100
:101B40000E9484095601F6018081882301F1650114
:101B5000F60181912F01882311F08E32B1F44601F4
:101B60008A189B081814190474F48D8641E050E01B
:101B7000BE01635F7F4FC8010E948409A401B501C3
:101B8000C8010E9484095201DECF6201E1CF1D86A7
:101B900041E050E0BE01635F7F4FC8010E948409AD
:101BA000C12CDD24D394DA82C98242E050E0BE0128
:101BB0006F5F7F4FC8010E948409DA82C98242E0C8
:101BC00050E0BE016F5F7F4FC8010E948409C801C9
:101BD0000E947F05892B09F441CFF3E0AF2EB12C91
:101BE000230122E0420E511CD4C0F70142815381EF
:101BF00064817581808D918DA28DB38D48175907B1
:101C00006A077B0709F008C1848D958DC59709F097
:101C100003C181A192A15DEFC52EDD24DA940C975A
:101C20000CF4ADC04CE050E0BE016F5F7F4FC801C7
:101C30000E94590B8B819C819827892798279A8B22
:101C4000898BF7014681578129813A8142175307D1
:101C500009F0E7C097FFE5C08F7092703BEFC32E8D
:101C6000DD24DA94892B09F08AC06F807884762489
:101C7000672476242AEFC22EDD24DA9461147104DD
:101C800009F47DC0D12CC12C8D819E819827892794
:101C90009827C816D906F8F441E050E0BE01635F0A
:101CA0007F4FC8010E94590B4D85442331F050E00D
:101CB00070E060E0C8010E94590B8D858111ECCF66
:101CC00044E050E070E060E0C8010E94590BFFEF73
:101CD000CF1ADF0AD9CF912C812C41E050E0BE0110
:101CE0006D5E7F4FC8010E94590B4B89842F807C09
:101CF00009F06CC0442331F050E070E060E0C801AE
:101D00000E94590B8B898111E8CF42E050E0BE015F
:101D1000615F7F4FC8010E94590B42E050E0BE0155
:101D2000635F7F4FC8010E94590B44E050E070E0B0
:101D300060E0C8010E94590B42E050E0BE016F5EB6
:101D40007F4FC8010E94590B8F85988949895A890C
:101D50008115914009F043C0CD84DE84DC24CD247C
:101D6000DC2481E0C816D104D1F54115544009F0B6
:101D70004AC044E050E0B201C8010E94590B21E082
:101D8000A21AB10809F46CCEFFEFCF16DF0609F0F6
:101D900067CE0E9424023B014C01C8010E94600CE6
:101DA000181619060CF421CF0E942402661977092F
:101DB00088099909693873418105910548F562E3FD
:101DC00070E080E090E00E94F201E7CF41E050E057
:101DD00070E060E0C8010E94590B1B8A93CF542722
:101DE0004527542770E060E0C8010E94590BFFEFBF
:101DF0008F1A9F0A6814790409F06FCF96EFC92EE5
:101E0000DD24DA94BCCFE7EFCE2EDD24DA94B7CF11
:101E1000CC24CA94DC2CB3CF6EEFC62EDD24DA942A
:101E2000AECF4CEFC42EDD24DA94A9CF8EEFC82EAE
:101E3000DD24DA9430CED12CC12C2DCECF92DF927E
:101E4000EF92FF920F931F93CF93DF93CDB7DEB73F
:101E5000AF970FB6F894DEBF0FBECDBF7C016A010D
:101E600000E811E01A8309831C861B8688EE93E044
:101E7000A0E0B0E08D879E87AF87B88B86E191E0C8
:101E80009A878987188F0F8B198E1A8E1B8E1C8E3E
:101E900084E089A31BA70AA71CA61DA61EA61FA631
:101EA0008091610390916203A0916303B0916403F8
:101EB0008EA39FA3A8A7B9A78B839C83AD83BE8362
:101EC00018861F82AE01465D5F4FCE0101960E94CB
:101ED000BE0C81309105B1F4D701ED91FC910488DD
:101EE000F589E02D1DA30CA38CA59DA5AEA5BFA5CE
:101EF0008EA39FA3A8A7B9A7A601BE016C5D7F4FC3
:101F0000C7010995AF960FB6F894DEBF0FBECDBFDF
:101F1000DF91CF911F910F91FF90EF90DF90CF90C5
:101F20000895CF92DF92EF92FF920F931F93CF937A
:101F3000DF93CDB7DEB7AF970FB6F894DEBF0FBE15
:101F4000CDBF8C016B017A0180E891E09A8389838F
:101F50001B821C821D821E821C861B8648EE53E05B
:101F600060E070E04D875E876F87788B26E131E017
:101F70003A872987988F8F8B198E1A8E1B8E1C8E0D
:101F800024E029A39BA78AA71CA61DA61EA61FA600
:101F9000D8011C968C91843060F40E941805882327
:101FA00021F0F80184850E94F30484E0D8011C9696
:101FB0008C938091610390916203A0916303B0912F
:101FC00064038EA39FA3A8A7B9A78B839C83AD832B
:101FD000BE8318861F82AE01465D5F4FB601CE01FB
:101FE00001960E94BE0C0097C1F0D801ED91FC91C2
:101FF0000684F785E02D80E891E09DA38CA38CA555
:102000009DA5AEA5BFA58EA39FA3A8A7B9A7A7010D
:10201000BE016C5D7F4FC8010995AF960FB6F8946D
:10202000DEBF0FBECDBFDF91CF911F910F91FF900B
:10203000EF90DF90CF900895FB0101900020E9F729
:102040003197AF01461B570BDC01ED91FC910280EB
:10205000F381E02D09948F929F92AF92BF92EF92FD
:10206000FF920F931F93CF93DF93CDB7DEB7A19766
:102070000FB6F894DEBF0FBECDBF7C01FA01CB01D5
:1020800019A2223008F42AE08E010F5D1F4F822E24
:10209000912CB12CA12CBF01A50194010E94311AF1
:1020A000F901CA016A300CF5605DD8016E938D01AB
:1020B000232B242B252B79F790E080E0109721F03B
:1020C000BD01C7010E941C10A1960FB6F894DEBF97
:1020D0000FBECDBFDF91CF911F910F91FF90EF9079
:1020E000BF90AF909F908F900895695CDECF0F9363
:1020F0001F93CF93DF93EC010E941C108C0162E8C8
:1021000071E0CE010E941C10800F911FDF91CF91D2
:102110001F910F9108958F929F92AF92BF92CF928D
:10212000DF92EF92FF920F931F93CF93DF937C0187
:10213000EB016C0182E0C80ED11C4701E5E08E0E78
:10214000911C10E000E0F60141916F0150E070E059
:1021500060E02AE0CE010E942B105C01E881F98149
:102160000190F081E02D6EE2CE0109958A0D9B1D54
:10217000080F191FC814D90431F7F701458150E041
:1021800070E060E02AE0CE010E942B10800F911FCA
:10219000DF91CF911F910F91FF90EF90DF90CF9043
:1021A000BF90AF909F908F9008953F924F925F9213
:1021B0006F927F928F929F92AF92BF92CF92DF9257
:1021C000EF92FF920F931F93CF93DF93CDB7DEB7BC
:1021D000EA970FB6F894DEBF0FBECDBF7C012A018F
:1021E0003B0169010E9424024B015C0187010D5BE8
:1021F0001F4FC8010E94600C181619069CF00E941F
:102200002402681979098A099B0946165706680647
:10221000790608F466C162E370E080E090E00E9415
:10222000F201E7CF42E250E0BE016F5F7F4FC8018D
:102230000E94590B89818230D1F0312C832DEA968E
:102240000FB6F894DEBF0FBECDBFDF91CF911F91C7
:102250000F91FF90EF90DF90CF90BF90AF909F9045
:102260008F907F906F905F904F903F900895F8010E
:10227000848995898334910501F76D817E818F81F1
:1022800098850E94621A4B015C01F601808291825E
:10229000A282B38246E050E0B701685F7F4FCE0173
:1022A0004D960E946F1A892B41F6F701808191812A
:1022B000A281B38188169906AA06BB0608F4BDCF91
:1022C00084819581A681B78188159905AA05BB05EA
:1022D00008F4B3CF89899A89AB89BC8986879787A7
:1022E000A08BB18B4EEC50E070E060E0C8010E9422
:1022F000590B312CC701829698AB8FA7F701B69680
:10230000FAABE9AB08969CAB8BAB67019AE1C90EBF
:10231000D11CBD96FEABEDABC701429698AF8FAB1B
:10232000FD97FAAFE9AF4701FEE18F0E911CF8016E
:10233000818D928D181619060CF080CFC8010E946D
:10234000780B8333910509F4B2C014F581309105FF
:1023500009F464C044F4892B51F3C8010E94780B3E
:10236000AC01552775C08330910509F462C006970A
:10237000A1F7C8010E94780BB82E44E050E0B401E8
:10238000C8010E94590BEB2DE450FF0BAF0160C058
:102390008A33910509F45FC084F585339105B1F165
:1023A000C697D9F6C8010E94780B5C01B601CE0130
:1023B00089960E94190C8BA59CA5ADA5BEA5892B5D
:1023C0008A2B8B2BB1F0EDA9FEA940805180628051
:1023D0007380B601CE0183960E94190C8DA19EA137
:1023E000AFA1B8A5A501481659066A067B0609F0F3
:1023F000B8CF44E050E0B60118C08B33910509F422
:1024000040C08F3F910509F492CFA7CFC8010E9429
:10241000780BC8010E94780B382E89CFC8010E9422
:10242000780B44E050E06FA978ADC8010E94590BC9
:102430007ECFC8010E94780BB82E44E050E069AD11
:102440007AADC8010E94590B8B2D8450990BAC01B9
:1024500070E060E0EACFC8010E94780B44E050E0F1
:1024600069A97AA9C8010E94590BF70166A177A151
:1024700080A591A50E94621A66A377A380A791A761
:1024800056CFC8010E94780B44E050E06BA97CA9AC
:10249000C8010E94590BF70162A573A584A595A5F3
:1024A0000E94621A62A773A784A795A740CFC801AC
:1024B0000E94780B44E050E06FA578A9C8010E9403
:1024C000590BF70162A173A184A195A10E94621A20
:1024D00062A373A384A395A366A777A780AB91ABF0
:1024E00026CF33243A94AACE7F928F929F92AF92B6
:1024F000BF92CF92DF92EF92FF920F931F93CF93F1
:10250000DF93CDB7DEB7A6970FB6F894DEBF0FBE48
:10251000CDBF8C01762E942E852E20E2A22ECE01E8
:1025200001967C01DC01EA2D1D92EA95E9F768012C
:10253000F3E4CF0ED11C80E891E09AA389A38FEF3A
:102540008BA38CA38DA38EA343E450E0BE016F5DEB
:102550007F4FC6010E94C703019609F4BFC081E006
:1025600089838A8386E0B82EBB821C82D8011496A8
:102570006D917D918D919C9117970E94621A6D8348
:102580007E838F83988789869A8680E890E09C87EF
:102590008B874CE150E0B701C6010E948409FE011F
:1025A00037968AE1DF011D928A95E9F74801B8E084
:1025B0008B0E911CF401D70101900D92BA94E1F7B2
:1025C00040E150E0B701C6010E948409F701119271
:1025D000AA94E9F796E0A92EB12C40E250E0B701A9
:1025E000C6010E948409F1E0AF1AB108B1F783E691
:1025F000898392E89A8393E59B838C8385E38D831B
:1026000081E08E837F829DE3988797E099878A8710
:1026100086E0F401DE011B9601900D928A95E1F7A8
:102620008CE0898B8A8B65E871E0CE0143960E942D
:10263000831AD8011B966C91CE0149960E948A009C
:10264000F8016485CE014B960E948A00D8011D9640
:102650006C91CE014D960E948A004EE150E0B70188
:10266000C6010E948409B3E07B121EC082E3898305
:1026700084E08A83F80196859B8397859C83908963
:102680009D8391899E8396E39F838887828D898726
:10269000838D8A87848D8B87858D8C874CE050E075
:1026A000B701C6010E94840987E3898386E08A8393
:1026B00091E09B8393E09C838D838FE08E838AE3FC
:1026C0008F838BE388878FEF898749E050E0B701DC
:1026D000C6010E948409C6010E947F05A6960FB616
:1026E000F894DEBF0FBECDBFDF91CF911F910F9148
:1026F000FF90EF90DF90CF90BF90AF909F908F9022
:102700007F9008951F920F920FB60F9211242F936E
:102710003F934F935F936F937F938F939F93AF9369
:10272000BF93EF93FF9384EA92E00E943E01FF91F2
:10273000EF91BF91AF919F918F917F916F915F9139
:102740004F913F912F910F900FBE0F901F901895B2
:102750001F920F920FB60F9211242F938F939F9376
:10276000EF93FF93E091B402F091B5028081E09184
:10277000BA02F091BB0282FD1BC090818091BD0224
:102780008F5F8F732091BE02821741F0E091BD02EE
:10279000F0E0EC55FD4F958F8093BD02FF91EF91D6
:1027A0009F918F912F910F900FBE0F901F901895B2
:1027B0008081F4CF1F920F920FB60F9211242F93A6
:1027C0003F938F939F93AF93BF938091110290910A
:1027D0001202A0911302B09114023091100223E072
:1027E000230F2D3758F50196A11DB11D209310021E
:1027F0008093110290931202A0931302B0931402DB
:102800008091150290911602A0911702B0911802C2
:102810000196A11DB11D8093150290931602A093FD
:102820001702B0931802BF91AF919F918F913F9182
:102830002F910F900FBE0F901F90189526E8230F31
:102840000296A11DB11DD2CF1F920F920FB60F920B
:1028500011240F900FBE0F901F901895E4EAF2E03C
:102860001382128248EE53E060E070E044835583A7
:102870006683778380E491E09183808385EC90E0A8
:102880009587848784EC90E09787868780EC90E03A
:10289000918B808B81EC90E0938B828B82EC90E02B
:1028A000958B848B86EC90E0978B868B118E128EA5
:1028B000138E148EE1E4F3E080E891E0918380834D
:1028C0001282138214821582E7E4F3E091838083FD
:1028D0001282138214821582EDE4F3E091838083E7
:1028E0001282138214821582E3E5F3E091838083E0
:1028F0001282138214821582E9E5F3E091838083CA
:102900001282138214821582E5E6F3E091838083BC
:102910001282138214821582EFE5F3E091838083A3
:102920001282138214821582EBE6F3E09183808396
:102930001282138214821582E1E7F3E0918380838F
:102940001282138214821582ECE8F3E09183808373
:102950001282138214821582E6E8F3E09183808369
:1029600080EC828388EA838388E0848381E08583A6
:10297000E7E7F3E01382128244835583668377830B
:1029800082E591E09183808384E0848788EE93E000
:10299000968785870895CF93DF93CDB7DEB72A97C3
:1029A0000FB6F894DEBF0FBECDBF789484B58260B9
:1029B00084BD84B5816084BD85B5826085BD85B5E3
:1029C000816085BD80916E00816080936E00109261
:1029D00081008091810082608093810080918100DC
:1029E000816080938100809180008160809380006D
:1029F0008091B10084608093B1008091B0008160CB
:102A00008093B00080917A00846080937A008091F6
:102A10007A00826080937A0080917A00816080934E
:102A20007A0080917A00806880937A001092C100C9
:102A3000E091B402F091B50282E08083E091B002AF
:102A4000F091B1021082E091B202F091B3028FECEA
:102A500080831092BC02E091B802F091B90286E046
:102A60008083E091B602F091B7028081806180831B
:102A7000E091B602F091B702808188608083E09196
:102A8000B602F091B702808180688083E091B6023F
:102A9000F091B70280818F7D808380917F028111C8
:102AA0002AC0109267021092660288EE93E0A0E0BE
:102AB000B0E08093680290936902A0936A02B09399
:102AC0006B0286E191E0909365028093640280E856
:102AD00091E09093730280937202109274021092AC
:102AE0007502109276021092770284E080937C0245
:102AF00081E080937F0281E292E0909320028093B4
:102B00001F0280911E028111C9C060E372E080E063
:102B100090E00E94F201DFB6F8940AE910E0BEEA04
:102B2000EB2EB0E0FB2E80911C02811142C0F80117
:102B30008491F7019491E82FF0E0EE0FFF1FEA5720
:102B4000FF4FA591B4918C91982321F5E2E7F0E035
:102B50008491F7019491F80124912223D9F08823DC
:102B600059F0833009F43FC208F032C2813009F4D1
:102B700040C2823009F441C2E22FF0E0EE0FFF1FA5
:102B8000E458FF4FA591B4918FB7F8942C91922BF4
:102B90009C938FBF8AE00E949C008CB580618CBDA5
:102BA0008CB580648CBD8DE00E949C008BE00E94FF
:102BB0009C0080911C028F5F80931C02DFBEF80195
:102BC0000491E02FF0E0EE0FFF1FE458FF4F8591D6
:102BD000949190931B0280931A02F701E490E09283
:102BE00019028AE00E949C000E944A0280E591E05E
:102BF0000E94870084E38093A30280E80E9416036A
:102C00000E94C305882309F405C288E00E941603C8
:102C10000E94B005883009F0FDC180E10E941603D2
:102C20000E94B005803109F0F5C180E00E941603D2
:102C30000E94B005182F8111EDC141E050E0BE01A6
:102C40006F5F7F4F8FE190E00E943B04898183306A
:102C500009F0E0C180E480931D0242E06EE170E083
:102C6000812F0E94720342E06FE170E0812F0E9489
:102C700072031F5F143089F740E06EE170E0812F2E
:102C80000E94720340E06FE170E0812F0E947203A6
:102C90001F5F183089F781E080931E0280E591E084
:102CA0000E94870046E050E060E071E089E090E03B
:102CB0000E94660280E891E09A8389831B821C82CD
:102CC0001D821E8244E050E0BE016D5F7F4F8FE0A9
:102CD00090E00E94660200911F0210912002D8012C
:102CE00092961D921D921D921C929597F80116A224
:102CF00017A210A611A69A961D921D921D921C92C3
:102D00009D9780E69AEEA0E0B0E086AB97ABA0AFCF
:102D1000B1AF80EA9FE0A0E0B0E082AF93AFA4AF94
:102D2000B5AF3E9684E1DF011D928A95E9F786E012
:102D3000E0E0F1E0D801189601900D928A95E1F754
:102D4000F801EE5BFF4FFA87E98710820E94A7190E
:102D50002FEC37E040E050E00E94FF19DC01CB018E
:102D60000196A11DB11DF80184839583A683B783C5
:102D700080839183A283B3835801F3E4AF0EB11C27
:102D8000C5010E940B0564E470E0C5010E9474084F
:102D9000882309F4A8C10E9424022B013C0148EEBB
:102DA000C42E43E0D42EE12CF12C52E0252E912CA0
:102DB000812CA985BA858C918330B9F181119AC192
:102DC000F80184819581A681B7810196A11DB11D6D
:102DD00084839583A683B7830E94240264197509AE
:102DE00086099709A70196010E94311AA90161E09D
:102DF000C8010E94741281E0A985BA858C93F1E024
:102E00008F169104B1F20E94240264197509860993
:102E10009709D801D6962D913D914D915C91D99706
:102E2000261737074807590710F6C5010E940B05FA
:102E3000F80184819581A681B7810196A11DB11DFC
:102E400084839583A683B7830E942402F801FE96AB
:102E500060837183828393838A94892809F043C1B4
:102E600080E591E00E94870000911F0210912002EE
:102E7000B801625F7F4FCE0101960E94190C44E0B9
:102E800050E0BE016D5F7F4F8FE090E00E946602D0
:102E9000B8016A5E7F4FCE0101960E94190C44E092
:102EA00050E0BE016D5F7F4F81E090E00E946602BE
:102EB000B8016E5E7F4FCE0101960E94190C44E06E
:102EC00050E0BE016D5F7F4F85E090E00E9466029A
:102ED000B801625E7F4FCE0101960E94190C8B8172
:102EE0009C81AD81BE818093610390936203A09326
:102EF0006303B09364030E94CD017F738091060148
:102F00009091070168277927709307016093060164
:102F100068EE73E080E090E00E94F20164EB71E003
:102F200084EA92E00E94771000E811E080E0E82E49
:102F300080E0F82E1A830983809188039091890399
:102F4000A0918A03B0918B038B839C83AD83BE8356
:102F500040E550E0BE016F5F7F4F87E793E00E943E
:102F6000F207892BF1F067EC71E084EA92E00E94AD
:102F700077106BED71E087E793E00E9477106AEEBF
:102F800071E087E793E00E9477106CEF71E087E7CC
:102F900093E00E94771062E871E087E793E00E9477
:102FA0001C1060ED77E080E090E00E94F20187E77E
:102FB00093E00E94800A892B09F467C187E793E0B8
:102FC0000E94A20B682F84EA92E00E946001EFCF7A
:102FD0008730B1F08830D1F0843009F0CDCD8091C8
:102FE00080008F7D03C0809180008F778093800068
:102FF000C3CD84B58F7784BDBFCD84B58F7DFBCF26
:103000008091B0008F778093B000B6CD8091B000F2
:103010008F7DF9CF87E38093A30280E80E94160397
:103020000E94C305882329F188E00E9416030E94AC
:10303000B0058830F1F480E10E9416030E94B005CB
:10304000182F8031B1F480E00E9416030E94B00571
:1030500081110FC041E050E0BE016F5F7F4F89E3F7
:1030600090E00E943B048981843019F410931D0282
:1030700012CE83E38093A30280E80E9416030E948D
:10308000C305882371F180E10E9416030E94B005F8
:10309000803139F582E10E9416030E94B005823129
:1030A00001F580E00E9416030E94B005811119C04D
:1030B00084E080931D0215E5188741E050E0BE01D1
:1030C000685F7F4F8BE190E00E9466021F8341E0C2
:1030D00050E0BE01695F7F4F8AE190E00E94660286
:1030E000DACD1092A3026CE871E084EA92E00E94CB
:1030F00077100ECF8430F9F4F80184819581A68190
:10310000B7810196A11DB11D84839583A683B783E2
:103110000E9424026419750986099709A70196017E
:103120000E94311AA90163E0C8010E947412A985A6
:10313000BA852C9264CE813059F5F80142AD53AD79
:1031400064AD75AD9E012F5F3F4FC8010E94D51041
:10315000382EF2E08F1392C089819A81AB81BC81B5
:10316000F80184839583A683B7830E94240264199F
:10317000750986099709A70196010E94311AA901CC
:1031800063E0C8010E947412A985BA853C9237CECB
:10319000823009F034CEF80142AD53AD64AD75AD67
:1031A0009E012F5F3F4FC8010E94D510382EF5E0D9
:1031B0008F135DC0E3E0A985BA85EC93F80182A185
:1031C00093A1A4A1B5A1892B8A2B8B2B41F484E870
:1031D00093E0A0E0B0E082A393A3A4A3B5A3F80179
:1031E00086A197A1A0A5B1A5892B8A2B8B2B61F471
:1031F00082A193A1A4A1B5A1B695A795979587950E
:1032000086A397A3A0A7B1A7F80182A593A5A4A51B
:10321000B5A5892B8A2B8B2BA9F482A193A1A4A1FC
:10322000B5A1AC01BD0123E076956795579547950B
:103230002A95D1F7841B950BA60BB70B82A793A7F2
:10324000A4A7B5A7F80186A197A1A0A5B1A586A7B7
:1032500097A7A0ABB1AB82A593A5A4A5B5A582AB5A
:1032600093ABA4ABB5AB88248394912CC8CDF6E086
:103270008F1304C0A985BA851C92C1CDBFEF3B1244
:10328000BECDE985FA851082BACD87E793E00E942A
:10329000460568E873E180E090E00E94F201E114E5
:1032A000F10409F447CE0E942A01882309F442CE92
:1032B0000E9400003FCE8F929F92AF92BF92CF921A
:1032C000DF92EF92FF92CF93DF93EC0168817981D7
:1032D0008A819B81611571058105910521F464E264
:1032E00079ED8BE597E02DE133EF41E050E00E946E
:1032F000FF1949015A019B01AC01A7EAB1E40E9400
:103300001E1A6B017C01ACEEB4EFA50194010E9482
:103310002C1AC60ED71EE81EF91EF7FE06C081E065
:10332000C81AD108E10880E8F80AC882D982EA827E
:10333000FB82C701B6019F77DF91CF91FF90EF909D
:10334000DF90CF90BF90AF909F908F9008958F9215
:103350009F92AF92BF92CF92DF92EF92FF926091D5
:1033600008017091090180910A0190910B0161158A
:1033700071058105910521F464E279ED8BE597E013
:103380002DE133EF41E050E00E94FF1949015A015D
:103390009B01AC01A7EAB1E40E941E1A6B017C01FB
:1033A000ACEEB4EFA50194010E942C1AC60ED71EF4
:1033B000E81EF91EF7FE06C081E0C81AD108E10830
:1033C00080E8F80AC0920801D0920901E0920A014F
:1033D000F0920B01C701B6019F77FF90EF90DF904D
:1033E000CF90BF90AF909F908F9008956093080109
:1033F0007093090180930A0190930B010895052EA3
:1034000097FB1EF400940E94161A57FD07D00E94E5
:10341000311A07FC03D04EF40C94161A50954095BF
:10342000309521953F4F4F4F5F4F08959095809570
:10343000709561957F4F8F4F9F4F08950E94531A4B
:10344000A59F900DB49F900DA49F800D911D1124F8
:103450000895B7FF0C941E1A0E941E1A821B930B2C
:103460000895A1E21A2EAA1BBB1BFD010DC0AA1FC5
:10347000BB1FEE1FFF1FA217B307E407F50720F0DD
:10348000A21BB30BE40BF50B661F771F881F991F58
:103490001A9469F760957095809590959B01AC01A1
:1034A000BD01CF010895A29FB001B39FC001A39FAA
:1034B000700D811D1124911DB29F700D811D11246D
:1034C000911D0895692796276927782787277827E8
:1034D0000895EE0FFF1F0590F491E02D0994FB0174
:1034E000DC0104C08D910190801921F441505040BD
:1034F000C8F7881B990B0895DC0101C06D934150FA
:103500005040E0F70895FB01DC0101900D9200208E
:10351000E1F70895F894FFCFDEADBEEFFEED00C0F9
:103520000100000001005E000000000000008F03A9
:1035300084091D04BF00BB00780BFF0574080F074A
:103540000B05C7031E0F7F05600C590B16040604FC
:103550000204FE03000000006001C000ED00AD01A8
:103560001E01FC00100100000000B003BE097B0931
:103570006609800AA20B0E06F207910FBC0B4605E6
:103580002405330430042E04A5032404EF0B250C7A
:10359000C50B2004000000008B100D0A0057495A8B
:1035A0006E6574004661696C656420746F20636F9A
:1035B0006E6669677572652045746865726E6574BC
:1035C000207573696E6720444843500045746865F0
:1035D000726E657420636F6E6E656374656400431C
:1035E0006F6E6E656374656420746F2073657276A8
:1035F000657200474554202F20485454502F312ED7
:103600003100486F73743A203139322E3136382EFA
:10361000382E3100436F6E6E656374696F6E3A20A9
:06362000636C6F7365008E
:107E0000112484B714BE81FFF0D085E080938100F7
:107E100082E08093C00088E18093C10086E0809377
:107E2000C20080E18093C4008EE0C9D0259A86E02C
:107E300020E33CEF91E0309385002093840096BBD3
:107E4000B09BFECF1D9AA8958150A9F7CC24DD24C4
:107E500088248394B5E0AB2EA1E19A2EF3E0BF2EE7
:107E6000A2D0813461F49FD0082FAFD0023811F036
:107E7000013811F484E001C083E08DD089C08234E0
:107E800011F484E103C0853419F485E0A6D080C0E4
:107E9000853579F488D0E82EFF2485D0082F10E0AE
:107EA000102F00270E291F29000F111F8ED06801E7
:107EB0006FC0863521F484E090D080E0DECF843638
:107EC00009F040C070D06FD0082F6DD080E0C81688
:107ED00080E7D80618F4F601B7BEE895C0E0D1E017
:107EE00062D089930C17E1F7F0E0CF16F0E7DF06D8
:107EF00018F0F601B7BEE89568D007B600FCFDCFD4
:107F0000A601A0E0B1E02C9130E011968C91119780
:107F100090E0982F8827822B932B1296FA010C0160
:107F200087BEE89511244E5F5F4FF1E0A038BF0790
:107F300051F7F601A7BEE89507B600FCFDCF97BE46
:107F4000E89526C08437B1F42ED02DD0F82E2BD052
:107F50003CD0F601EF2C8F010F5F1F4F84911BD097
:107F6000EA94F801C1F70894C11CD11CFA94CF0C13
:107F7000D11C0EC0853739F428D08EE10CD085E9AC
:107F80000AD08FE07ACF813511F488E018D01DD067
:107F900080E101D065CF982F8091C00085FFFCCF94
:107FA0009093C60008958091C00087FFFCCF809118
:107FB000C00084FD01C0A8958091C6000895E0E648
:107FC000F0E098E1908380830895EDDF803219F02E
:107FD00088E0F5DFFFCF84E1DECF1F93182FE3DFCA
:107FE0001150E9F7F2DF1F91089580E0E8DFEE27F6
:047FF000FF270994CA
:027FFE00040479
:00000001FF
