:020000040000FA
:100000000C9463000C948B000C948B000C94610393
:100010000C9461030C9461030C948B000C948B0082
:100020000C948B000C948B000C948B000C948B0024
:100030000C948B000C948B000C948B000C948B0014
:100040000C9417030C948B000C94E5020C94BF02E3
:100050000C948B000C948B000C948B000C948B00F4
:100060000C948B000C948B0000000008000201002F
:100070000003040700000000000000000000000072
:1000800023002600290000000000240027002A0089
:1000900000000000250028002B00040404040404D0
:1000A0000404020202020202030303030303010227
:1000B00004081020408001020408102001020408F6
:1000C00010202504960611241FBECFEFD8E0DEBF16
:1000D000CDBF11E0A0E0B1E0EAEDFDE002C0059087
:1000E0000D92AE38B107D9F722E0AEE8B1E001C019
:1000F0001D92A739B207E1F710E0C2E6D0E004C0D4
:100100002197FE010E94DA06C136D107C9F70E9485
:100110000E050C94E0060C940000AF92BF92CF92B3
:10012000DF92EF92FF920F931F93CF93DF936C01B7
:100130007B018B01040F151FEB015E01AE18BF0898
:10014000C017D10759F06991D601ED91FC9101904A
:10015000F081E02DC6010995892B79F7C501DF9162
:10016000CF911F910F91FF90EF90DF90CF90BF90B4
:10017000AF900895FC01538D448D252F30E0842FDE
:1001800090E0821B930B541710F0CF9608950197BF
:100190000895FC01918D828D981761F0A28DAE0FAC
:1001A000BF2FB11D5D968C91928D9F5F9F73928F33
:1001B00090E008958FEF9FEF0895FC01918D828D5F
:1001C000981731F0828DE80FF11D858D90E008952C
:1001D0008FEF9FEF0895FC01918D228D892F90E084
:1001E000805C9F4F821B91098F73992708958BED37
:1001F00091E00E94EB0021E0892B09F420E0822F9E
:10020000089580E090E0892B29F00E94F700811189
:100210000C9400000895FC01A48DA80FB92FB11D06
:10022000A35ABF4F2C91848D90E001968F7399272C
:10023000848FA689B7892C93A089B1898C9183700A
:1002400080648C93938D848D981306C00288F38903
:10025000E02D80818F7D80830895EF92FF920F9330
:100260001F93CF93DF93EC0181E0888F9B8D8C8D62
:1002700098131AC0E889F989808185FF15C09FB756
:10028000F894EE89FF896083E889F9898081837019
:10029000806480839FBF81E090E0DF91CF911F91C8
:1002A0000F91FF90EF900895F62E0B8D10E00F5FE9
:1002B0001F4F0F731127E02E8C8D8E110CC00FB6BF
:1002C00007FCFACFE889F989808185FFF5CFCE0157
:1002D0000E940B01F1CFEB8DEC0FFD2FF11DE35AC6
:1002E000FF4FF0829FB7F8940B8FEA89FB898081DA
:1002F0008062CFCFCF93DF93EC01888D8823B9F054
:10030000AA89BB89E889F9898C9185FD03C0808120
:1003100086FD0DC00FB607FCF7CF8C9185FFF2CF9D
:10032000808185FFEDCFCE010E940B01E9CFDF91E7
:10033000CF9108953FB7F8948091D3019091D40163
:10034000A091D501B091D60126B5A89B05C02F3F3D
:1003500019F00196A11DB11D3FBFBA2FA92F982FEB
:100360008827BC01CD01620F711D811D911D42E0E6
:10037000660F771F881F991F4A95D1F708958F92AE
:100380009F92AF92BF92CF92DF92EF92FF924B017A
:100390005C010E949A016B017C010E949A016C1918
:1003A0007D098E099F09683E734081059105A8F378
:1003B00021E0821A9108A108B10888EEC80E83E0F6
:1003C000D81EE11CF11C81149104A104B10429F789
:1003D000FF90EF90DF90CF90BF90AF909F908F9065
:1003E00008952091D9013091DA012817390771F465
:1003F0009091D7018091D801981741F0E091D701F1
:10040000F0E0E257FE4F808190E008958FEF9FEF7C
:1004100008950895EF92FF920F931F93CF93DF9368
:10042000DC015C96ED90FC905D97E114F10479F4A9
:1004300081E090E013969C938E93129790E080E079
:10044000DF91CF911F910F91FF90EF9008955196FA
:10045000ED91FC91529750968C915097982F9095D2
:100460000FB75E962C915E97122F127021FD60954A
:10047000F8942081112319F1282B2083E70121977B
:10048000F1F728E0462F50E0308160FF1AC0382B8A
:100490003083E7012197F1F7BA01759567952150EF
:1004A00089F7112381F08081892380830FBF5C96B7
:1004B0008D919C910197F1F781E090E0C1CF2923C4
:1004C000DCCF3923E5CF9081892BEFCF2091D90163
:1004D0003091DA012817390771F48091D801209101
:1004E000D70190E0805C9F4F821B910960E470E02F
:1004F0000E94B206089590E080E008952091D9010D
:100500003091DA0128173907B9F49091D701809119
:10051000D801981789F0E091D701F0E0E257FE4F3B
:1005200080812091D70130E02F5F3F4F2F73332719
:100530002093D70190E008958FEF9FEF089590E00A
:1005400080E00895CF93DF93FC0101900020E9F74C
:100550003197AF01481B590BBC0188E792E00E941C
:100560008D00EC0142E050E064E271E088E792E047
:100570000E948D008C0F9D1FDF91CF9108951F92D7
:100580000F920FB60F9211242F933F934F935F93C7
:100590006F937F938F939F93AF93BF93EF93FF934B
:1005A0008BED91E00E940B01FF91EF91BF91AF9114
:1005B0009F918F917F916F915F914F913F912F917B
:1005C0000F900FBE0F901F9018951F920F920FB6AD
:1005D0000F9211242F938F939F93EF93FF93E091AA
:1005E000EB01F091EC018081E091F101F091F201D9
:1005F00082FD1BC090818091F4018F5F8F732091E9
:10060000F501821741F0E091F401F0E0E552FE4F70
:10061000958F8093F401FF91EF919F918F912F918E
:100620000F900FBE0F901F9018958081F4CF1F92EE
:100630000F920FB60F9211242F933F938F939F9396
:10064000AF93BF938091CF019091D001A091D10140
:10065000B091D2013091CE0123E0230F2D3758F510
:100660000196A11DB11D2093CE018093CF019093DF
:10067000D001A093D101B093D2018091D301909188
:10068000D401A091D501B091D6010196A11DB11D53
:100690008093D3019093D401A093D501B093D60158
:1006A000BF91AF919F918F913F912F910F900FBE6E
:1006B0000F901F90189526E8230F0296A11DB11DDB
:1006C000D2CF1F920F920FB60F9211242F933F9308
:1006D0004F935F936F937F938F939F93AF93BF934A
:1006E000EF93FF93E091D901F091DA01309749F04F
:1006F000A685B7858585968D91FF14C09C91892329
:10070000A1F4FF91EF91BF91AF919F918F917F9154
:100710006F915F914F913F912F910F900FBE0F906E
:100720001F9018959C91892361F7A389B4899C91A6
:100730008589809589238C93868997890197F1F71C
:10074000608D718DA685B785558538E020E0CB0199
:100750000197F1F7822F90E095958795282F4C917E
:10076000452309F02068315091F7868D81FD209551
:100770008091D80190E001968F7399273091D7012D
:10078000381799F0A091D801B0E0A257BE4F2C9332
:100790008093D801828D938D0197F1F7A389B48955
:1007A0008C919589892B8C93ACCF868D8160868FB7
:1007B000F1CF90E0FC01E859FF4F2491FC01E25594
:1007C000FF4F3491FC01E656FF4FE491EE23C9F050
:1007D000222339F0233001F1A8F4213019F122301D
:1007E00029F1F0E0EE0FFF1FE057FF4FA591B49104
:1007F0008FB7F894EC91611126C030953E233C935D
:100800008FBF08952730A9F02830C9F0243049F768
:10081000809180008F7D03C0809180008F778093CE
:100820008000DFCF84B58F7784BDDBCF84B58F7D2B
:10083000FBCF8091B0008F778093B000D2CF8091B2
:10084000B0008F7DF9CF3E2BDACF0F931F93CF935C
:10085000DF931092DE011092DD0188EE93E0A0E0BC
:10086000B0E08093DF019093E001A093E101B093A9
:10087000E20124E031E03093DC012093DB0125EC40
:1008800030E03093E8012093E70124EC30E030932E
:10089000EA012093E90120EC30E03093EC01209351
:1008A000EB0121EC30E03093EE012093ED0122ECDE
:1008B00030E03093F0012093EF0126EC30E03093EC
:1008C000F2012093F1011092F4011092F5011092BF
:1008D000F6011092F70110927B0210927A02809337
:1008E0007C0290937D02A0937E02B0937F0286E10A
:1008F00091E0909379028093780210928F02109287
:100900008E02109291021092900210929302109215
:1009100092021092950210929402609196026E7F5C
:100920006D7F609396026695617081E0682788E02C
:100930000E94D90346EB50E0FA01649182EA90E00C
:10094000FC012491222399F030E0220F331FF9019A
:10095000EA57FF4FA591B491F901E057FF4F259158
:1009600034912FB7F8943C91632B6C932FBFFA010D
:10097000449140938802FC018491E82FF0E0EE0F4F
:10098000FF1FE057FF4F8591949190938A028093C7
:10099000890205EB10E0F8012491C1EAD0E0FE01E4
:1009A00084918823C9F090E0880F991FFC01EA57D1
:1009B000FF4FA591B491FC01E057FF4F4591549131
:1009C0003FB7F8949C91822F809598239C93FA01CD
:1009D0009081892380833FBF8091960281FD04C06E
:1009E00061E087E00E94D90387E080938402F801E8
:1009F000049100938502FE01C491EC2FF0E0EE0F0C
:100A0000FF1FE458FF4F8591949190938702809344
:100A10008602DF91CF911F910F910895789484B54C
:100A2000826084BD84B5816084BD85B5826085BDEA
:100A300085B5816085BD80916E00816080936E0078
:100A4000109281008091810082608093810080916A
:100A5000810081608093810080918000816080931B
:100A600080008091B10084608093B1008091B000DB
:100A700081608093B00080917A00846080937A00D6
:100A800080917A00826080937A0080917A00816000
:100A900080937A0080917A00806880937A00109227
:100AA000C100E091EB01F091EC0182E08083E091E4
:100AB000E701F091E8011082E091E901F091EA018B
:100AC0008FEC80831092F301E091EF01F091F0013F
:100AD00086E08083E091ED01F091EE0180818061FC
:100AE0008083E091ED01F091EE0180818860808348
:100AF000E091ED01F091EE01808180688083E091CA
:100B0000ED01F091EE0180818F7D80831092930240
:100B100010929202109291021092900210928F0203
:100B200010928E028DE991E0909395028093940249
:100B300090918402963108F047C02DEB30E030935D
:100B40008F0220938E022BE931E0309391022093A3
:100B500090022CE231E03093930220939202209194
:100B6000680084E0983048F031E09E3008F430E0CE
:100B700081E001C0880F3A95EAF7822B80936800E4
:100B80002DE630E0983050F02BE630E09E3030F02B
:100B90002CE630E0963110F030E020E030938C020B
:100BA00020938B02292F30E0983008F0B2C081E00A
:100BB00001C0880F9A95EAF780938D028091940284
:100BC000909195020197F1F7809192029091930292
:100BD000892B49F1E091D901F091DA0182E0E837FF
:100BE000F80709F1309739F0A389B4899C91858978
:100BF000809589238C93809196028E7F80939602B4
:100C00001092D8011092D70188E792E09093DA0110
:100C10008093D901E0918B02F0918C0280819091B8
:100C20008D02892B808368EE73E080E090E00E9463
:100C3000BF0187E291E00E94A20268EE73E080E0CB
:100C400090E00E94BF0183E391E00E94A20268EE5F
:100C500073E080E090E00E94BF0186E391E00E9493
:100C6000A20268EE73E080E090E00E94BF018FE393
:100C700091E00E94A20268EE73E080E090E00E94A2
:100C8000BF0186E491E00E94A20268EE73E080E07A
:100C900090E00E94BF018DE491E00E94A20268EE04
:100CA00073E080E090E00E94BF0187E591E00E9440
:100CB000A20268EE73E080E090E00E94BF018FE640
:100CC00091E00E94A20268EE73E080E090E00E9452
:100CD000BF016AE188E792E00E940A0268EB7BE0CC
:100CE00080E090E00E94BF0183E891E00E94A202B0
:100CF00068EE73E080E090E00E94BF01C0E0D0E0C9
:100D00002097F1F30E94F7008823D1F30E9400009E
:100D1000F7CF9E3040F42850310981E001C0880FA0
:100D20002A95EAF749CF2E503109F7CF86E191E0B5
:100D300090937902809378028091D9019091DA01A1
:100D40008857924071F4E0918B02F0918C0290816F
:100D500080918D028095892380831092DA01109210
:100D6000D901089597FB072E16F4009407D077FD5C
:100D700009D00E94C60607FC05D03EF490958195E7
:100D80009F4F0895709561957F4F0895AA1BBB1BD7
:100D900051E107C0AA1FBB1FA617B70710F0A61B7B
:100DA000B70B881F991F5A95A9F780959095BC019C
:100DB000CD010895EE0FFF1F0590F491E02D0994E9
:100DC00010E0C2E6D0E004C0FE010E94DA062196DF
:100DD000C336D107C9F7F894FFCF000000002D01FA
:100DE0008D00BA007A01EB00C900DD0000000000B0
:100DF0000A028D009F02090266027E02F1010D0ABD
:100E00000041542B4950523D393630300041540096
:100E100041542B435245473F0041542B435351000B
:100E200041542B47534E0041542B434D47463D31CF
:100E30000041542B434D47533D222B39303533303D
:100E400034353433343236220048656C6C6F20669A
:100E5000726F6D2041726475696E6F210041542B71
:080E6000434D47523D310000F3
:107E0000112484B714BE81FFF0D085E080938100F7
:107E100082E08093C00088E18093C10086E0809377
:107E2000C20080E18093C4008EE0C9D0259A86E02C
:107E300020E33CEF91E0309385002093840096BBD3
:107E4000B09BFECF1D9AA8958150A9F7CC24DD24C4
:107E500088248394B5E0AB2EA1E19A2EF3E0BF2EE7
:107E6000A2D0813461F49FD0082FAFD0023811F036
:107E7000013811F484E001C083E08DD089C08234E0
:107E800011F484E103C0853419F485E0A6D080C0E4
:107E9000853579F488D0E82EFF2485D0082F10E0AE
:107EA000102F00270E291F29000F111F8ED06801E7
:107EB0006FC0863521F484E090D080E0DECF843638
:107EC00009F040C070D06FD0082F6DD080E0C81688
:107ED00080E7D80618F4F601B7BEE895C0E0D1E017
:107EE00062D089930C17E1F7F0E0CF16F0E7DF06D8
:107EF00018F0F601B7BEE89568D007B600FCFDCFD4
:107F0000A601A0E0B1E02C9130E011968C91119780
:107F100090E0982F8827822B932B1296FA010C0160
:107F200087BEE89511244E5F5F4FF1E0A038BF0790
:107F300051F7F601A7BEE89507B600FCFDCF97BE46
:107F4000E89526C08437B1F42ED02DD0F82E2BD052
:107F50003CD0F601EF2C8F010F5F1F4F84911BD097
:107F6000EA94F801C1F70894C11CD11CFA94CF0C13
:107F7000D11C0EC0853739F428D08EE10CD085E9AC
:107F80000AD08FE07ACF813511F488E018D01DD067
:107F900080E101D065CF982F8091C00085FFFCCF94
:107FA0009093C60008958091C00087FFFCCF809118
:107FB000C00084FD01C0A8958091C6000895E0E648
:107FC000F0E098E1908380830895EDDF803219F02E
:107FD00088E0F5DFFFCF84E1DECF1F93182FE3DFCA
:107FE0001150E9F7F2DF1F91089580E0E8DFEE27F6
:047FF000FF270994CA
:027FFE00040479
:00000001FF
